:020000040800F2
:100000009804002045010008B7160008A315000851
:10001000B51600084F08000801190008000000008C
:10002000000000000000000000000000BB160008F7
:10003000A10A000800000000B9160008BD1600085B
:100040005F0100085F0100085F0100085F01000810
:100050005F0100085F0100085F0100085F01000800
:100060005F0100085F0100085F0100085F010008F0
:100070005F0100085F0100085F0100085F010008E0
:100080005F0100085F0100085F0100085F010008D0
:100090005F0100085F0100085F0100085F010008C0
:1000A0005F0100085F0100085F0100085F010008B0
:1000B0005F0100085F0100085F0100085F010008A0
:1000C0005F0100085F0100085F0100085F01000890
:1000D0005F0100085F0100085F0100085F01000880
:1000E0005F0100085F0100085F0100085F01000870
:1000F0005F0100085F0100085F0100085F01000860
:100100005F0100085F0100085F0100085F0100084F
:100110005F0100085F0100085F0100085F0100083F
:100120005F0100085F0100085F0100085F0100082F
:10013000DFF80CD000F058FB0048004741220008CF
:10014000980400200648804706480047FEE7FEE77F
:10015000FEE7FEE7FEE7FEE7FEE7FEE7FEE7FEE777
:100160001117000831010008202A04DB203A21FA87
:1001700002F00021704721FA02F3D040C2F12002C0
:100180009140084319467047D2B201E000F8012BB4
:10019000491EFBD270470022F6E710B513460A4607
:1001A00004461946FFF7F0FF204610BD30B480EA40
:1001B000010202F0004530F0004221F0004013D06F
:1001C00090B1C30DD40DC2F31601C0F31600E41AAA
:1001D00041F4000140F400027D34914201D3641CDB
:1001E00000E04900002C02DA30BC002070474FF4D8
:1001F00000000023914201D3891A034340084FEACB
:100200004101F7D151B1914202D14FF0004105E0D7
:1002100002D24FF0010101E06FF0010103EBC45085
:10022000284430BC00F005B92DE9FE4F81EA0304F3
:1002300004F0004421F0004100944FF0000B23F043
:10024000004350EA01045ED052EA03045BD0C3F3DA
:100250000A54C1F30A552C44A4F2F3340194A0FBD0
:100260000254C1F3130141F48011C3F3130343F4A7
:10027000801301FB024400FB034E840A970A44EA00
:10028000815447EA8357A4FB076802958D0A05FB52
:1002900007854FEA932C04FB0C542705029D4FEA77
:1002A000065847EA1637B5EB08056EEB070C870EC4
:1002B000920E47EA811742EA8312A7FB0201B6EBCE
:1002C0000B0164EB00042B0D43EA0C335E1844EB86
:1002D0001C50DA465146E7FB0201C5F313044FEA0E
:1002E0000B3343EA14534FEA0432019C43EA0603FA
:1002F000A4F10C040294009CCDE900B400F0DFF8F6
:1003000003B0BDE8F08F00200146F9E7C10F80EA95
:10031000E0700844CA079623002100F093B80EB598
:10032000C10F80EAE0700844CA07002140F233435D
:100330008DE80E000A460B4600F0C1F803B000BD80
:1003400070B5C1F30A5201F000450024C1F3130156
:1003500040F2FF3341F480119A4201DA002070BD6F
:1003600040F233439A42A2F2334203DC5242FFF797
:10037000FBFE00E090402C43F1D0404270BD00F005
:10038000004230F000400AD0C10D01F56071C0F3A9
:10039000160042EA0151C20840071143704700208D
:1003A0000146704730B50B4601460020202201244B
:1003B00009E021FA02F59D4205D303FA02F5491B33
:1003C00004FA02F52844151EA2F10102F1DC30BD49
:1003D0002DE9F05F0546002092469B46884606467A
:1003E000814640241BE02846414647462246FFF707
:1003F000BBFE53465A46C01A914110D311461846C7
:10040000224600F003FA2D1A67EB01084F462246F8
:100410000120002100F0FAF917EB00094E41201EDF
:10042000A4F10104DFDC484631462A464346BDE8D4
:10043000F09F0029A8BF7047401C490008BF20F06A
:100440000100704710B4B0FA80FC00FA0CF050EADA
:10045000010404BF10BC704749B1CCF1200421FA5B
:1004600004F411FA0CF118BF012121430843A3EB56
:100470000C01CB1D4FEA00614FEA102042BF002063
:1004800010BC704700EBC35010440029A4BF10BC3F
:100490007047401C490008BF20F0010010BC7047A5
:1004A00010B5141E73F1000408DA401C41F100017C
:1004B00092185B411A4301D120F0010010BD2DE9D3
:1004C000F04D92469B4611B1B1FA81F202E0B0FACA
:1004D00080F22032904600F099F904460F4640EA37
:1004E0000A0041EA0B0153465A46084313D011460D
:1004F00053EA010019D0C8F140025046FFF734FE1C
:1005000005460E4650465946424600F07FF90843DC
:1005100005D0012004E020463946BDE8F08D0020DA
:10052000054346EAE0762C4337430A986305E40A1C
:10053000A0EB08000022FD0A44EA47540A3002D525
:1005400000200146E9E7010510196941DDE9084588
:1005500000196941BDE8F04DA2E72DE9FE4F804644
:1005600081EA0300C00F0C46009021F0004123F007
:100570000045B8EB0200A94105D24046214690460D
:100580001C460B46024623F00040104347D0270D7F
:10059000C7F30A00C3F30A510290401A01904028A1
:1005A0006BDAC3F3130040F4801B0098924620B12D
:1005B0000023D2EB030A63EB0B0B01985946C0F101
:1005C0004002504600F022F906460D465046594674
:1005D000019A00F02AF910EB08006141002487EA33
:1005E000115284EAE7731A4340D0009A62B3019A29
:1005F000012A4FEA075215DC001B61EB02014FF0A4
:10060000004202EA0752CDE90042001C41F5801188
:1006100032462B46FFF753FF03B0BDE8F08F40464C
:100620002146F9E7001B61EB0201001C41F5801334
:1006300000185B412018A2F5001747EB030140EAC0
:10064000D570B6196D4111E06D084FEA360645EADE
:10065000C0754FEA0752001B61EB0201001C41F517
:10066000801149084FEA30000019514132462B46AB
:1006700003B0BDE8F04FFFF713BF00980122400020
:100680000023D0EB020263EBE073009821464FEAAF
:10069000E074B8EB000061EB0401E9E783F000438C
:1006A0005BE781F0004158E72DE9F04D81EA030452
:1006B00004F0004B21F0004514464FF0000A23F0EF
:1006C000004150EA050220D054EA01021DD0C5F3D2
:1006D0000A570246C5F31303C1F31300C1F30A56C8
:1006E00040F4801543F48013A7EB0608101BD64690
:1006F00008F2FD3873EB050002D308F1010801E0B0
:1007000092185B41B8F1000F03DA00200146BDE802
:10071000F08D00204FF48011064684460EE0171B32
:1007200073EB050705D3121B63EB050306434CEA85
:10073000010C49084FEA300092185B4150EA01076A
:10074000EDD152EA030012D082EA040083EA0501E7
:10075000084305D0101BAB4106D20122002306E05E
:1007600000224FF0004302E06FF0010253101AEB39
:1007700006004CEB085110EB0A0041EB0B01BDE801
:10078000F04DFFF78DBEC1F30A52C1F3130140F2E1
:10079000FF3341F480119A4202DA0020014670478B
:1007A00040F233439A42A2F2334202DC5242FFF754
:1007B000DBBC00F02BB8000030B5041E71F1000462
:1007C00004DB4FF00044404264EB0101141E73F15E
:1007D000000405DB1C464FF00043524263EB040368
:1007E000994208BF904230BD064C074D06E0E068D4
:1007F00040F0010394E8070098471034AC42F6D368
:10080000FFF79AFC5823000878230008202A04DB0D
:10081000203A00FA02F1002070479140C2F1200313
:1008200020FA03F3194390407047202A06DBCB17C8
:10083000203A41FA02F043EAE07306E041FA02F39B
:10084000D040C2F120029140084319467047FEE7AC
:1008500070B5002400F05CF84FF40065124E04E01F
:10086000641CE4B2012001F0C7FC2946304600F0C8
:1008700027FA10B1C82CF3D30FE0C82C0DD20024F6
:1008800004E0641CE4B2012001F0B6FC29463046C5
:1008900000F016FA18B1F02C04D3012070BDF02C32
:1008A000EFD3FAE7002070BD0020014038B500F01A
:1008B000B7F800F099F8FFF7CBFFCC2000F0BEF8B6
:1008C000BE2000F0BBF800F07FF8044600F07CF892
:1008D0000025072806D9C043E143C0B2CCB28DF849
:1008E000005002E001218DF8001004EB002000B25E
:1008F000FFF715FD0022054BFFF796FCFFF720FDE3
:1009000000B2002800D1284638BD00000000E43FB6
:100910001FB54FF400600090002001906946024826
:1009200000F0D2F81FBD0000001001401FB54FF4C9
:100930000060009001200190032003906946024866
:1009400000F0C2F81FBD0000001001401FB54FF4B9
:1009500000600090012001900290032003906946FE
:10096000044800F0B1F800F03FF8FFF771FF04B061
:1009700010BD00000010014070B5FFF7D7FF114D0A
:100980004FF4006400222146284600F0A5F9022019
:1009900001F032FC01222146284600F09DF9FFF7C4
:1009A000B7FF0C2001F028FC2146284600F088F90A
:1009B00008B1012400E00024322001F01DFC204693
:1009C00070BD00000020014070B500255FF00104FB
:1009D000FFF7D2FFC001641C40EA5500E4B2C5B283
:1009E000082CF5D9284670BD70B5FFF79FFF0B4D59
:1009F0004FF4006400222146284600F06DF940F2D1
:100A0000EE2001F0F9FB01222146284600F064F9AE
:100A1000BDE870400F2001F0EFBB00000020014056
:100A200010B5FFF7E1FFFFF713FFCC2000F006F849
:100A3000BDE81040442000F001B800002DE9F0416D
:100A40000546FFF773FF0124144FE60215F0010F6E
:100A50004FEA55054FF00002314638460BD000F002
:100A60003BF9022001F0C8FB01223146384600F074
:100A700033F93C200AE000F02FF93C2001F0BCFBE8
:100A800001223146384600F027F9022001F0B4FB7C
:100A9000641CE4B2082CD9D9BDE8F08100200140E3
:100AA0007047704770B5044600F01CF90546601C9D
:100AB00002D004480078044400F014F9401BA0421E
:100AC000FAD370BD000000202DE9F84FDFF8C8917F
:100AD000002409F1040A0AF1040B23460F270BF145
:100AE000040ED1E00125A54006EA0502AA4276D10E
:100AF000DFF8A8C14E68A6EB0C0866452BD00DDCCC
:100B0000032E34D005DC36B3012E19D0022E2FD19E
:100B10001BE0112E16D0122E2AD119E0B8F5881F2D
:100B200019D006DCB8F5803F15D0B8F5801F1FD16D
:100B300011E0B8F5001F0ED0B8F5041F18D10AE077
:100B4000CB6815E0CB681B1D12E0CB6808330FE0C3
:100B5000CB680C330CE08B682BB1012B4FF00803F2
:100B600003D0456104E0042302E0056100E00023B6
:100B7000FF2A01D8064601E000F104064FEA840589
:100B800001D9A5F12005D6F8008007FA05FC28EA6E
:100B90000C0803FA05F548EA0508C6F800804D6818
:100BA000ED0070D53E4DAE6946F00106AE61AD690F
:100BB00024F0030605F0010500953A4D06EB050CFF
:100BC000DCF80850A607360F07FA06F825EA0805EC
:100BD000DFF8D480404503D14FF0000825E052E013
:100BE000DFF8C880404502D14FF001081DE0DFF872
:100BF000C080404502D14FF0020816E0DFF8B48013
:100C0000404502D14FF003080FE0DFF8AC804045CB
:100C100002D14FF0040808E0DFF8A080404502D17F
:100C20004FF0050801E04FF0060808FA06F848EA18
:100C30000508CCF808804D68D9F80060ED034D46F2
:100C400001D5164300E096432E604D68DAF8006047
:100C5000AD03554601D5164300E096432E604D681E
:100C6000DBF80060ED025D4601D5164300E09643D7
:100C70002E604D68DEF80060AD02754601D5164362
:100C800000E096432E60641C0A681646E2407FF43A
:100C900029AFBDE8F88F00000004014000001110EA
:100CA000001002400000014000080140000C01401B
:100CB000001001400014014000180140001C0140D8
:100CC0008068084000D001207047C2680A4201D005
:100CD00041617047016170470AB1016170470904C1
:100CE000FBE700000148806870470000000000201A
:100CF000024881680278114481607047000000203A
:100D0000074810B5016841F010010160032000F0B0
:100D100067F8002000F006F800F024F8002010BD6D
:100D20000020024070B50D4D04464FF47A712878CA
:100D3000B1FBF0F00A490968B1FBF0F000F0DEFA0F
:100D400048B9102C07D200222146501E00F028F886
:100D500000206C6070BD012070BD0000000000200C
:100D60000C0000200C4808B5816941F00101816147
:100D7000816901F001010091C16941F08051C161B7
:100D8000C06900F0805000900448416821F0E061A3
:100D900041F08061416008BD001002400000014048
:100DA000F0B40E4B1B680C46C3F30223C3F10705D6
:100DB000042D00D90425191D072901D2002300E0C4
:100DC000DB1E012606FA05F1491E214099409E408E
:100DD000761E16403143F0BC00F0A4BD0CED00E0DF
:100DE000064900F0070208684FF6FF03184040EA82
:100DF0000220034A10430860704700000CED00E039
:100E00000000FA052DE9F0470F46050061D0434E7A
:100E1000306800F00700B84209D2306820F00700BF
:100E200038433060306800F00700B84251D128687C
:100E30003B4C810712D5400703D5606840F4E06061
:100E400060602878000703D5606840F460506060F7
:100E50006068A96820F0F000084360602878C00747
:100E600028D06868012810D02168022810D089078E
:100E700000292EDA616821F0030101436160FFF768
:100E800031FF804641F288390DE021688903EFE7A0
:100E90008901EDE7FFF726FFA0EB0801494502D9DC
:100EA0000320BDE8F0876068696800F00C00B0EBD3
:100EB000810FEFD1306800F00700B8420BD93068DD
:100EC00020F0070038433060306800F00700B84277
:100ED00001D00120E5E72878400705D56068E9687A
:100EE00020F4E060084360602878000706D5606859
:100EF000296920F4605040EAC100606000F038F8D1
:100F00006168084AC1F30311515CC8400649086092
:100F100006480068FFF706FF0020C2E700200240F5
:100F200000100240402300080C00002004000020B4
:100F30000448054900684968044AC1F30221515C2C
:100F4000C84070470C0000200010024050230008E9
:100F50000448054900684968044AC1F3C221515C4C
:100F6000C84070470C0000200010024050230008C9
:100F700012A185B00FC98DE80F0014A0144A0068B3
:100F800004905168134801F00C03042B10D0082B77
:100F90000ED1C1F38343C9031DF803000AD551687C
:100FA00004AAC1F34041515C0A4A5043B0FBF1F03E
:100FB00005B0704708494843FAE7000002030405FA
:100FC000060708090A0B0C0D0E0F10100102000095
:100FD0000010024000127A0000093D002DE9F84F90
:100FE000040070D02078C04DC00749D06868C0F3B5
:100FF0008100012807D06868C0F38100022809D168
:101000006868C00306D52868800339D56068002861
:10101000E7D035E06068B0F5803F0BD010B1B0F597
:10102000A02F11D0286820F480302860286820F490
:10103000802002E0286840F480302860606890B129
:10104000FFF750FE06460AE0286840F4802028603A
:10105000F0E700BFFFF746FE801B642873D82868BE
:101060008003F7D50CE0FFF73DFE064605E000BF24
:10107000FFF738FE801B6428F0D828688003F7D477
:1010800020789A4E80074FF001094FF0000839D5BB
:10109000686810F00C0F07D06868C0F38100022860
:1010A00009D16868C00306D42868800714D5206970
:1010B000012808D110E02069B0B1C6F80090FFF710
:1010C00011FE074605E00AE1FFF70CFEC01B0228EF
:1010D000C4D828688007F7D52868616920F0F8002F
:1010E00040EAC10028600DE0C6F80080FFF7FAFD75
:1010F000074604E0FFF7F6FDC01B022823D8286846
:101100008007F7D4207800072CD57948A169D9B198
:10111000C0F80090FFF7E6FD074604E0FFF7E2FDA8
:10112000C01B02280FD8686A8007F7D571484FF4B2
:10113000FA510068B0FBF1F0009000BF0098411E2A
:101140000091FAD20EE080E0C0F80080FFF7CAFDFF
:10115000074604E0FFF7C6FDC01B022875D8686A81
:101160008007F7D42078400760D5E8690027C000E1
:1011700008D4E86940F08050E861E869012700F090
:10118000805000905C480168C90513D4016883460B
:1011900041F480710160FFF7A5FD824606E000BFC3
:1011A000FFF7A0FDA0EB0A0064284ED8DBF8000092
:1011B000C005F5D5E06801280AD008B1052813D08C
:1011C000286A20F001002862286A20F0040002E06A
:1011D000286A40F001002862E06841F2883B98B13B
:1011E000FFF780FD82460BE0286A40F00400286289
:1011F000EEE700BFFFF776FDA0EB0A0159455AD88C
:10120000286A8007F6D50CE0FFF76CFD824605E002
:10121000FFF768FDA0EB0A0159454CD8286A800702
:10122000F6D41FB1E86920F08050E861E06988B326
:101230006968C1F38101022944D00228C6F86080A0
:1012400004D0FFF74FFD044638E034E0FFF74AFDD5
:10125000074604E0FFF746FDC01B02282BD828688C
:101260008001F7D4206AB0F5803F05D16868A16895
:1012700020F4003008436860D4E908010843696835
:1012800021F4741108436860C6F86090FFF72AFDE6
:10129000044606E025E000BFFFF724FD001B0228FE
:1012A00009D828688001F7D51BE000BFFFF71AFDB9
:1012B000001B022802D90320BDE8F88F28688001AE
:1012C000F4D40EE00128F7D06868226A00F4803177
:1012D000914204D1616A00F47010884201D001206B
:1012E000EAE70020E8E70000001002400000424268
:1012F000800442420C0000200070004010B5401EE7
:10130000B0F1807F01D3012010BD4FF0E024606177
:101310000F21601700F006FB0020A061072020616C
:10132000002010BD70B590F83C20012A19D001248E
:1013300000F83C4F0222427050F83C3C5A689D68CD
:1013400022F070060A684968324325F08005294377
:101350005A6050F83C2C916044700021017008469E
:1013600070BD022070BD10B5040003D094F83D009C
:1013700010B107E0012010BD002084F83C00204699
:1013800000F00CF8022084F83D00211D206800F0D8
:10139000E3F9012084F83D00002010BD08B5006885
:1013A0000649884208D10648C16941F02001C1615F
:1013B000C06900F02000009008BD0000001400404B
:1013C00000100240022180F83D1001688A6802F096
:1013D0000702062A03D00A6842F001020A600121CE
:1013E00080F83D1000207047022180F83D10016810
:1013F0000A6A41F211131A4207D10A6A9B101A4273
:1014000003D10A6822F001020A60012180F83D1030
:101410000020704770B5040004D094F8390000250E
:1014200010B106E0012070BD84F83850204600F06D
:1014300023F8242084F839002068C16821F4005181
:10144000C160204600F0CEF92068016921F4904186
:1014500001612068416921F02A0141612068C16869
:1014600041F40051C160E563202084F8390084F81C
:101470003A00002070BD000030B585B00024009413
:1014800001940294039400681449884224D11448BA
:10149000816941F480418161816901F48041049155
:1014A000816941F00401816180690E4D00F0040002
:1014B00004904FF4007000900220019003200390EC
:1014C00069462846FFF700FB2815CDE90004694668
:1014D00028460294FFF7F8FA05B030BD0038014005
:1014E00000100240000801402DE9F843044690F83E
:1014F00039001F4616460D46202850D1A5B19EB191
:1015000094F8380001284AD0012084F838004FF0C0
:101510000008C4F83C80212084F83900FFF7E2FB82
:10152000A6848146E68426E00120BDE8F883E08CAD
:10153000401EE084A0684B46B0F5805F4FF000028B
:101540004FF080012046009703D000F0A7F9E8B9DA
:101550000DE000F0A3F9C8B928882168C0F308009D
:101560004860206908B16D1C05E0AD1C03E02168EE
:1015700015F8010B4860E08C0028D8D14B460022BA
:1015800040212046009700F089F908B10320CCE7FC
:10159000202084F8390084F838800020C5E7022034
:1015A000C3E7FEE72DE9F04186B0002000900190EE
:1015B000029003901D48816941F0100181618169A9
:1015C00001F010010491816941F004018161816998
:1015D00001F004010491816941F4807181618069A5
:1015E000134F00F480700122049011463846FFF733
:1015F00073FBDFF84080FE14002231464046FFF7BF
:101600006BFB012403250094694638460194CDE91B
:101610000245FFF759FACDE9006469464046CDE935
:101620000245FFF751FA06B0BDE8F0810010024014
:1016300000100140002001401CB500240E48009419
:101640000C49019401604721C0E901144FF6FF7174
:101650008461C160FFF787FE08B1FFF722FA0094AA
:10166000694605480194FFF75DFE002801D0FFF7A9
:1016700018FA1CBD00140040140000200C4810B5DE
:101680000A4901604FF4E1314160002181600C2280
:10169000C160C0E904128161C161FFF7BBFE00288F
:1016A00003D0BDE81040FFF7FCB910BD0038014081
:1016B00054000020FEE7704770477047FFF718BBE3
:1016C00030B58FB028216846FEF765FD14210AA8C1
:1016D000FEF761FD01210804CDE900100024029409
:1016E00002250491CDE907504FF4E01009906846B7
:1016F000FFF774FC0F20CDE90A056802CDE90C4024
:1017000002210AA80E94FFF77DFB0FB030BD000048
:101710000D48016841F00101016041680B4A114028
:10172000416001680A4A11400160016821F480218A
:101730000160416821F4FE0141604FF41F018160A6
:101740000449C00308607047001002400000FFF821
:10175000FFFFF6FE08ED00E0F0B502681C4B1D4DE2
:101760001D4E1E4F1E4C4FF0804C984209D0A04297
:1017700007D0604505D0A84203D0B04201D0B8429E
:1017800004D122F0700E4A6842EA0E02984209D053
:10179000A04207D0604505D0A84203D0B04201D096
:1017A000B84203D122F44075CA682A434D6922F039
:1017B00080022A4302608A68C2620A688262984292
:1017C00001D0A04201D10969016301214161F0BD4D
:1017D000002C01400004004000080040000C0040C4
:1017E000003401402DE9F041044600680169E268D7
:1017F00021F44051114301612169A06808436169E6
:1018000008432168CA6841F20C639A430243CA60E4
:1018100020684169A26921F44071114341611E4968
:10182000206864253226884202D1FFF791FB01E04F
:10183000FFF77EFB00EBC00101EB001160686FF069
:1018400018078000B1FBF0F2B2FBF5F2B1FBF0F348
:101850007A4303EB8202B1FBF0F306EB0212B2FB18
:10186000F5F2B3FBF5F302F0F00202EB0312B1FB69
:10187000F0F3B1FBF0F0B0FBF5F0784303EB800040
:1018800006EB0010B0FBF5F0216800F00F001044EB
:101890008860BDE8F0810000003801402DE9F0418A
:1018A000984617460E460446069D1DE0681C1BD050
:1018B0002DB1FFF717FAA0EB0800A84214D9206851
:1018C000C16821F4D071C1602068416921F0010133
:1018D0004161202084F8390084F83A00002084F81F
:1018E00038000320BDE8F0812068006836EA000077
:1018F00004D00020B842D9D00020F3E70120F9E756
:10190000FEE700000FB4054B10B503A9044A029886
:1019100000F0DAF810BC5DF814FB00002922000882
:10192000100000200907090E002804DB00F1E02068
:1019300080F80014704700F00F0000F1E02080F8FC
:10194000141D704702E008C8121F08C1002AFAD10E
:1019500070477047002001E001C1121F002AFBD12F
:10196000704700002DE9FF5FDDE90220010DDDF881
:1019700038B0024318D044F61050A1F2FF31414371
:101980000D140F98012820D0A5EB0B00401C5FEA36
:10199000000A4FF00004474EDFF81C91A046504665
:1019A00016D5CAF1000728E00F98012443A20128A8
:1019B00008D0002100980F9BC0E90021C0E9024334
:1019C000BDE8FF9F6FEA0B01F4E7CBF10000DEE713
:1019D000074612E0F80707D02246334640464946FC
:1019E000FEF722FC804689462246334610461946B9
:1019F000FEF71AFC04460E467F10002FEAD1DDE9FF
:101A00000201BAF1000F42464B4602DAFEF70CFC27
:101A100001E0FEF749FE04460E460022284BFEF781
:101A2000CBFE03D84FF0FF30014607E00022254BE4
:101A300020463146FEF791FDFEF7A5FE102409E091
:101A4000002C0ADB0A220023FEF7C2FC019B303285
:101A50001A55641E50EA0102F2D1641C019AC4F1C5
:101A6000110314440F9A012A03D0012208430DD117
:101A70000AE0084304D000204FF0110B0F9080E7DC
:101A8000A3EB0B056D1E0DE05B4504DD4FF000027E
:101A900005F1010504E003DA4FF00002A5F10105AC
:101AA000002AECD000980F99C0E90231C0E9004546
:101AB00086E70000000024400000F03F30000000F6
:101AC0000000F0430000E03F2DE9FF4F95B09B463A
:101AD0008946064600250FE2252877D100242746AF
:101AE000F84A0121059400E0044316F8013F203B29
:101AF00001FA03F01042F7D130782A2811D06FF0A4
:101B00002F033078A0F13002092A16D8059A44F044
:101B1000020402EB820203EB42021044761C0590A1
:101B2000EFE759F8042B0592002A03DA504244F4F7
:101B30000054059044F00204761C30782E2816D10B
:101B400016F8010F44F004042A280DD06FF02F027C
:101B50003078A0F13003092B09D807EB870302EB9B
:101B60004303C718761CF3E759F8047B761C3078DA
:101B70006C280FD006DC4C2817D068280DD06A28B6
:101B800014D104E0742810D07A280FD10DE044F469
:101B900000140AE044F4801401E044F44014727824
:101BA000824202D104F58014761C761C30786628B7
:101BB0000BD013DC582877D009DC002875D04528D5
:101BC000F6D04628F4D047281AD19DE118E06328C2
:101BD00035D0642879D0652812D195E1702873D06A
:101BE00008DC6728F1D069286FD06E280DD06F28E7
:101BF00006D1B5E073282CD0752875D0782874D01C
:101C00005A46179990476D1C75E1C4F3025002289B
:101C100009D003280DD0D9F8001004280DD00D608C
:101C200009F1040967E1D9F80010EA17C1E9005287
:101C3000F6E7D9F800100D80F2E70D70F0E719F81B
:101C4000041B8DF8001000208DF80100EA460120E9
:101C500003E059F804AB4FF0FF3061074FF000018B
:101C600002D40DE008F101018846B9420FDA80453F
:101C7000F8DB1AF808100029F4D108E008F1010196
:101C800088468142FADB1AF808100029F6D1059837
:101C90005B46A0EB080721463846179A00F094FAF5
:101CA000284400EB080507E04DE029E10DE01AF8B3
:101CB000010B5A4617999047B8F10108F7D25B46D5
:101CC00021463846179A13E142E00A220092C4F3F3
:101CD00002524FF0000A022A08D059F804CB032A16
:101CE0004FEAEC710AD00DE029E02AE009F1070182
:101CF00021F00702F2E802C1914609E00FFA8CFCDC
:101D00004FEAEC71042A03D14FFA8CFC4FEAEC71D4
:101D1000002907DA0A460021DCF1000C61EB020120
:101D20002D2202E0220504D52B228DF80420012269
:101D300003E0E20701D02022F7E7904659E00A21AC
:101D400002E010220DE010214FF0000A00910BE09C
:101D500010224FF0000A44F004040827009203E028
:101D600008224FF0000A0092C4F30252022A05D062
:101D700059F804CB0021032A08D009E009F1070132
:101D800021F00702F2E802C1914605E01FFA8CFC3F
:101D9000042A01D10CF0FF0C4FF00008220728D5CF
:101DA000702806D0009B83F0100353EA0A0305D085
:101DB0000EE040228DF80420012208E05CEA0102D6
:101DC00006D030228DF804208DF8050002229046BE
:101DD000009B83F0080353EA0A030AD15CEA01027C
:101DE00001D1620705D530228DF804204FF001089B
:101DF0007F1E582804D034A003900EA802900DE056
:101E000036A0F9E753466046009AFEF7E1FA8446A9
:101E10000398825C0298401E029002705CEA010006
:101E2000F0D1029806A9081A00F1200A600702D52D
:101E300024F4803400E00127574502DDA7EB0A00B7
:101E400000E0002000EB0A01009005984144401A90
:101E50000590E00306D45B462146179A059800F0EA
:101E6000B3F90544002706E001A85A46C05D17995A
:101E700090476D1C7F1C4745F6DBE0030CD55B46A5
:101E80002146179A059800F09FF9054404E0302098
:101E90005A46179990476D1C0099481E00900029DA
:101EA000F5DC08E0029802995A460078491C029134
:101EB000179990476D1CBAF10001AAF1010AF1DCF3
:101EC00065E10000092801003031323334353637FE
:101ED0003839616263646566000000003031323376
:101EE0003435363738394142434445460000000016
:101EF00000F058F90544761C307800287FF4ECADEA
:101F000019B02846BDE8F08F620700D4062709F112
:101F1000070222F0070CFCE80223E14603F0004828
:101F20005FEA080C02D00FF2702C0DE05FEA045C4F
:101F300002D50FF2682C07E05FEAC47C02D00FF2F2
:101F4000602C01E0AFF2700C4FF0FF3823F000433B
:101F5000CDF850C065280CD006DC452809D04628AD
:101F60001DD047283DD13DE0662818D067287ED196
:101F700038E00021112F01DB112000E0781CCDE9B1
:101F8000000106A90EA8FFF7EDFCDDE90F010E9A8E
:101F900003910021009207F1010A04914DE04FF0F6
:101FA00000400097CDE9011006A90EA8FFF7DAFC62
:101FB000DDE90F0203920E9B11990022DDF80CA0BF
:101FC0000093049211B9791C00EB010AB7EB0A00E7
:101FD00004D4C0F1FF3007F1010A0490AAEB070016
:101FE000019044E0012F00DA01270021112F01DDCB
:101FF000112000E03846CDE9000106A90EA8FFF740
:10200000B1FCDDE90F010E9A0391002104910092C9
:10201000BA4621070CD40399514500DA8A46BAF131
:10202000010F05DD009AAAF10101515C302908D0A9
:10203000B84202DA10F1040F06DA0121CDE90110ED
:1020400015E0AAF10101E9E7002805DC0499014443
:102050000491AAEB000102E0411C514500DD8A46D3
:102060000499401A401C01904FF000400290200754
:1020700004D40198504501DBCDF8048000208DF890
:102080004F0002980DF14F07B0F1004F25D02B20E3
:102090000E9002984FF0020800280CDA404202909D
:1020A0002D200E9007E00A210298FEF77BF93031CF
:1020B000029007F8011DB8F10001A8F10108F2DC57
:1020C00002980028EFD1791E0E980870307800F041
:1020D000200040F0450007F8020D12A8C01B00F1D7
:1020E00007081498007800B1012000EB0A0101985C
:1020F00001EBE07105984144401A401E0590E00351
:1021000006D45B462146179A059800F05DF8054411
:102110001498007818B15A46179990476D1CE0033F
:1021200024D55B462146179A059800F04DF80544E2
:102130001CE00498002807DBDDE90301884203DD89
:102140000098405C179901E0179930205A46904753
:10215000049805F10105401C04900198401E01906F
:1021600004D12E205A46179990476D1CBAF10001F0
:10217000AAF1010ADDDC05E017F8010B5A461799B0
:1021800090476D1CB8F10001A8F10108F4DC5B4632
:102190002146179A0598ABE62D0000002B000000A1
:1021A000200000002DE9F041044600251E46174698
:1021B000880404D405E039462020B0476D1C641E15
:1021C000F9D52846BDE8F0812DE9F0410446002507
:1021D0001E469046C80301D5302700E0202788041A
:1021E00004D505E041463846B0476D1C641EF9D55C
:1021F0002846BDE8F081000070B54FF6FA75094E2B
:10220000281A84B2306844623046FFF7DBF8306841
:1022100001E0416A8CB2AC42FBD3BDE8704001489A
:10222000FFF7E2B81400002013B54FF6FF73012248
:1022300069460248FFF758F900981CBD5400002079
:10224000FEF75EFDFFF73CFAFFF7ACF9FFF7F4F994
:10225000FFF714FA4FF4FA7405E018A0FFF752FBE9
:102260002046FEF71FFCFEF771FB0028F5D11AA0EF
:10227000FFF748FB204E214C214D00BFFEF716FB17
:10228000FEF744F8B042214607D3FDF78FFFFEF773
:1022900076F802460B461BA006E0FDF787FFFEF727
:1022A0006EF802460B461FA0FFF72CFB01212846C3
:1022B000FEF70BFDC820FEF7F5FBDFE7445331388E
:1022C00042323020636865636B6564206661696CC7
:1022D00065642121210D0A004453313842323020F7
:1022E000636865636B6564207375636365737321ED
:1022F00021210D0A00000000000080800000204124
:102300000010014074656D706572617475726520AE
:102310003D202D252E3266206465677265650D0AA5
:102320000000000074656D706572617475726520DF
:102330003D20252E3266206465677265650D0A00B2
:102340000000000000000000010203040607080965
:1023500000000000010203047823000800000020B0
:1023600014000000441900088C2300081400002009
:10237000840400005419000801000000100000004F
:0C238000000000000024F4000000000039
:0400000508000131BD
:00000001FF
