:020000040800F2
:10000000C0050020490100081F1D0008391C000818
:100010001D1D000825070008E11F00080000000062
:10002000000000000000000000000000231D000888
:100030002707000800000000211D0008251D0008FA
:100040006301000863010008630100086301000800
:1000500063010008630100086301000863010008F0
:1000600063010008630100086301000863010008E0
:1000700063010008630100086301000863010008D0
:1000800063010008630100086301000863010008C0
:1000900063010008630100086301000863010008B0
:1000A00063010008630100086301000863010008A0
:1000B0006301000863010008630100086301000890
:1000C0006301000863010008630100086301000880
:1000D0006301000863010008D51F000863010008E0
:1000E0006301000863010008630100086301000860
:1000F0006301000863010008630100086301000850
:10010000630100086301000863010008630100083F
:10011000630100086301000863010008630100082F
:10012000630100086301000863010008630100081F
:10013000DFF810D000F066FA004800479129000867
:10014000AFF30080C00500200648804706480047FE
:10015000FEE7FEE7FEE7FEE7FEE7FEE7FEE7FEE777
:10016000FEE7FEE7871D000831010008202A04DBB6
:10017000203A21FA02F00021704721FA02F3D04020
:10018000C2F12002914008431946704740EA01033A
:100190009B0703D009E008C9121F08C0042AFAD23D
:1001A00003E011F8013B00F8013B521EF9D2704701
:1001B000D2B201E000F8012B491EFBD270470022A9
:1001C000F6E710B513460A4604461946FFF7F0FF56
:1001D000204610BD30B505462A460B4612F8010BE5
:1001E00013F8014B08B1A042F8D01CB1002802D08E
:1001F0006D1CF1E7284630BD421C10F8011B002998
:10020000FBD1801A704730B50B46014600202022F2
:10021000012409E021FA02F59D4205D303FA02F513
:10022000491B04FA02F52844151EA2F10102F1DC73
:1002300030BD2DE9F05F0546002092469B4688467A
:100240000646814640241BE0284641464746224652
:10025000FFF78CFF53465A46C01A914110D31146FE
:100260001846224600F0E0F92D1A67EB01084F46C8
:1002700022460120002100F0D7F917EB00094E417A
:10028000201EA4F10104DFDC484631462A464346DD
:10029000BDE8F09F2DE9FE4F804681EA0300C00FC4
:1002A0000C46009021F0004123F00045B8EB02001D
:1002B000A94105D24046214690461C460B460246BF
:1002C00023F00040104347D0270DC7F30A00C3F3C3
:1002D0000A510290401A019040286BDAC3F31300D0
:1002E00040F4801B0098924620B10023D2EB030A11
:1002F00063EB0B0B01985946C0F14002504600F0E9
:1003000093F906460D4650465946019A00F09BF96E
:1003100010EB08006141002487EA115284EAE77378
:100320001A4340D0009A62B3019A012A4FEA075259
:1003300015DC001B61EB02014FF0004202EA07529C
:10034000CDE90042001C41F5801132462B4600F0F9
:100350009BF903B0BDE8F08F40462146F9E7001B4A
:1003600061EB0201001C41F5801300185B4120186D
:10037000A2F5001747EB030140EAD570B6196D41AD
:1003800011E06D084FEA360645EAC0754FEA07529C
:10039000001B61EB0201001C41F5801149084FEA86
:1003A00030000019514132462B4603B0BDE8F04FF2
:1003B00000F05BB90098012240000023D0EB02025C
:1003C00063EBE073009821464FEAE074B8EB00005D
:1003D00061EB0401E9E783F000435BE781F0004152
:1003E00058E72DE9FE4F81EA030404F0004421F0B0
:1003F000004100944FF0000B23F0004350EA010449
:100400005ED052EA03045BD0C3F30A54C1F30A5529
:100410002C44A4F2F3340194A0FB0254C1F3130161
:1004200041F48011C3F3130343F4801301FB02442E
:1004300000FB034E840A970A44EA815447EA835733
:10044000A4FB076802958D0A05FB07854FEA932CEC
:1004500004FB0C542705029D4FEA065847EA16375D
:10046000B5EB08056EEB070C870E920E47EA811775
:1004700042EA8312A7FB0201B6EB0B0164EB000416
:100480002B0D43EA0C335E1844EB1C50DA46514600
:10049000E7FB0201C5F313044FEA0B3343EA14539D
:1004A0004FEA0432019C43EA0603A4F10C040294CF
:1004B000009CCDE900B400F0E7F803B0BDE8F08F90
:1004C00000200146F9E72DE9F04D81EA030404F02C
:1004D000004B21F0004514464FF0000A23F0004184
:1004E00050EA050220D054EA01021DD0C5F30A5794
:1004F0000246C5F31303C1F31300C1F30A5640F4D7
:10050000801543F48013A7EB0608101BD64608F2AB
:10051000FD3873EB050002D308F1010801E09218E1
:100520005B41B8F1000F03DA00200146BDE8F08D11
:1005300000204FF48011064684460EE0171B73EB33
:10054000050705D3121B63EB050306434CEA010CB8
:1005500049084FEA300092185B4150EA0107EDD19B
:1005600052EA030012D082EA040083EA050108433C
:1005700005D0101BAB4106D20122002306E0002269
:100580004FF0004302E06FF0010253101AEB060037
:100590004CEB085110EB0A0041EB0B01BDE8F04DAC
:1005A00000F063B8C1F30A52C1F3130140F2FF3304
:1005B00041F480119A4202DA00200146704740F26D
:1005C00033439A42A2F2334202DC5242FFF7CEBDDD
:1005D00000F02AB830B5041E71F1000404DB4FF0BE
:1005E0000044404264EB0101141E73F1000405DB7A
:1005F0001C464FF00043524263EB0403994208BF8C
:10060000904230BD064C074D06E0E06840F0010323
:1006100094E8070098471034AC42F6D3FFF78CFDFE
:10062000402C0008602C0008202A04DB203A00FA45
:1006300002F1002070479140C2F1200320FA03F339
:10064000194390407047202A06DBCB17203A41FA25
:1006500002F043EAE07306E041FA02F3D040C2F14F
:100660002002914008431946704710B5141E73F1DB
:10067000000408DA401C41F1000192185B411A4362
:1006800001D120F0010010BD2DE9F04D92469B46AE
:1006900011B1B1FA81F202E0B0FA80F22032904654
:1006A000FFF7C2FF04460F4640EA0A0041EA0B0189
:1006B00053465A46084313D0114653EA010019D055
:1006C000C8F140025046FFF751FD05460E46504620
:1006D00059464246FFF7A8FF084305D0012004E031
:1006E00020463946BDE8F08D0020054346EAE07615
:1006F0002C4337430A986305E40AA0EB0800002264
:10070000FD0A44EA47540A3002D500200146E9E7D1
:10071000010510196941DDE9084500196941BDE885
:10072000F04DA2E7FEE7704710B54FF48071034823
:10073000FFF745FD02490020488010BDBC000020A5
:10074000100000202DE9F041ADF5207DFFF7ECFF12
:100750002622EF498EA8FFF719FDED4CE08CADF88D
:100760005E02A06A9890A08DADF86402E08DADF8AD
:100770006602206B9A9004F13401092288469BA8F6
:10078000FFF704FD94F83D008DF8750294F83E00E3
:100790008DF87602206C9E90DEA00D90342292A9F6
:1007A0006846FFF7F3FC8EAD95E80F0001F019FCE9
:1007B0004FF4FA7502E0284600F0BCFBD7A1D8A0A0
:1007C00000F038FA0028F6D12622D1498EA8FFF78A
:1007D000DDFCE08CADF85E02A06A9890A08DADF8CB
:1007E0006402E08DADF86602206B9A9009224146C2
:1007F0009BA8FFF7CBFC94F83D008DF8750294F8A8
:100800003E008DF87602206C9E90C7A00D90342299
:1008100092A96846FFF7BAFC8EAE96E80F0001F089
:10082000E0FBC0A1C3A000F005FA284600F082FB5F
:100830002622B7498EA8FFF7A9FCE08CADF85E022E
:10084000A06A9890A08DADF86402E08DADF86602C4
:10085000206B9A90092241469BA8FFF797FC94F8D9
:100860003D008DF8750294F83E008DF87602206CFC
:100870009E90B3A00D90342292A96846FFF786FCA3
:1008800096E80F0001F0ADFB02E0284600F052FBB5
:10089000A2A1AEA000F0CEF90028F6D126229C49F4
:1008A0008EA8FFF773FCE08CADF85E02A06A98900A
:1008B000A08DADF86402E08DADF86602206B9A90D1
:1008C000092241469BA8FFF761FC94F83D008DF892
:1008D000750294F83E008DF87602206C9E909FA0E1
:1008E0000D90342292A96846FFF750FC8EAE96E830
:1008F0000F0001F076FB02E0284600F01BFB87A109
:100900009AA000F097F90028F6D1262280498EA8F7
:10091000FFF73CFCE08CADF85E02A06A9890A08DD9
:10092000ADF86402E08DADF86602206B9A90092262
:1009300041469BA8FFF72AFC94F83D008DF875020C
:1009400094F83E008DF87602206C9E908BA00D905E
:10095000342292A96846FFF719FC8EAE96E80F0084
:1009600001F03FFB02E0284600F0E4FA6BA186A00C
:1009700000F060F90028F6D1262265498EA8FFF71D
:1009800005FCE08CADF85E02A06A9890A08DADF8F1
:100990006402E08DADF86602206B9A900922414610
:1009A0009BA8FFF7F3FB94F83D008DF8750294F8CF
:1009B0003E008DF87602206C9E907AA00D90342235
:1009C00092A96846FFF7E2FB8EAE96E80F0001F0B1
:1009D00008FB784E78A130690090D6E902230EA872
:1009E00001F032FB02E0284600F0A4FA4BA10EA869
:1009F00000F020F90028F6D14FF4007739460EA810
:100A0000FFF7DDFB262242498EA8FFF7BFFBE08CF3
:100A1000ADF85E02A06A9890A08DADF86402E08DFA
:100A2000ADF86602206B9A90092241469BA8FFF719
:100A3000ADFB94F83D008DF8750294F83E008DF8FA
:100A40007602206C9E9067A00D90342292A9684691
:100A5000FFF79CFB0DF50E7C9CE80F0001F0C1FA3E
:100A600064A10EA8726901F0EFFA02E0284600F0D6
:100A700061FA2AA10EA800F0DDF80028F6D1394667
:100A80000EA8FFF79CFB262221498EA8FFF77EFBCC
:100A9000E08CADF85E02A06A9890A08DADF864027B
:100AA000E08DADF86602206B9A90092241469BA822
:100AB000FFF76CFB94F83D008DF8750294F83E004A
:100AC0008DF87602206C9E9051A00D90342292A950
:100AD0006846FFF75BFB0DF50E7C9CE80F0001F00C
:100AE00080FA4EA10EA8F26901F0AEFA02E02846A3
:100AF00000F020FA09A10EA800F09CF80028F6D119
:100B000039460EA8FFF75BFB0DF5207DBDE8F081AF
:100B100034000020302E2041540D0A004F4B0000BD
:100B200041540D0A00000000312E205253540D0A8A
:100B30000000000041542B5253540D0A00000000E5
:100B4000322E2043574D4F44450D0A0041542B434C
:100B5000574D4F44453D310D0A000000332E2041D2
:100B6000542B4357444843500D0A000041542B4333
:100B700057444843503D312C310D0A00342E204358
:100B8000574A41500D0A000041542B43574A4150E7
:100B90003D225454222C22613132333435366122C5
:100BA0000D0A0000352E4D515454555345524346BD
:100BB000470D0A001000002041542B4D515454554C
:100BC0005345524346473D302C312C222573222C6D
:100BD000222573222C222573222C302C302C222209
:100BE0000D0A0000362E4D515454434F4E4E0D0AFF
:100BF0000000000041542B4D515454434F4E4E3D84
:100C0000302C222573222C313838332C310D0A0038
:100C1000372E4D5154545355420D0A0041542B4D1B
:100C20005154545355423D302C222573222C310D02
:100C30000A0000002DE9F041A0B088460646C8250C
:100C4000FFF7DAFA87B2262222490FA8FFF79EFAA9
:100C5000204CE08CADF86200A06A1990A08DADF830
:100C60006800E08DADF86A00206B1B90092204F14A
:100C700034011CA8FFF78AFA94F83D008DF879003A
:100C800094F83E008DF87A00206C1F90342213A94E
:100C90006846CDE90D67FFF779FA0FAC94E80F00CD
:100CA00001F0BBF911E000BF00F018F850B941465F
:100CB0000948FFF78FFA28B1FFF736FD002020B072
:100CC000BDE8F0810A2000F035F96D1EEDB2EBD2DF
:100CD0000120F4E778000020BC000020064841888D
:100CE00031B18288914205D1002141800846704788
:100CF000012070478180FBE71000002072B6FEE7FC
:100D000030B5DFB00546262225490EA8FFF73EFA8A
:100D1000234CE08CADF85E00A06A1890A08DADF871
:100D20006400E08DADF86600206B1A90092204F192
:100D300034011BA8FFF72AFA94F83D008DF87500DE
:100D400094F83E008DF87600206C1E9015A00D9052
:100D5000342212A96846FFF719FA0EAC94E80F0086
:100D600001F03FF9124800951249036A82691FA8F1
:100D700001F06AF94FF4FA7402E0204600F0DAF864
:100D80000DA11FA8FFF756FF0028F6D14FF4807180
:100D90001FA8FFF714FA642000F0CCF85FB030BD54
:100DA000340000205075626C6973680D0A00000001
:100DB00010000020E42A00084F4B000010B590F806
:100DC00021100022022905D00421816380F820200F
:100DD000012010BD01680B6823F00E030B60016851
:100DE0000B6823F001030B6090F84030C46B0121C5
:100DF00001FA03F3636080F8211080F82020104688
:100E000010BD00002DE9F05F90F8211000240229A8
:100E100003D004218163012485E001680A6822F07F
:100E20000E020A6001680A6822F001020A603F4E61
:100E30003E4FB215DFF8F4C0DFF8F090DFF8ECA019
:100E4000DFF8E8B0DFF8E4E00168783F130115024D
:100E5000ACF1640CA9F15009AAF13C0AABF1280BE2
:100E6000AEF1140E4FF48018B14227D9B9420ED01A
:100E7000614512D049451DD0514518D0594518D06B
:100E8000714501D1424615E0294EB14201D10122FE
:100E900010E0274E1436B14201D110220AE0244E50
:100EA0002836B14206D0224A3C32914201D11A463C
:100EB00000E02A461E49091F0A602BE0B94213D000
:100EC000614517D0494522D051451DD059451DD007
:100ED000714501D142461AE0B14202D14FF0807211
:100EE00015E0134EB14201D1012210E0104E14362C
:100EF000B14201D110220AE00D4E2836B14206D08F
:100F00000B4A3C32914201D11A4600E02A46074979
:100F100080394A60012180F82110002180F82010DA
:100F2000416B01B188472046BDE8F09F8000024038
:100F30000804024070B5044600F010F90546601C34
:100F400002D004480078044400F008F9401BA04295
:100F5000FAD370BD000000202DE9F84FDFF8C891EA
:100F6000002409F1040A0AF1040B23460F270BF1B0
:100F7000040ED1E00125A54006EA0502AA4276D179
:100F8000DFF8A8C14E68A6EB0C0866452BD00DDC37
:100F9000032E34D005DC36B3012E19D0022E2FD10A
:100FA0001BE0112E16D0122E2AD119E0B8F5881F99
:100FB00019D006DCB8F5803F15D0B8F5801F1FD1D9
:100FC00011E0B8F5001F0ED0B8F5041F18D10AE0E3
:100FD000CB6815E0CB681B1D12E0CB6808330FE02F
:100FE000CB680C330CE08B682BB1012B4FF008035E
:100FF00003D0456104E0042302E0056100E0002322
:10100000FF2A01D8064601E000F104064FEA8405F4
:1010100001D9A5F12005D6F8008007FA05FC28EAD9
:101020000C0803FA05F548EA0508C6F800804D6883
:10103000ED0070D53E4DAE6946F00106AE61AD697A
:1010400024F0030605F0010500953A4D06EB050C6A
:10105000DCF80850A607360F07FA06F825EA080557
:10106000DFF8D480404503D14FF0000825E052E07E
:10107000DFF8C880404502D14FF001081DE0DFF8DD
:10108000C080404502D14FF0020816E0DFF8B4807E
:10109000404502D14FF003080FE0DFF8AC80404537
:1010A00002D14FF0040808E0DFF8A080404502D1EB
:1010B0004FF0050801E04FF0060808FA06F848EA84
:1010C0000508CCF808804D68D9F80060ED034D465E
:1010D00001D5164300E096432E604D68DAF80060B3
:1010E000AD03554601D5164300E096432E604D688A
:1010F000DBF80060ED025D4601D5164300E0964343
:101100002E604D68DEF80060AD02754601D51643CD
:1011100000E096432E60641C0A681646E2407FF4A5
:1011200029AFBDE8F88F0000000401400000111055
:10113000001002400000014000080140000C014086
:10114000001001400014014000180140001C014043
:101150000AB1016170470904FBE70000014880689B
:1011600070470000000000200248816802781144A6
:101170008160704700000020074810B5016841F009
:1011800010010160032000F075F8002000F006F85F
:1011900000F024F8002010BD0020024070B50D4D75
:1011A00004464FF47A712878B1FBF0F00A490968D7
:1011B000B1FBF0F000F0ECFA48B9102C07D2002295
:1011C0002146501E00F036F800206C6070BD0120F2
:1011D00070BD0000000000200C0000200C4808B585
:1011E000816941F001018161816901F00101009192
:1011F000C16941F08051C161C06900F08050009028
:101200000448416821F0E06141F00071416008BD8F
:101210000010024000000140002809DB00F01F021E
:10122000012191404009800000F1E020C0F8001148
:1012300070470000F0B40E4B1B680C46C3F302234A
:10124000C3F10705042D00D90425191D072901D272
:10125000002300E0DB1E012606FA05F1491E2140AD
:1012600099409E40761E16403143F0BC00F01ABFF4
:101270000CED00E0064900F0070208684FF6FF0396
:10128000184040EA0220034A1043086070470000FB
:101290000CED00E00000FA052DE9F0470F460500CF
:1012A00061D0434E306800F00700B84209D2306880
:1012B00020F0070038433060306800F00700B84283
:1012C00051D128683B4C810712D5400703D560688F
:1012D00040F4E06060602878000703D5606840F45F
:1012E000605060606068A96820F0F00008436060AA
:1012F0002878C00728D06868012810D02168022803
:1013000010D0890700292EDA616821F0030101431A
:101310006160FFF723FF804641F288390DE02168C4
:101320008903EFE78901EDE7FFF718FFA0EB08015C
:10133000494502D90320BDE8F0876068696800F07C
:101340000C00B0EB810FEFD1306800F00700B8421D
:101350000BD9306820F0070038433060306800F067
:101360000700B84201D00120E5E72878400705D5FD
:101370006068E96820F4E06008436060287800074E
:1013800006D56068296920F4605040EAC1006060B9
:1013900000F038F86168084AC1F30311515CC84095
:1013A0000649086006480068FFF7F8FE0020C2E71B
:1013B0000020024000100240CC2A00080C0000204F
:1013C000040000200448054900684968044AC1F344
:1013D0000221515CC84070470C0000200010024000
:1013E000DC2A00080448054900684968044AC1F33A
:1013F000C221515CC84070470C0000200010024020
:10140000DC2A000812A185B00FC98DE80F0014A0D6
:10141000144A006804905168134801F00C03042B2F
:1014200010D0082B0ED1C1F38343C9031DF803006C
:101430000AD5516804AAC1F34041515C0A4A50439D
:10144000B0FBF1F005B0704708494843FAE70000E7
:1014500002030405060708090A0B0C0D0E0F1010F5
:10146000010200000010024000127A0000093D0055
:101470002DE9F84F040070D02078C04DC00749D046
:101480006868C0F38100012807D06868C0F3810054
:10149000022809D16868C00306D52868800339D5B9
:1014A00060680028E7D035E06068B0F5803F0BD079
:1014B00010B1B0F5A02F11D0286820F4803028603A
:1014C000286820F4802002E0286840F480302860FA
:1014D000606890B1FFF742FE06460AE0286840F4D3
:1014E00080202860F0E700BFFFF738FE801B6428EB
:1014F00073D828688003F7D50CE0FFF72FFE064667
:1015000005E000BFFFF72AFE801B6428F0D828689A
:101510008003F7D420789A4E80074FF001094FF0EE
:10152000000839D5686810F00C0F07D06868C0F360
:101530008100022809D16868C00306D428688007A2
:1015400014D52069012808D110E02069B0B1C6F88F
:101550000090FFF703FE074605E00AE1FFF7FEFDF6
:10156000C01B0228C4D828688007F7D5286861699D
:1015700020F0F80040EAC10028600DE0C6F80080C5
:10158000FFF7ECFD074604E0FFF7E8FDC01B02286B
:1015900023D828688007F7D4207800072CD579480D
:1015A000A169D9B1C0F80090FFF7D8FD074604E063
:1015B000FFF7D4FDC01B02280FD8686A8007F7D553
:1015C00071484FF4FA510068B0FBF1F0009000BF91
:1015D0000098411E0091FAD20EE080E0C0F8008031
:1015E000FFF7BCFD074604E0FFF7B8FDC01B02286B
:1015F00075D8686A8007F7D42078400760D5E86915
:101600000027C00008D4E86940F08050E861E8692C
:10161000012700F0805000905C480168C90513D490
:101620000168834641F480710160FFF797FD8246AF
:1016300006E000BFFFF792FDA0EB0A0064284ED839
:10164000DBF80000C005F5D5E06801280AD008B134
:10165000052813D0286A20F001002862286A20F0AB
:10166000040002E0286A40F001002862E06841F2CC
:10167000883B98B1FFF772FD82460BE0286A40F084
:1016800004002862EEE700BFFFF768FDA0EB0A0147
:1016900059455AD8286A8007F6D50CE0FFF75EFD59
:1016A000824605E0FFF75AFDA0EB0A0159454CD8E8
:1016B000286A8007F6D41FB1E86920F08050E861FD
:1016C000E06988B36968C1F38101022944D0022826
:1016D000C6F8608004D0FFF741FD044638E034E0EE
:1016E000FFF73CFD074604E0FFF738FDC01B02286A
:1016F0002BD828688001F7D4206AB0F5803F05D147
:101700006868A16820F4003008436860D4E90801E3
:101710000843696821F4741108436860C6F8609052
:10172000FFF71CFD044606E025E000BFFFF716FDAD
:10173000001B022809D828688001F7D51BE000BFEC
:10174000FFF70CFD001B022802D90320BDE8F88F2B
:1017500028688001F4D40EE00128F7D06868226A76
:1017600000F48031914204D1616A00F47010884223
:1017700001D00120EAE70020E8E700000010024065
:1017800000004242800442420C00002000700040F1
:1017900010B5401EB0F1807F01D3012010BD4FF085
:1017A000E02460610F21601700F07CFC0020A06144
:1017B00007202061002010BD70477047F8B502680F
:1017C00004461068D168536910F00F0F4FF0000500
:1017D00053D003F0010601F4907737435FD0C2077E
:1017E00005D0CA0503D5226C42F0010222644207EB
:1017F00005D5DA0703D0226C42F002022264820788
:1018000005D5DA0703D0226C42F0040222640207F5
:1018100007D501F02002324303D0226C42F00802C7
:101820002264226C002A34D0800604D5880602D5B2
:10183000204600F0C9FA20684069216CC0F380108E
:10184000090700D430B3204600F0A6FA20684169A9
:1018500049061BD5416921F040014161A06BA8B147
:1018600058494163A06BFFF7CDFA002811D0A06B57
:10187000416B01B0BDE8F040084783060FD58B06E9
:101880000DD52046BDE8F84000F09EBA2046FFF78F
:1018900094FFF8BD2046FFF790FF2564F8BD266B46
:1018A0002023012E52D1C60650D5CE064ED5106843
:1018B00050680090506940062AD5A16B08684068BE
:1018C0000004000CEAD0A68D8642E7D9E08588693D
:1018D000202818D0D06820F48070D060206841693A
:1018E00021F0010141612068416921F0400141611D
:1018F00084F83E3025632068C16821F01001C16082
:10190000A06BFFF75BFAA08DE18D401A81B219E060
:10191000A08DE18D401A81B2E08D0028BED0002953
:10192000BCD0D06820F49070D0602068426922F06A
:101930000102426184F83E3025632068C26822F0CB
:101940001002C2602046FFF737FFF8BD05062BD511
:101950000D0629D594F83D002128F6D1A068B0F5F0
:10196000805F01D12069B0B1206A411C21622168E9
:1019700000784860E08C401E0004000CE084E4D154
:101980002068C16821F08001C1602068C16841F011
:101990004001C160F8BD206A0088C0F308005060B3
:1019A000206A801C2062E5E74006F3D54806F1D5A1
:1019B000D168204621F04001D16084F83D3000F02C
:1019C0003AF9F8BD891D000870B5040004D094F8F8
:1019D0003D00002510B106E0012070BD84F83C50A8
:1019E000204600F023F8242084F83D002068C168D8
:1019F00021F40051C160204600F042FA20680169DC
:101A000021F4904101612068416921F02A0141617E
:101A10002068C16841F40051C1602564202084F829
:101A20003D0084F83E00002070BD000070B586B017
:101A3000002400940194029403942B4E03682B49D4
:101A4000022003222A4DB34221D18B6943F4804303
:101A50008B618B6903F4804304938B6943F0040327
:101A60008B618969039201F0040104910102CDE9BF
:101A7000001069462846FFF76FFA2815CDE90004E3
:101A8000694628460294FFF767FA06B070BD194E02
:101A9000B342FAD1CB6943F40033CB61CB6903F491
:101AA000003304938B6943F004038B6189690392CB
:101AB00001F0040104910421CDE900106946284693
:101AC000FFF74AFA0820CDE9000469462846029447
:101AD000FFF742FA002211462620FFF7ABFB262033
:101AE000FFF79AFBD1E700000038014000100240E8
:101AF000000801400044004090F83E30202B0ED1F9
:101B000059B152B190F83C30012B08D0012380F834
:101B10003C300023036300F00FBA0120704702201D
:101B2000704700000F4910B54888FF280ED90020E3
:101B300048804FF480710C48FEF741FB4FF6FF736D
:101B40000A220AA10D4800F01DF804E0064B0A78AD
:101B50001A54401C4880BDE8104001220149084841
:101B6000FFF7CABF10000020BC000020BDD3CAD5BB
:101B7000BBBAB4E6D2E7B3F60000000034000020A0
:101B8000780000202DE9F843044690F83D001F46F8
:101B900016460D4620284CD1C5B1BEB194F83C0084
:101BA000012846D0012084F83C004FF00008C4F81A
:101BB0004080212084F83D00FFF7D0FAA6848146BA
:101BC000E684A068B0F5805F03D004E00120BDE8A2
:101BD000F883206928B12E465FF0000584F83C8028
:101BE0000EE00026FAE78021204600F0C0F9A0B9F7
:101BF000AEB116F8010B21684860E08C401EE0840D
:101C0000E08C4B464FF0000200970028EBD14FF0DC
:101C10004001204600F0ABF930B10320D7E735F89A
:101C2000020BC0F30800E6E7202084F83D00002006
:101C3000CDE70220CBE77047FEE7000030B585B066
:101C4000002418480094019402940394816941F09F
:101C500020018161816901F020010491816941F0D5
:101C600004018161816901F004010491816941F0FD
:101C70001001816180690C4D00F010000490012278
:101C800010212846FFF764FA102000900120CDE9CA
:101C900001040320039069462846FFF75DF905B06B
:101CA00030BD000000100240001001400C4810B58B
:101CB0000A4901604FF4E1314160002181600C224A
:101CC000C160C0E904128161C161FFF77DFE002897
:101CD00003D0BDE81040FFF711B810BD0038014037
:101CE000340000200C4810B50A4901604FF4E1317E
:101CF0004160002181600C22C160C0E90412816151
:101D0000C161FFF761FE002803D0BDE81040FEF777
:101D1000F5BF10BD0044004078000020FEE7FEE75C
:101D200070477047FFF720BA30B58FB0282168465A
:101D3000FEF745FA14210AA8FEF741FA012108042A
:101D4000CDE900100024029402250491CDE907504A
:101D50004FF4E01009906846FFF78AFB08B172B6AD
:101D6000FEE70F20CDE90A054FF48060CDE90C4075
:101D700002210AA80E94FFF78FFA002801D072B64C
:101D8000FEE70FB030BD704710B5406A0021C18535
:101D9000C184FFF712FD10BD0168CA6822F4907279
:101DA000CA6001684A6922F001024A61016B012997
:101DB00004D10168CA6822F01002CA60202180F8AC
:101DC0003E1000210163704708B590F83E102229AB
:101DD00001D0022008BD82684FF480539A4201D19D
:101DE000016921B1816A9A421BD04AB10AE00268B6
:101DF000816A5268C2F308020A80816A891C08E07D
:101E0000026972B10268526802F07F020A70816A48
:101E1000491C8162C18D491E0904090CC18503D08A
:101E200019E002685268F1E70168CA6822F02002EE
:101E3000CA600168CA6822F48072CA6001684A698F
:101E400022F001024A61202180F83E10016B012935
:101E500003D0FFF767FE002008BD00210163016881
:101E6000CA6822F01002CA6001680A68D20602D568
:101E70000A6849680091818DFFF79EFCEBE700003E
:101E800070B5044600680169E26821F440511143CD
:101E900001612169A0680843616908432168CA6833
:101EA00041F20C639A430243CA6020684169A26907
:101EB00021F44071114341611E492068884202D1DA
:101EC000FFF790FA01E0FFF77DFA00EBC00101EBAC
:101ED0000012606864218000B2FBF0F3B3FBF1F301
:101EE0006FF018067343B2FBF0F5B2FBF0F605EBAA
:101EF0008305322303EB0515B5FBF1F5B6FBF1F6CF
:101F000005F0F00505EB0615B2FBF0F6B2FBF0F0BC
:101F1000B0FBF1F06FF01802504306EB800003EBCA
:101F20000010B0FBF1F0216800F00F002844886039
:101F300070BD00000038014081628285C2850021A9
:101F40000164222280F83E2080F83C100168CA68B3
:101F500042F48072CA6001684A6942F001024A6133
:101F60000068C16841F02001C160002070472DE980
:101F7000F041984617460E460446069D1DE0681C33
:101F80001BD02DB1FFF7EAF8A0EB0800A84214D946
:101F90002068C16821F4D071C1602068416921F0D6
:101FA00001014161202084F83D0084F83E000020BA
:101FB00084F83C000320BDE8F0812068006836EA20
:101FC000000004D00020B842D9D00020F3E701205F
:101FD000F9E700000148FFF7F1BB0000780000209E
:101FE000FEE70FB44FF4947130B5CBB06C4660ABE4
:101FF00020465F9A00F03CF84FF0FF3506E021469E
:10200000641C2B4601224EA8FFF7BCFD2078002857
:10201000F5D14BB030BC5DF814FB0FB42DE9F041A5
:102020000024DDE91775661E08E039467F1C33463B
:10203000012206A8FFF7A6FD641CA4B2AC42F4D3AB
:10204000BDE8F0015DF814FB0FB4084B10B504A90E
:1020500002AA039800F008F9044602A9002000F043
:1020600091FC204610BC5DF814FB00008529000897
:102070007CB50C001D461646014601D0601E00E0EE
:102080000020CDE90010064B6A462946304600F094
:10209000EBF8002C02D0009A002111707CBD0000EA
:1020A0006F2900080907090E002804DB00F1E02071
:1020B00080F80014704700F00F0000F1E02080F875
:1020C000141D704702E008C8121F08C1002AFAD187
:1020D00070477047002001E001C1121F002AFBD1A8
:1020E000704700002DE9FF5F82B00021DDE9043078
:1020F000020DDDF840B0034318D044F61050A2F2B0
:10210000FF3242431514119801281FD0A5EB0B0094
:10211000401C5FEA000A4FF000064E4FDFF838918E
:10212000B046504615D5CAF1000413E011980124B9
:102130004AA3012801D16FEA0B010298119AC0E964
:102140000031C0E9024206B0BDE8F09FCBF10000CB
:10215000DFE704460021404A491842EB0450CDE92C
:10216000001012E0E00707D032463B4640464946A1
:10217000FEF737F98046894632463B4610461946F7
:10218000FEF72FF906460F466410002CEAD1DDE970
:102190000401DDE90023BAF1000F06DAFEF721F9A8
:1021A00042464B46FEF71DF905E0FEF78CF9424624
:1021B0004B46FEF788F904460E460022284BFEF7F0
:1021C00009FA03D84FF0FF30014607E00022254B03
:1021D00020463146FEF75EF8FEF7E4F9102409E0E8
:1021E000002C0ADB0A220023FEF723F8039B30327F
:1021F0001A55641E50EA0102F2D1641C039AC4F11C
:1022000011031444119A012A03D0012208430DD16D
:102210000AE0084304D000204FF0110B119072E740
:10222000A3EB0B056D1E0DE05B4504DD4FF00002D6
:1022300005F1010504E003DA4FF00002A5F1010504
:10224000002AECD002981199C0E90231C0E900459A
:1022500079E70000000014400000F03F300000006B
:102260000000F0430000E03F2DE9FF4F95B09A4693
:10227000884606460025EEE1252877D1002427462A
:10228000F94A0121039400E0044316F8013F203B82
:1022900001FA03F01042F7D130782A2811D06FF0FC
:1022A0002F033078A0F13002092A16D8039A44F09F
:1022B000020402EB820203EB42021044761C0390FC
:1022C000EFE758F8042B0392002A03DA504244F453
:1022D0000054039044F00204761C30782E2816D166
:1022E00016F8010F44F004042A280DD06FF02F02D5
:1022F0003078A0F13003092B09D807EB870302EBF4
:102300004303C718761CF3E758F8047B761C307833
:102310006C280FD006DC4C2817D068280DD06A280E
:1023200014D104E0742810D07A280FD10DE044F4C1
:1023300000140AE044F4801401E044F4401472787C
:10234000824202D104F58014761C761C307866280F
:102350000BD013DC582877D009DC002875D045282D
:10236000F6D04628F4D047281AD193E118E0632824
:1023700035D0642879D0652812D18BE1702873D0CC
:1023800008DC6728F1D069286FD06E280DD06F283F
:1023900006D1ACE073282CD0752874D0782853D09F
:1023A0005246179990476D1C54E1C4F3025002281D
:1023B00009D003280DD0D8F8001004280DD00D60E6
:1023C00008F1040846E1D8F80010EA17C1E9005204
:1023D000F6E7D8F800100D80F2E70D70F0E718F876
:1023E000041B8DF8001000208DF80100EB46012041
:1023F00003E058F804BB4FF0FF3061074FF00001D5
:1024000002D40DE009F101018946B9420FDA814594
:10241000F8DB1BF809100029F4D108E009F10101EB
:1024200089468142FADB1BF809100029F6D103988E
:102430005346A0EB090721463846179A00F080FA68
:10244000284400EB090507E044E008E10DE01BF833
:10245000010B524617999047B9F10109F7D253463B
:1024600021463846179AF2E039E00A21C4F30252B5
:102470004FF0000B0091022A06D058F8040BC11748
:10248000032A09D00AE023E008F1070020F0070240
:10249000F2E80201904605E000B2C117042A01D11A
:1024A00040B2C117002906DA0A460021404261EB1A
:1024B00002012D2202E0220504D52B228DF80420F2
:1024C000012203E0E20701D02022F7E7914657E01E
:1024D0000A2100E010214FF0000B00910BE01021C9
:1024E0004FF0000B44F004040827009103E008209B
:1024F0004FF0000B0090C4F30252022A05D058F8A6
:10250000040B0021032A08D008E008F1070020F09E
:102510000702F2E80201904603E080B2042A00D1EB
:10252000C0B24FF0000922072AD53278702A07D0AE
:10253000DDF800C08CF0100C5CEA0B0C05D00EE04E
:1025400040228DF80420012208E050EA010306D061
:1025500030238DF804308DF8052002229146009B2F
:1025600083F0080353EA0B030AD150EA010201D1B8
:10257000620705D530228DF804204FF001097F1E37
:102580003278582A04D039A20C920CAA02920BE09D
:102590003BA2F9E75B46009AFDF74BFE0C9B9B5C68
:1025A000029A521E0292137050EA0102F2D102986E
:1025B00004A9081A00F1200B600702D524F4803426
:1025C00000E001275F4502DDA7EB0B0000E00020E3
:1025D00000EB0B01009003984944401A0390E0037C
:1025E00006D453462146179A039800F0A9F90544EA
:1025F000002706E001A85246C05D179990476D1C60
:102600007F1C4F45F6DBE0030CD553462146179A55
:10261000039800F095F9054404E0302052461799DC
:1026200090476D1C0099481E00900029F5DC08E0D9
:102630000298029952460078491C029117999047D6
:102640006D1CBBF10001ABF1010BF1DC5BE100F0B3
:1026500065F90544761C307800287FF40DAE19B07A
:102660002846BDE8F08F00000928010030313233E0
:1026700034353637383961626364656600000000BE
:1026800030313233343536373839414243444546A8
:1026900000000000600700D4062708F1070020F0C2
:1026A0000700F0E80223804603F0004C5FEA0C00CC
:1026B00001D097A009E0200501D596A005E0E0072C
:1026C00001D095A001E0AFF24C001390307823F0D8
:1026D000004365280CD006DC452809D046281DD0CB
:1026E00047287FD13BE0662818D067287AD136E0AA
:1026F0000021112F01DB112000E0781CCDE9000141
:1027000004A90CA8FFF7EEFCDDE90D010C9A4FF0CF
:10271000000B07F10109109200914EE04FF00040CC
:102720000097CDE9011004A90CA8FFF7DBFCDDE957
:102730000D020C9B0F994FF0000B914610930092E5
:1027400011B9791C00EB0109B7EB090003D4C0F102
:10275000FF3B07F10109A9EB0700019042E0012FBF
:1027600000DA01270021112F01DD112000E0384699
:10277000CDE9000104A90CA8FFF7B4FCDDE90D01C7
:102780000C9A00914FF0000BB946109221070FD41C
:10279000009A4A4503DA914601E0A9F10109B9F12D
:1027A000010F05DD109AA9F10101515C3029F4D027
:1027B000B84202DA10F1040F03DA0121CDE9011069
:1027C00010E0002803DC8344A9EB000102E0411C77
:1027D000494500DD8946A0EB0B00401C01904FF0FD
:1027E00000400290200705D40198484502DB4FF0D5
:1027F000FF30019000208DF84B0002980DF14B073F
:10280000B0F1004F25D002200C902B200D900298A3
:1028100000280CDA404202902D200D9007E00A219A
:102820000298FDF7F0FC3031029007F8011D0C9979
:10283000481E0C900029F2DC02980028EFD1791E86
:102840000D980870307800F0200040F0450007F83F
:10285000020D11A8C01BC01D02901398007800B192
:10286000012000EB0901019801EBE071029801449D
:102870000398401A401E0390E00306D453462146B5
:10288000179A039800F05CF805441398007818B183
:102890005246179990476D1CE00323D553462146B5
:1028A000179A039800F04CF805441BE0BBF1000FA9
:1028B00007DB0098584504DD1098179910F80B00B5
:1028C00001E0179930205246904701980BF1010B17
:1028D000401E05F10105019004D12E2052461799A2
:1028E00090476D1CB9F10001A9F10109DEDC05E09A
:1028F00017F8010B5246179990476D1C0299481E14
:1029000002900029F4DC53462146179A03989EE66C
:102910002D0000002B000000200000002DE9F041F8
:10292000044600251E461746880404D405E03946AF
:102930002020B0476D1C641EF9D52846BDE8F08103
:102940002DE9F041044600251E469046C80301D5F6
:10295000302700E02027880404D505E041463846AA
:10296000B0476D1C641EF9D52846BDE8F0814A6861
:10297000002A06D00A68531C0B6010704868401E7D
:10298000486070470A68531C0B6010707047000065
:10299000A0B01425FEF7F0FBFFF7C6F9FFF74EF9DC
:1029A000FFF784F9FFF79EF926223C490EA8FDF7B0
:1029B000EDFB3A4CE08CADF85E0054F8280F18900F
:1029C000A088ADF86400E088ADF86600A0681A90B1
:1029D0003249092234310E461BA8FDF7D7FB607D32
:1029E0008DF87500A07D8DF87600A0691E902CA052
:1029F0000D90342212A96846FDF7C8FB0DF1380C82
:102A00009CE80F00FFF7EDFA01222A492A48FFF758
:102A100073F8FDF797FEFDF787FE26221F490EA8E3
:102A2000FDF7B4FB34F8020CADF85E002068189096
:102A3000A088ADF86400E088ADF86600A0681A9040
:102A4000092231461BA8FDF7A1FB607D8DF87500BA
:102A5000A07D8DF87600A0691E9018A00D903422FC
:102A600012A96846FDF792FB0DF1380C9CE80F00A7
:102A7000FFF7B7FA4FF47A742846FEF741F920467B
:102A8000FEF758FA642D06DB14252846FEF738F9C0
:102A90002046FEF74FFA6D1CEEE7000034000020E0
:102AA00054686520555341525431206973204F4B6F
:102AB000210D0A001000002078000020496E697482
:102AC000206973204F4B210D0A0000000000000018
:102AD00000000000010203040607080900000000CE
:102AE0000102030441542B4D5154545055423D3082
:102AF0002C222573222C227B5C2269645C223A5CA6
:102B0000223132335C225C2C5C22706172616D7305
:102B10005C223A7B5C2225735C223A7B5C227661E4
:102B20006C75655C223A25645C7D7D7D222C302CA1
:102B3000300D0A007465737431000000766572739D
:102B4000696F6E3D323031382D31302D3331267280
:102B500065733D70726F6475637473253246547388
:102B600055576E363635396C25324664657669635D
:102B7000657325324674657374312665743D323051
:102B80003532393131373736266D6574686F643DBB
:102B90006D6435267369676E3D6E38787537427699
:102BA0006F4132253246253242583930514A4C590C
:102BB00041325125334425334400000054735557A6
:102BC0006E363635396C00006D717474732E68651D
:102BD000636C6F7564732E636F6D0000706F776543
:102BE00072000000247379732F547355576E363674
:102BF00035396C2F74657374312F7468696E672F63
:102C000070726F70657274792F706F73740000004A
:102C1000247379732F547355576E363635396C2FAC
:102C200074657374312F7468696E672F70726F707A
:102C3000657274792F706F73742F7265706C790080
:102C4000602C00080000002034000000C4200008B0
:102C5000942C0008340000208C050000D4200008CB
:102C60000100000010000000000000000024F4003B
:102C70000000000000000000342B0008BC2B0008FE
:102C80003C2B0008C82B0008E42B0008102C00087F
:042C9000DC2B000831
:0400000508000131BD
:00000001FF
