:020000040800F2
:1000000048050020490100085B150008611400083C
:1000100059150008E1010008F11B0008000000006C
:10002000000000000000000000000000131900089C
:10003000E3010008000000005D1500081519000824
:100040006301000863010008630100086301000800
:1000500063010008630100086301000863010008F0
:1000600063010008630100086301000863010008E0
:1000700063010008630100086301000863010008D0
:1000800063010008630100086301000863010008C0
:1000900063010008630100086301000863010008B0
:1000A00063010008630100086301000863010008A0
:1000B0006301000863010008630100086301000890
:1000C0006301000863010008630100086301000880
:1000D00063010008E51B00086301000863010008D4
:1000E0006301000863010008630100086301000860
:1000F0006301000863010008630100086301000850
:10010000630100086301000863010008630100083F
:10011000630100086301000863010008630100082F
:10012000630100086301000863010008630100081F
:10013000DFF810D000F042F800480047B11F000877
:10014000AFF3008048050020064880470648004776
:10015000FEE7FEE7FEE7FEE7FEE7FEE7FEE7FEE777
:10016000FEE7FEE79919000831010008D2B201E06C
:1001700000F8012B491EFBD270470022F6E710B5AC
:1001800013460A4604461946FFF7F0FF204610BD05
:1001900030B50B46014600202022012409E021FA57
:1001A00002F59D4205D303FA02F5491B04FA02F554
:1001B0002844151EA2F10102F1DC30BD064C074DAA
:1001C00006E0E06840F0010394E807009847103427
:1001D000AC42F6D3FFF7B0FF9C220008BC22000817
:1001E000FEE7704772B6FEE710B590F821100022C6
:1001F000022905D00421816380F82020012010BD50
:1002000001680B6823F00E030B6001680B6823F094
:1002100001030B6090F84030C46B012101FA03F335
:10022000636080F8211080F82020104610BD000087
:100230002DE9F05F90F821100024022903D0042159
:100240008163012485E001680A6822F00E020A60D9
:1002500001680A6822F001020A603F4E3E4FB21563
:10026000DFF8F4C0DFF8F090DFF8ECA0DFF8E8B0DA
:10027000DFF8E4E00168783F13011502ACF1640C8B
:10028000A9F15009AAF13C0AABF1280BAEF1140E0A
:100290004FF48018B14227D9B9420ED0614512D02F
:1002A00049451DD0514518D0594518D0714501D147
:1002B000424615E0294EB14201D1012210E0274EFD
:1002C0001436B14201D110220AE0244E2836B14240
:1002D00006D0224A3C32914201D11A4600E02A4619
:1002E0001E49091F0A602BE0B94213D0614517D09F
:1002F000494522D051451DD059451DD0714501D1E8
:1003000042461AE0B14202D14FF0807215E0134E1E
:10031000B14201D1012210E0104E1436B14201D198
:1003200010220AE00D4E2836B14206D00B4A3C326C
:10033000914201D11A4600E02A46074980394A60B5
:10034000012180F82110002180F82010416B01B1BB
:1003500088472046BDE8F09F800002400804024024
:100360002DE9F84FDFF8C891002409F1040A0AF1D9
:10037000040B23460F270BF1040ED1E00125A54005
:1003800006EA0502AA4276D1DFF8A8C14E68A6EBBC
:100390000C0866452BD00DDC032E34D005DC36B3BB
:1003A000012E19D0022E2FD11BE0112E16D0122EA5
:1003B0002AD119E0B8F5881F19D006DCB8F5803FBE
:1003C00015D0B8F5801F1FD111E0B8F5001F0ED071
:1003D000B8F5041F18D10AE0CB6815E0CB681B1DE7
:1003E00012E0CB6808330FE0CB680C330CE08B686D
:1003F0002BB1012B4FF0080303D0456104E0042327
:1004000002E0056100E00023FF2A01D8064601E072
:1004100000F104064FEA840501D9A5F12005D6F8BC
:10042000008007FA05FC28EA0C0803FA05F548EAFB
:100430000508C6F800804D68ED0070D53E4DAE69E8
:1004400046F00106AE61AD6924F0030605F0010532
:1004500000953A4D06EB050CDCF80850A607360F60
:1004600007FA06F825EA0805DFF8D480404503D1ED
:100470004FF0000825E052E0DFF8C880404502D187
:100480004FF001081DE0DFF8C080404502D14FF079
:10049000020816E0DFF8B480404502D14FF00308AF
:1004A0000FE0DFF8AC80404502D14FF0040808E0CF
:1004B000DFF8A080404502D14FF0050801E04FF081
:1004C000060808FA06F848EA0508CCF808804D68DE
:1004D000D9F80060ED034D4601D5164300E0964380
:1004E0002E604D68DAF80060AD03554601D516431D
:1004F00000E096432E604D68DBF80060ED025D463B
:1005000001D5164300E096432E604D68DEF800608A
:10051000AD02754601D5164300E096432E60641C7B
:100520000A681646E2407FF429AFBDE8F88F000064
:1005300000040140000011100010024000000140C2
:1005400000080140000C014000100140001401406F
:1005500000180140001C01400148806870470000FD
:1005600010000020024881680278114481607047C1
:1005700010000020074810B5016841F0100101602B
:10058000032000F075F80F2000F006F800F024F8C2
:10059000002010BD0020024070B50D4D04464FF400
:1005A0007A712878B1FBF0F00A490968B1FBF0F0E4
:1005B00000F021FD48B9102C07D200222146501E20
:1005C00000F036F800206C6070BD012070BD0000A6
:1005D000100000201C0000200C4808B5816941F083
:1005E00001018161816901F001010091C16941F05E
:1005F0008051C161C06900F080500090044841689A
:1006000021F0E06141F00071416008BD001002403E
:1006100000000140002809DB00F01F020121914089
:100620004009800000F1E020C0F800117047000090
:10063000F0B40E4B1B680C46C3F30223C3F107054D
:10064000042D00D90425191D072901D2002300E03B
:10065000DB1E012606FA05F1491E214099409E4005
:10066000761E16403143F0BC01F0D4BA0CED00E028
:10067000064900F0070208684FF6FF03184040EAF9
:100680000220034A10430860704700000CED00E0B0
:100690000000FA05014901200862704700000E427F
:1006A00010B52CA401461DCC86B08DE81D002DA0F0
:1006B0002D4C00680490002004292FD00BDC012968
:1006C0002FD0022928D100F071F96168C1F381317E
:1006D000491C49001EE0082920D010291CD161685E
:1006E0002268D20118D5C1F38342C9031DF8020064
:1006F00009D5616804AAC1F34041515C1B4AB2FBB1
:10070000F1F1484301E01A4948436168490203D4C2
:1007100040000321B0FBF1F006B010BD00F056F927
:10072000FAE7226AC2F30121012903D1920701D518
:10073000C803F1E7022905D1626A920702D549F69A
:100740004040E9E70329E7D121688903E4D54FF266
:100750002440E1E702030405060708090A0B0C0D13
:100760000E0F1010010200000010024000127A006B
:1007700000093D002DE9F84305460078354CC007D7
:1007800054D0E0690026C00008D4E06940F08050F1
:10079000E061E069012600F0805000902E48016879
:1007A000C90512D40168804641F480710160FFF7E9
:1007B000D3FE074605E000BFFFF7CEFEC01B64284E
:1007C00023D8D8F80000C005F6D5206A10F4407090
:1007D00021D0A98801F4407181421CD0206A1F49B0
:1007E000012220F440700A6000220A602062C007E3
:1007F00011D0FFF7B1FE074641F2883808E000BF8C
:10080000FFF7AAFEC11B414502D90320BDE8F883CA
:10081000206A8007F4D5206A696820F44070084394
:1008200020621EB1E06920F08050E06128788007E6
:1008300005D56068A96820F44040084360602878C6
:10084000C00605D56068696920F4800008436060CF
:100850000020DBE7001002400070004040044242EC
:100860002DE9F0470F46050061D0434E306800F097
:100870000700B84209D2306820F0070038433060E2
:10088000306800F00700B84251D128683B4C81071E
:1008900012D5400703D5606840F4E06060602878B6
:1008A000000703D5606840F4605060606068A96824
:1008B00020F0F000084360602878C00728D06868FE
:1008C000012810D02168022810D0890700292EDACB
:1008D000616821F0030101436160FFF73DFE80463E
:1008E00041F288390DE021688903EFE78901EDE7DE
:1008F000FFF732FEA0EB0801494502D90320BDE80D
:10090000F0876068696800F00C00B0EB810FEFD1F0
:10091000306800F00700B8420BD9306820F00700BB
:1009200038433060306800F00700B84201D0012041
:10093000E5E72878400705D56068E96820F4E060BD
:10094000084360602878000706D56068296920F4AC
:10095000605040EAC100606000F038F86168084A01
:10096000C1F30311515CC84006490860064800689D
:10097000FFF712FE0020C2E70020024000100240F4
:10098000842200081C0000201400002004480549AF
:1009900000684968044AC1F30221515CC8407047AD
:1009A0001C00002000100240942200080448054961
:1009B00000684968044AC1F3C221515CC8407047CD
:1009C0001C000020001002409422000812A185B0F3
:1009D0000FC98DE80F0014A0144A006804905168F4
:1009E000134801F00C03042B10D0082B0ED1C1F3D7
:1009F0008343C9031DF803000AD5516804AAC1F353
:100A00004041515C0A4A5043B0FBF1F005B07047D9
:100A100008494843FAE700000203040506070809ED
:100A20000A0B0C0D0E0F1010010200000010024006
:100A300000127A0000093D002DE9F84F040070D043
:100A40002078C04DC00749D06868C0F381000128F4
:100A500007D06868C0F38100022809D16868C00324
:100A600006D52868800339D560680028E7D035E0CE
:100A70006068B0F5803F0BD010B1B0F5A02F11D059
:100A8000286820F480302860286820F4802002E064
:100A9000286840F480302860606890B1FFF75CFD02
:100AA00006460AE0286840F480202860F0E700BF8E
:100AB000FFF752FD801B642873D828688003F7D5A0
:100AC0000CE0FFF749FD064605E000BFFFF744FDD7
:100AD000801B6428F0D828688003F7D420789A4EC9
:100AE00080074FF001094FF0000839D5686810F011
:100AF0000C0F07D06868C0F38100022809D168682C
:100B0000C00306D42868800714D52069012808D1BD
:100B100010E02069B0B1C6F80090FFF71DFD074650
:100B200005E00AE1FFF718FDC01B0228C4D82868B9
:100B30008007F7D52868616920F0F80040EAC10015
:100B400028600DE0C6F80080FFF706FD074604E0C8
:100B5000FFF702FDC01B022823D828688007F7D4BE
:100B6000207800072CD57948A169D9B1C0F8009048
:100B7000FFF7F2FC074604E0FFF7EEFCC01B02287B
:100B80000FD8686A8007F7D571484FF4FA510068AA
:100B9000B0FBF1F0009000BF0098411E0091FAD226
:100BA0000EE080E0C0F80080FFF7D6FC074604E0C6
:100BB000FFF7D2FCC01B022875D8686A8007F7D4FB
:100BC0002078400760D5E8690027C00008D4E869AC
:100BD00040F08050E861E869012700F08050009003
:100BE0005C480168C90513D40168834641F48071EB
:100BF0000160FFF7B1FC824606E000BFFFF7ACFCE6
:100C0000A0EB0A0064284ED8DBF80000C005F5D53B
:100C1000E06801280AD008B1052813D0286A20F01E
:100C200001002862286A20F0040002E0286A40F0EF
:100C300001002862E06841F2883B98B1FFF78CFC24
:100C400082460BE0286A40F004002862EEE700BF0D
:100C5000FFF782FCA0EB0A0159455AD8286A8007A1
:100C6000F6D50CE0FFF778FC824605E0FFF774FC50
:100C7000A0EB0A0159454CD8286A8007F6D41FB169
:100C8000E86920F08050E861E06988B36968C1F3E1
:100C90008101022944D00228C6F8608004D0FFF701
:100CA0005BFC044638E034E0FFF756FC074604E0FE
:100CB000FFF752FCC01B02282BD828688001F7D40C
:100CC000206AB0F5803F05D16868A16820F4003043
:100CD00008436860D4E908010843696821F4741185
:100CE00008436860C6F86090FFF736FC044606E0EB
:100CF00025E000BFFFF730FC001B022809D8286858
:100D00008001F7D51BE000BFFFF726FC001B02287F
:100D100002D90320BDE8F88F28688001F4D40EE0E2
:100D20000128F7D06868226A00F48031914204D12A
:100D3000616A00F47010884201D00120EAE70020C7
:100D4000E8E70000001002400000424280044242F6
:100D50001C00002000700040024850F8210080B2C2
:100D600070470000006C0040024800EB810091B227
:100D700001607047006C004070B5040003D0607CD7
:100D8000002610B105E0012070BD2674204600F059
:100D900043F802206074204600F010F9042578BB67
:100DA000204600F0E5FB58BB2068416821F00701B0
:100DB0004160A06820B11748016821F0010101607D
:100DC0001448001F0168A26821F46071114301609A
:100DD0006068411C04D10120FFF762FC80B1401E15
:100DE00021688A6822F00F0242EA10428A60216874
:100DF000CA6860F30F02CA60204600F0D3FB08B156
:100E00006574C0E7E67301206073A073607400200E
:100E100070BD0000306C004008B500680849884289
:100E20000DD1FFF737FC0748C16941F00061C1618E
:100E3000C069054900F0006000900120086008BD0D
:100E400000280040001002403C0442422DE9F041DD
:100E50000D4604003BD0C5B3207C01283AD04FF0AA
:100E6000010884F8108002206074E87872B300F002
:100E700076FBE073687800F072FB6073A87800F08E
:100E80006EFBA073C2B2617BE07B00F0EFFC2073CD
:100E90002870204600F06BFC4FF46161B0FBF1F16B
:100EA000002518292DD91822B1FBF2F1A1EB01116F
:100EB00001EB4101C1EB011100EBC11631462046A7
:100EC00000F013FD0427C8B90BE000E004E00120A6
:100ED000BDE8F0810220FBE7E07368786073A878D2
:100EE000CFE7204600F03CFC411C0AD0B04208D2BB
:100EF00006490144204600F0E4FC10B167742574F3
:100F0000E5E784F8118025740020E1E780510100B5
:100F10002DE9F0410D46040024D01DB3207C0128AA
:100F200023D04FF0010884F81080022060742878E4
:100F3000EAB100F014FB4FF4616100FB01F6687840
:100F400000F00DFBC0EB001006EB8006A87800F067
:100F500006FB35182946204600F0C7FC002604276A
:100F600010BB0FE00120BDE8F0810220FBE74FF449
:100F7000616148436978C1EB011100EB8100A978F8
:100F80004518E7E72068416821F0050141602046E7
:100F900000F0E6FB411C0AD0A84208D206490144F1
:100FA000204600F08EFC10B167742674DAE784F8EE
:100FB000118026740020D6E78051010070B504002E
:100FC0000AD02068416821F008014160FFF7C4FAA7
:100FD00005464FF47A7608E0012070BDFFF7BCFAB1
:100FE000401BB04201D9032070BD20684068000753
:100FF000F4D5002070BD10B5401EB0F1807F01D344
:10100000012010BD4FF0E02460610F21601700F057
:1010100001FE0020A06107202061002010BD704764
:1010200070470000F8B5026804461068D16853693B
:1010300010F00F0F4FF0000553D003F0010601F43C
:10104000907737435FD0C20705D0CA0503D5226C1D
:1010500042F001022264420705D5DA0703D0226C70
:1010600042F002022264820705D5DA0703D0226C1F
:1010700042F004022264020707D501F02002324345
:1010800003D0226C42F008022264226C002A34D081
:10109000800604D5880602D5204600F09EFC206814
:1010A0004069216CC0F38010090700D430B320469A
:1010B00000F07BFC2068416949061BD5416921F09D
:1010C00040014161A06BA8B158494163A06BFFF793
:1010D000AFF8002811D0A06B416B01B0BDE8F04023
:1010E000084783060FD58B060DD52046BDE8F8408E
:1010F00000F073BC2046FFF793FFF8BD2046FFF7D2
:101100008FFF2564F8BD266B2023012E52D1C60621
:1011100050D5CE064ED510685068009050694006F4
:101120002AD5A16B086840680004000CEAD0A68D9F
:101130008642E7D9E0858869202818D0D06820F455
:101140008070D0602068416921F001014161206810
:10115000416921F04001416184F83E3025632068F7
:10116000C16821F01001C160A06BFFF73DF8A08DB0
:10117000E18D401A81B219E0A08DE18D401A81B253
:10118000E08D0028BED00029BCD0D06820F490703B
:10119000D0602068426922F00102426184F83E304A
:1011A00025632068C26822F01002C2602046FFF763
:1011B00036FFF8BD05062BD50D0629D594F83D0060
:1011C0002128F6D1A068B0F5805F01D12069B0B1C7
:1011D000206A411C2162216800784860E08C401E32
:1011E0000004000CE084E4D12068C16821F0800193
:1011F000C1602068C16841F04001C160F8BD206A4B
:101200000088C0F308005060206A801C2062E5E777
:101210004006F3D54806F1D5D168204621F04001BB
:10122000D16084F83D3000F01AF9F8BD9B19000830
:1012300070B5040004D094F83D00002510B106E01C
:10124000012070BD84F83C50204600F023F8242093
:1012500084F83D002068C16821F40051C160204637
:1012600000F016FC2068016921F4904101612068BA
:10127000416921F02A0141612068C16841F40051AF
:10128000C1602564202084F83D0084F83E000020E1
:1012900070BD000030B585B0002400940194029424
:1012A00003940068184988422CD11848816941F498
:1012B00080418161816901F480410491816941F03B
:1012C000040181618069124D00F0040004904FF424
:1012D0000070009002200190032003906946284688
:1012E000FFF73EF82815CDE9000469462846029428
:1012F000FFF736F8002211462520FFF799F925203F
:10130000FFF788F905B030BD0038014000100240F9
:101310000008014090F83E30202B0ED159B152B157
:1013200090F83C30012B08D0012380F83C3000239A
:10133000036300F009BC01207047022070470000E1
:1013400070B5184988422CD14FF6FF730122164917
:10135000144800F02BF8144841880A0416D44B04B2
:1013600003784FF0000204D50A2B0ED141F400415E
:1013700015E00D2B11D0C1F30D040A4D491CC83DD9
:1013800089B22B554180C72900D94280BDE8704001
:10139000012205490348FFF7BDBF41F48041418068
:1013A000F4E770BD000100200A0000202DE9F84399
:1013B000044690F83D001F4616460D4620284CD1A5
:1013C000C5B1BEB194F83C00012846D0012084F894
:1013D0003C004FF00008C4F84080212084F83D0014
:1013E000FFF7BAF8A6848146E684A068B0F5805F6E
:1013F00003D004E00120BDE8F883206928B12E461F
:101400005FF0000584F83C800EE00026FAE78021BA
:10141000204600F0B4FBA0B9AEB116F8010B21686C
:101420004860E08C401EE084E08C4B464FF00002A8
:1014300000970028EBD14FF04001204600F09FFBC1
:1014400030B10320D7E735F8020BC0F30800E6E718
:10145000202084F83D000020CDE70220CBE7704734
:10146000FEE781070CD16421B0FBF1F201FB120110
:1014700041B94FF4C871B0FBF1F201FB120008B1A1
:101480000020704701207047094808B5816941F084
:1014900010018161816901F010010091816941F0C1
:1014A00004018161806900F00400009008BD000023
:1014B000001002401CB500241848019416490094FD
:1014C0000160611E41604FF480718160FFF754FC40
:1014D00008B1FEF787FE8DF804408DF805408DF8C1
:1014E0000640012201A90D48FFF712FD08B1FEF7E1
:1014F00079FE01208DF800008DF801008DF80200C2
:1015000002468DF8034069460448FFF79FFC002817
:1015100001D0FEF767FE1CBD00280040240000201B
:101520000C4810B50A4901604FF4E13141600021D7
:1015300081600C22C160C0E904128161C161FFF7C2
:1015400077FE002803D0BDE81040FEF74BBE10BD6B
:101550000038014000010020FEE7FEE77047010966
:1015600001EB810100F00F0000EB4100C0B27047B9
:1015700070B50446FEF7F0FF05464FF47A7606E0B4
:10158000FEF7EAFF401BB04201D9032070BD20687E
:1015900040688006F4D52068416841F01001416040
:1015A000002070BD70B504460068416821F010014C
:1015B0004160FEF7D1FF05464FF47A7607E000BFA1
:1015C000FEF7CAFF401BB04201D9032070BD20685E
:1015D00040688006F4D5002070BD00002DE9F0437E
:1015E000334800683249091D0968324F01EB004653
:1015F000B6FBF7F3304CE088984231D0E38040F2FC
:10160000B2754FF4B7794FF4B6780FE02846FFF77C
:1016100028FF38B14B4502D3A3F5B77304E06D1C26
:10162000ADB205E0A3F26D136D1CADB24345EDD82C
:1016300025810025DFF884800CE02089FFF711FF69
:1016400008B1012D2FD018F80500984204D81B1AB4
:101650006D1CADB21C2BF0D26D1C25705B1C637031
:10166000B6FBF7F007FB10604FF46161B0FBF1F2DD
:10167000A270B0FBF1F201FB12033C22B3FBF2F3C8
:10168000E370B0FBF1F301FB1300B0FBF2F102FBDE
:101690001100207162782178208900F011F86071C2
:1016A0000020BDE8F0831D2BD6D31D3BD0E7000002
:1016B0001828004080510100000000207822000816
:1016C00030B56424B0FBF4F3B0FBF4F5DBB204FBFB
:1016D0001500132B01D96430C0B200EB900407232E
:1016E000B4FBF3F503FB1544084D22440D44800779
:1016F00015F8015C2A4492B203D1032901D2521E8B
:1017000092B2B2FBF3F003FB102030BD6C22000854
:101710001CB512481049002401604FF0FF31C0E9A8
:101720000114FFF729FB08B1FEF75CFD01210B480E
:10173000FFF712FB45F2500290420CD001210748FE
:10174000FFF712FB012200940023114640F2E670DD
:10175000019400F01DF81CBD00280040240000206A
:101760000168086A496A89B241EA00407047006826
:1017700081698AB2C1698BB2816989B28A4203D018
:10178000C06961F31F40704743EA024070470000A0
:101790002DE9F04F9A4605460023A0F5FA60DDF8E2
:1017A00024B091468846642802D30120BDE8F08F1A
:1017B00040F2B274284E294F08E02046FFF751FE50
:1017C00008B1334400E03B44641CA4B2AC42F4D3FF
:1017D000A8F10100C6B20024214FDFF888800EE096
:1017E000385D40F2A321484303EBC0132846FFF7BE
:1017F00038FE10B1012C00D14344641CA4B2B442A1
:10180000EED340F2A32109FB01F0164903EBC0100F
:1018100049420844CAEB4A12C2EB0A2100EB01100C
:10182000CBEB0B1100EB81000A9901440E480268D2
:1018300042F0100202600C4B8AB218331A60090C95
:101840001A1F1160016821F010010160016889060A
:10185000FCD50020AAE700000085E2018033E10109
:10186000782200088051010004280040F0B564246B
:10187000C1EBC1030927A500072603EB01130329C8
:10188000B3FBF7F100F5FA60114401440AD2401E9F
:10189000B0FBF4F201EB9001B0FBF5F0891A0844BB
:1018A000001D08E0B0FBF4F201EB9001B0FBF5F095
:1018B000891A0844801CB0FBF6F106FB1100C0B287
:1018C000F0BD70B50D4606460024FFF751FE48B93D
:1018D0003168280C08623168A8B248623046FFF7C8
:1018E00061FE00B10124204670BD70B50D4606466C
:1018F0000024FFF73DFE48B93168280C8861316843
:10190000A8B2C8613046FFF74DFE00B10124204661
:1019100070BD7047FEF726BE70B596B028216846A8
:10192000FEF72BFC14210AA8FEF727FC18210FA8AC
:10193000FEF723FC0920012400904FF4803000259D
:1019400004940694CDE901050226CDE907604FF421
:10195000E01009906846FFF76FF808B172B6FEE72D
:101960000F20CDE90A064FF48060CDE90C5002212A
:101970000AA80E95FEF774FF08B172B6FEE74FF4A1
:101980000070CDE90F400FA8FEF7F4FE002801D04B
:1019900072B6FEE716B070BD704710B5406A002100
:1019A000C185C184FFF73CFB10BD0168CA6822F401
:1019B0009072CA6001684A6922F001024A61016BB3
:1019C000012904D10168CA6822F01002CA602021EE
:1019D00080F83E1000210163704708B590F83E1072
:1019E000222901D0022008BD82684FF480539A4218
:1019F00001D1016921B1816A9A421BD04AB10AE042
:101A00000268816A5268C2F308020A80816A891CEE
:101A100008E0026972B10268526802F07F020A703F
:101A2000816A491C8162C18D491E0904090CC18566
:101A300003D019E002685268F1E70168CA6822F031
:101A40002002CA600168CA6822F48072CA60016814
:101A50004A6922F001024A61202180F83E10016BA0
:101A6000012903D0FFF76CFC002008BD00210163B1
:101A70000168CA6822F01002CA6001680A68D206CA
:101A800002D50A6849680091818DFFF7C8FAEBE733
:101A900070B5044600680169E26821F440511143C1
:101AA00001612169A0680843616908432168CA6827
:101AB00041F20C639A430243CA6020684169A269FB
:101AC00021F44071114341611E492068884202D1CE
:101AD000FEF76CFF01E0FEF759FF00EBC00101EBE0
:101AE0000012606864218000B2FBF0F3B3FBF1F3F5
:101AF0006FF018067343B2FBF0F5B2FBF0F605EB9E
:101B00008305322303EB0515B5FBF1F5B6FBF1F6C2
:101B100005F0F00505EB0615B2FBF0F6B2FBF0F0B0
:101B2000B0FBF1F06FF01802504306EB800003EBBE
:101B30000010B0FBF1F0216800F00F00284488602D
:101B400070BD00000038014081628285C28500219D
:101B50000164222280F83E2080F83C100168CA68A7
:101B600042F48072CA6001684A6942F001024A6127
:101B70000068C16841F02001C160002070472DE974
:101B8000F041984617460E460446069D1DE0681C27
:101B90001BD02DB1FEF7E0FCA0EB0800A84214D941
:101BA0002068C16821F4D071C1602068416921F0CA
:101BB00001014161202084F83D0084F83E000020AE
:101BC00084F83C000320BDE8F0812068006836EA14
:101BD000000004D00020B842D9D00020F3E7012053
:101BE000F9E700000148FFF71DBA000000010020DE
:101BF000FEE700000FB4054B10B503A9044A029894
:101C000000F028F810BC5DF814FB0000991F0008D4
:101C1000200000200907090E002804DB00F1E02065
:101C200080F80014704700F00F0000F1E02080F809
:101C3000141D704702E008C8121F08C1002AFAD11B
:101C400070477047002001E001C1121F002AFBD13C
:101C5000704700002DE9FF4F8BB0884605460026EF
:101C600006E025280BD0DDE90D1290476D1C761C8F
:101C700028780028F5D10FB03046BDE8F08F002459
:101C8000A146A2460122AE4900E0044315F8013FF7
:101C9000203B02FA03F00842F7D128782A2810D016
:101CA0006FF02F022878A0F13001092915D809EB2F
:101CB000890102EB410144F0020400EB01096D1CB3
:101CC000F0E758F8041B5FEA010903D544F4005417
:101CD000C9F1000944F002046D1C28782E2817D1A0
:101CE00015F8010F44F004042A280ED06FF02F02DB
:101CF0002878A0F1300109290AD80AEB8A0102EB01
:101D0000410100EB010A6D1CF2E758F804AB6D1CB1
:101D100028786C280FD006DC4C2817D068280DD006
:101D20006A2814D104E0742810D07A280FD10DE06D
:101D300044F400140AE044F4801401E044F4401434
:101D40006978814202D104F580146D1C6D1C2878DD
:101D5000692865D006DC00288DD0632827D0642848
:101D600006D15DE06E2808D073282AD0752877D078
:101D7000DDE90D129047761CE0E0C4F30250022822
:101D800009D003280DD0D8F8001004280DD00E601B
:101D900008F10408D2E0D8F80010F217C1E9006297
:101DA000F6E7D8F800100E80F2E70E70F0E718F8AA
:101DB000041B8DF8001000208DF80100EB46012077
:101DC00003E058F804BB4FF0FF3061074FF0000705
:101DD00001D40AE07F1C57450DDA8742FADB1BF875
:101DE00007100029F6D106E07F1C8742FCDB1BF8B8
:101DF00007100029F8D1DDE90D23A9EB0700814682
:101E0000214600F0B1F83044C61904E0DDE90D12B6
:101E10001BF8010B90477F1EF8D22146484688E008
:101E200058F8040BC4F302514FF00A0B032900D1F8
:101E300000B2042900D140B2002802DA40422D212C
:101E400002E0210505D52B218DF82410012104E0A5
:101E500006E0E10710D02021F6E708AF089113E073
:101E600058F8040BC4F302514FF00A0B032900D1B8
:101E700080B2042900D1C0B20021EEE75946FEF736
:101E800087F9303107F8011D0028F7D1ADEB0700C5
:101E900000F1200B600702D524F4803401E04FF0FC
:101EA000010ADA4502DDAAEB0B0000E000208246C1
:101EB00000EB0B0108980144A9EB01000A90E00334
:101EC00006D4DDE90D2321460A9800F04DF80644BA
:101ED0004FF0000908E009A911F80900DDE90D1229
:101EE000904709F10109761C08998945F3DBE00365
:101EF0000CD5DDE90D2321460A9800F035F806449B
:101F000004E0DDE90D1230209047761CBAF10001A3
:101F1000AAF1010AF5DC05E0DDE90D1217F8010B65
:101F20009047761CBBF10001ABF1010BF4DC0A9881
:101F30002146DDE90D2300F005F806446D1C97E607
:101F4000092801002DE9F041044600251E461746E8
:101F5000880404D405E039462020B0476D1C641E77
:101F6000F9D52846BDE8F0812DE9F0410446002569
:101F70001E469046C80301D5302700E0202788047C
:101F800004D505E041463846B0476D1C641EF9D5BE
:101F90002846BDE8F081000013B54FF6FF7301221B
:101FA00069460248FFF702FA00981CBD00010020B4
:101FB0000EB5FEF7DFFAFFF7AFFCFFF765FAFFF7A4
:101FC000AFFA012253495448FFF7A4F9FFF7A0FBE9
:101FD000524D534E534FDFF85091DFF850B1DFF8B8
:101FE00050A1544C2088810BFCD0810407D0C0F351
:101FF0000D0001281BD00E2825D04FA085E0FFF74B
:10200000EDFA53A0FFF7F6FD38782A7831788DE89D
:10201000070099F800309BF80020BAF8001055A08E
:10202000FFF7E8FD5FA0FFF7E5FD69A06DE07648EA
:102030000078632803D0432801D074A065E0FFF73F
:1020400039FA78A061E070480178C278303901EB44
:102050004103C3EBC11102EBC10241786423594330
:10206000837803EB830301EB43011144A1F5A051F5
:10207000D0398AB2AAF80020029201794279303927
:1020800001EB81036FF02F0101EB43031A44D3B23C
:102090008BF8003082799E46303AC37902EB820297
:1020A00001EB42021A44D2B289F80020037A90F878
:1020B00009C0303B03EB830301EB43036344DBB212
:1020C0003B7090F80AC090F80B80ACF1300C0CEB30
:1020D0008C0C01EB4C0CC4440CF0FF0C86F800C0D7
:1020E00090F80D80007B303800EB800001EB400061
:1020F0004044C0B22870CDE900C071460298FFF795
:1021000047FB08B14DA000E053A0FFF773FD00208E
:10211000208067E70A000020000100200400002062
:102120000300002002000020010000200000002029
:10213000080000200C000020D6B8C1EEB4EDCEF3AC
:10214000A3A1202020202020202020200D0A0000F4
:1021500020D1F3CCD2496F54BFAAB7A2B0E55254F4
:1021600043CAB5CAB1CAB1D6D3B2E2CAD42020207C
:102170000D0A000020CAB5CAB1CAB1BCE4A3BA2591
:102180003034642D253032642D25303264202025F2
:102190003032643A253032643A2530326420200DE2
:1021A0000A00000020B5A5B0B4BBD8B3B5BCFCB8DC
:1021B000FCD0C2CAB1BCE4A3ACCAE4C8EBD7D6C455
:1021C000B843B3F5CABCBBAFCAB1D6D3200D0A0021
:1021D00020C7EBCAE4C8EBC9E8D6C3CAB1BCE4A3C4
:1021E000ACB8F1CABD3230313730383036313230E8
:1021F000303030A3ACB0B4BBD8B3B5BCFCC8B7B6B4
:10220000A8A3A1200D0A000038000020D6B8C1EE16
:10221000B4EDCEF3A3A120202020202020202020D8
:10222000200D0A00B3F5CABCBBAFB3C9B9A6A3A1C0
:10223000202020202020200D0A000000D0B4C8EB70
:10224000CAB1BCE4CAA7B0DCA3A120202020202072
:1022500020200D0A00000000D0B4C8EBB3C9B9A615
:10226000A3A1202020202020200D0A000003030627
:1022700001040602050003051F1C1F1E1F1E1F1F51
:102280001E1F1E1F000000000000000001020304CA
:10229000060708090000000001020304BC22000830
:1022A0000000002024000000341C0008E022000888
:1022B0002400002024050000441C00080000000049
:1022C000000000000000000000000000010000000D
:1022D00010000000000000000024F40000000000D6
:0400000508000131BD
:00000001FF
