:020000040800F2
:10000000601F00200501000867720008316A0008BF
:1000100065720008C35900086D75000800000000F3
:10002000000000000000000000000000D174000883
:10003000C559000800000000A9740008D374000826
:100040001F0100081F0100081F0100081F01000810
:100050001F0100081F0100081F0100081F01000800
:100060001F0100081F0100081F0100081F010008F0
:100070001F0100081F0100081F0100081F010008E0
:100080001F0100081F0100081F0100081F010008D0
:100090001F0100081F0100081F0100081F010008C0
:1000A0001F0100081F0100081F0100081F010008B0
:1000B0001F0100081F0100081F0100081F010008A0
:1000C0001F0100081F0100081F0100081F01000890
:1000D0001F0100081F0100081F0100081F01000880
:1000E0001F0100081F0100081F010008DFF810D0E1
:1000F00005F048FC0048004709BE0008AFF3008047
:10010000601F00200648804706480047FEE7FEE7DC
:10011000FEE7FEE7FEE7FEE7FEE7FEE7FEE7FEE7B7
:1001200025750008ED000008FE49C1F8E800704799
:100130002DE9F04FDFF8ECB30026044685B01746F2
:1001400098468A463546B146DBF8AC0005F096F98C
:100150003A46434605F024FA7ED3DBF8B00005F0BA
:100160008DF93A46434605F033FAF5D3B4F9000069
:10017000B4F90610401A05F081F93A46434605F0F5
:100180000FFA00D20126B4F90E00B4F91410401A87
:1001900005F074F93A46434605F002FA00D2761C9F
:1001A000B4F91C00B4F92210401A05F067F93A4678
:1001B000434605F0F5F900D2761CDB4B012E4BDCF3
:1001C00000223846414605F03DF807460E46B4F990
:1001D0000000B4F90610401A05F050F93A463346CB
:1001E00005F0F6F900D20125B4F90E00B4F91410A7
:1001F000401A05F043F93A46334605F0E9F900D2D2
:100200006D1C31463E460F46B4F91C00B4F922106D
:10021000401A05F033F932463B4605F0D9F900D2D1
:100220006D1C002D03DD022005B0BDE8F08F002617
:1002300006EB460004EB80050390B5F90A0005F0D3
:100240001DF9DAE9047843463A4604F0F5FF83469F
:100250000091B5F9040000E053E005F00FF94346C2
:100260003A4604F0E9FF5A46009B04F0EBFF834650
:100270000291B5F9080005F001F9DAE90278434680
:100280003A4604F0D9FFCDE90001B5F9020005F0C6
:10029000F5F843463A4604F0CFFFDDE9002304F0C9
:1002A000D1FF80460491B5F9060005F0E7F8DAE9D8
:1002B00000572A463B4604F0BFFFCDE900010398F2
:1002C00034F9200005F0DAF82A463B4604F0B4FF82
:1002D000DDE9002304F0B6FF4246049B04F00BFF67
:1002E0005A46029B04F007FF0022134605F058F916
:1002F00001D209F10109761C032E99DBB9F1020F35
:1003000001DA012090E700208EE788490A684B68EF
:10031000D00180EAD20080EA031048608B68520363
:1003200080EAC30382EA5312520282EAD0208B6031
:100330000860704770B50546FFF7E7FF05F083F8E2
:100340007B4904F05CFE6FF01F06314604F0C7FEE7
:1003500008F0FCFE0446FFF7D8FF05F074F83146BC
:1003600004F0BDFE10F0FF4F01D14FF07E5005F0BC
:1003700003F90BF09BFB00224FF0404304F062FFB7
:1003800005F03EF90DF0DAF8294604F038FE214672
:10039000BDE8704004F033BE2DE9FE4F054690469F
:1003A0000E46184605F0E8F8CDE90010D6E93023EE
:1003B00004F048FF04460F46404605F0DDF8029180
:1003C000F5E93023834604F03DFF22463B4604F026
:1003D00092FE65E830010024DDE90010074606EBD7
:1003E000C40082460CC8384604F02CFF05EBC40755
:1003F0008046D7E9002389465846029904F022FF37
:1004000042464B4604F077FEC7E90001DDE90010E3
:10041000DAE9242304F016FFD7E92423804689462D
:100420005846029904F00EFF42464B4604F063FE24
:10043000641CC7E92401062CCEDB0024DDE9001092
:10044000074606EBC400D0E91223384604F0FAFE52
:1004500005EBC4020746D2E912C3884691465846C6
:100460000299624604F0EEFE3A46434604F043FE2B
:10047000641CC9E91201092CE0DB0024DDE900104D
:10048000074606EBC400D0E90C23384604F0DAFE38
:1004900005EBC4020746D2E90CC38846914658468C
:1004A0000299624604F0CEFE3A46434604F023FE2B
:1004B000641CC9E90C01032CE0DBBDE8FE8F2DE9CB
:1004C000F04F044691B00F46086804F0D7FFCDE91D
:1004D0000E0105460E46786804F0D0FF81468A4634
:1004E000B86804F0CBFF83468846D4E930015F4604
:1004F0000022104B04F0FFFDC4E93001D4E90C01E7
:100500002A46334604F0F7FDC4E90C01D4E90E0194
:100510004A46534604F0EFFDC4E90E0143463A460D
:100520000AE00000400A0020000004408000002093
:10053000DB0FC9400000F03FD4E9100104F0DBFDFF
:10054000C4E910012A4633462846314604F07AFEB3
:10055000CDE90501D4E9002304F0CDFDC4E9000193
:100560004A4653462846314604F06CFECDE9000168
:10057000D4E9022304F0BFFDC4E9020143463A4630
:100580002846314604F05EFECDE90301D4E9042398
:1005900004F0B1FDC4E904014A46534648465146B9
:1005A00004F050FECDE90701D4E9062304F0A3FDD1
:1005B000C4E9060143463A464846514604F042FE25
:1005C000D4E9082304F097FDC4E908013A464346FC
:1005D0001046414604F036FED4E90A2304F08BFDB0
:1005E000C4E90A01DDE905012A46334604F02AFE82
:1005F000D4E9122304F07FFDC4E91201DDE9000112
:100600004A46534604F01EFED4E9142304F073FD59
:10061000C4E91401DDE9030143463A4604F012FE41
:10062000D4E9162304F067FDC4E91601DDE90001F1
:100630002A46334604F006FED4E9182304F05BFD95
:10064000C4E91801DDE9070153464A46CA461F4678
:10065000CDE9000104F0F6FDCDE90210D4E91A233A
:1006600004F049FDC4E91A015D46434646465A4630
:100670005046394604F0E6FD834633462A46049147
:1006800004F0E0FDD4E91C2304F035FDC4E91C01AD
:10069000DDE90E83994642463146284604F0D2FDF4
:1006A00042464B4604F0CEFDD4E91E2304F023FD60
:1006B000C4E91E01584652463B46049904F0C2FD67
:1006C000D4E9202304F017FDC4E920012A4633466B
:1006D0001046314604F0B6FD33462A4604F0B2FD1A
:1006E000CDE90601D4E9222304F005FDC4E9220185
:1006F00042464B464046494604F0A4FD83464246E6
:100700004B460C9104F09EFD42464B4604F09AFD88
:10071000D4E9242304F0EFFCC4E92401DDE902104C
:1007200052463B4604F08EFDD4E9262304F0E3FC58
:10073000C4E92601DDE9060133462A4604F082FDBC
:10074000D4E9282304F0D7FCC4E9280158465246CE
:100750003B460C9904F076FD52463B4604F072FD90
:10076000D4E92A2304F0C7FCC4E92A0158463346D9
:100770002A460C9904F066FD33462A4604F062FDD1
:10078000D4E92C2304F0B7FCC4E92C01DDE9000115
:1007900033462A4604F056FD33462A4604F052FDFD
:1007A000D4E92E2304F0A7FCC4E92E0111B03CE5E6
:1007B0002DE9F74F0446B8B0D4E90C0102460B46C8
:1007C000CDE9040104F03EFDD4E90023CDE90C237A
:1007D000D4E93056074688462846314604F032FDB3
:1007E00043463A4604F028FDCDE90201D4E90E0162
:1007F00002460B46CDE91A0104F024FDD4E9062394
:100800000746884628463146CDE9102304F01AFDF4
:1008100043463A4604F010FDCDE90001D4E9100149
:1008200002460B46CDE90E0104F00CFDD4E90A2383
:100830000746884628463146CDE9142304F002FDD8
:1008400043463A4604F0F8FCCDE90801DDE91A21F7
:100850000B46DDE9040104F0F5FCD4E90223074668
:1008600088462846314604F0EDFC43463A4604F0FB
:10087000E3FC3491DDE90E2182460B46DDE90401FB
:1008800004F0E0FCD4E904230746884628463146B4
:1008900004F0D8FC3A46434604F0CEFC8946DDE934
:1008A0000E2183460B46DDE91A0104F0CBFCD4E9A6
:1008B0000823074688462846314604F0C3FC3A46DA
:1008C000434604F0B9FC07468846DDE90401DDE94A
:1008D000142304F0B7FCCDE90A01D4E91623284615
:1008E000314604F0AFFCCDE91601DDE90401DDE994
:1008F000102304F0A7FCCDE91201D4E91423284603
:10090000314604F09FFCCDE90601DDE90401DDE993
:100910000C2304F097FCCDE90401D4E91223284606
:10092000314604F08FFCDDE9042304F085FCDDE9A9
:10093000062304F0E0FBDDE9122304F07DFCDDE991
:10094000162304F0D8FBDDE90A2304F075FC4FF010
:10095000FF3204F058FDCDE92601DDE91A01DDE999
:10096000142304F06FFCCDE91601D4E91C232846BA
:10097000314604F067FCCDE91201DDE91A01DDE939
:10098000102304F05FFCCDE90A01D4E91A232846BC
:10099000314604F057FCCDE90601DDE91A01DDE935
:1009A0000C2304F04FFCCDE90401D4E918232846B8
:1009B000314604F047FCDDE9042304F03DFCDDE9A9
:1009C000062304F098FBDDE90A2304F035FCDDE999
:1009D000122304F090FBDDE9162304F02DFC4FF008
:1009E000FF3204F010FDCDE90401DDE90E01DDE97F
:1009F000142304F027FCCDE90A01D4E92223284678
:100A0000314604F01FFC0DF1380CCDE906019CE8DD
:100A10000F0004F017FCCDE91001D4E9202328468B
:100A2000314604F00FFCCDE91201DDE90E01DDE9EC
:100A30000C2304F007FCCDE90C01D4E91E23284661
:100A4000314604F0FFFBDDE90C2304F0F5FBDDE9A2
:100A5000122304F050FBDDE9102304F0EDFBDDE987
:100A6000062304F048FBDDE90A2304F0E5FB4FF020
:100A7000FF3204F0C8FC37910546DDE90201DDE9EB
:100A8000002304F0DFFBDDE9082304F0DBFBCDE904
:100A90000601DDE902013A46434604F0D3FB3A463B
:100AA000434604F0CFFBCDE90A01DDE900015A46D7
:100AB0004B4604F0C7FB5A464B4604F0C3FBCDE956
:100AC0000C0101225046349904F09DFC5A464B46D5
:100AD00004F0B8FB3A46434604F0B4FB06460E91D8
:100AE000DDE908015246349B04F0ACFB5246349BCE
:100AF00004F0A8FB32460E9B04F09EFBDDE90C23BC
:100B000004F0F9FADDE90A2304F0F5FADDE9062339
:100B100004F092FB00221346CDE90C0104F040FDE5
:100B20007ED03A4643465046349904F08BFB2A4621
:100B3000379B04F087FBCDE90A01DDE90801524645
:100B4000349B04F07FFBCDE92310DDE9042304F09E
:100B500079FBCDE90601DDE90001DDE9082304F0B8
:100B600071FBDDE9262304F06DFBCDE910013A4667
:100B700043461046194604F065FBDDE9262304F0E0
:100B800061FBCDE90E01DDE904233846414604F05E
:100B900059FB06461291DDE900012A46379B04F015
:100BA00051FB3246129B04F047FB5A464B4604F079
:100BB00049FBDDE90E2304F09EFADDE9102304F081
:100BC0003BFBDDE9062304F096FADDE90A2304F095
:100BD00033FBCDE912015A464B465046349904F096
:100BE00031FB199106462A46379B04F02BFBCDE9D1
:100BF0000A01DDE92310DDE9262304F023FBCDE91A
:100C00000601DDE90201DDE9082304F01BFBDDE953
:100C1000042304F017FB5A464B46CDE90E0100E0D1
:100C200006E11046194604F00DFBDDE9042304F04B
:100C300009FBCDE90801DDE926235846494604F0C1
:100C400001FBCDE91001DDE902012A46379B04F0E2
:100C5000F9FADDE9102304F0EFFA3A46434604F0CE
:100C6000F1FADDE9082304F046FADDE90E2304F089
:100C7000E3FADDE9062304F03EFADDE90A2304F095
:100C8000DBFACDE90E01DDE904233046199904F0C1
:100C9000D9FA06460891DDE900015A464B4604F0B0
:100CA000D1FADDE9262304F0CDFACDE90601DDE92C
:100CB0000201DDE9002304F0C5FA2A46379B04F05F
:100CC000C1FACDE90001349B52461046194604F0A2
:100CD000B9FA2A46379B04F0B5FADDE926238B469C
:100CE0000A905046349904F0ADFA0DF1080C05460F
:100CF00089469CE80F0004F0A5FA2A464B4604F00A
:100D00009BFA3A46434604F09DFA5B460A9A04F081
:100D1000F2F9DDE9002304F08FFADDE9062304F09F
:100D2000EAF93246089B04F087FA05460E46DDE9EB
:100D30001201DDE90C2304F0F7FA399A81468A465C
:100D4000C2E90001DDE90E01DDE90C2304F0ECFA53
:100D5000399A07468846C2E90201DDE90C23284694
:100D6000314604F0E1FA399A05460E46C2E904011B
:100D7000D4E9102304F066FA0291D4E90E238346E5
:100D80003846414604F05EFACDE90001D4E90C236F
:100D90004846514604F056FADDE9002304F0ABF969
:100DA0005A46029B04F0A7F9012204F02CFB83466B
:100DB0000091D4E90001D4E9062304F09CF9D4E9B8
:100DC0000A2304F098F95A46009B04F035FAD4E956
:100DD000302304F0A9FACDE900012A463346104633
:100DE000194604F02FFA04468B463A46434610460D
:100DF000194604F027FA05460E464A465346104661
:100E0000194604F01FFA2A46334604F074F95B468B
:100E1000224604F070F9DDE9002304F06CF90CF0CF
:100E200067FB3A9AC2E9000101203BB0BDE8F08FB0
:100E30000020FAE72DE9F34F9DB004461E98D0E953
:100E4000006732463B463046394604F0FBF9D4E9A8
:100E50000C939A464A4604F0F5F94A46534604F084
:100E6000F1F905468846D4E9300132463B46CDE9E2
:100E7000080104F0E7F932463B46CDE90B0104F0E6
:100E8000E1F9D4E90023CDE9062304F0DBF92A4691
:100E9000434604F0D1F90191DDE90623834630464B
:100EA000394604F0CFF94A46534604F0CBF90546DB
:100EB0008846DDE90B01D4E9122304F0C3F95A4650
:100EC000019B04F0BCF92A46434604F014F9CDE92D
:100ED000000101223046394604F095FA1E9ACDE908
:100EE0000201D2E9025398462A4604F0ABF94A4679
:100EF000534604F0A7F9D4E90E23CDE9042304F006
:100F0000A1F983460A91DDE90801012204F07BFA88
:100F100032463B46CDE9140104F094F943462A4693
:100F2000CDE90F0104F08EF9D4E9022304F08AF927
:100F3000DDE9002304F0DFF85A460A9B04F07CF94F
:100F4000CDE900014A4653463046394604F07AF965
:100F5000CDE90D01D4E906B35A460A9304F072F9BB
:100F600006460F46DDE90B01D4E9142304F06AF9C3
:100F7000DDE9002304F063F932463B4604F0BBF898
:100F8000CDE90001DDE902011E9AD2E904631F46A2
:100F9000324604F057F94A46534604F053F9D4E96F
:100FA0001023CDE9022304F04DF981468A46DDE99C
:100FB0000F013B46324604F045F9D4E9042304F01E
:100FC00041F9DDE9002304F096F84A46534604F05F
:100FD00033F9CDE90001DDE90D01D4E90A939A4620
:100FE0004A4604F02FF9CDE90E01DDE90B01D4E901
:100FF000162304F027F9DDE9002304F020F9DDE9E8
:101000000E2304F078F8CDE90001DDE906016FF068
:10101000010204F0F8F9DDE9062304F013F9CDE943
:101020000C01DDE908016FF0010204F0ECF9CDE9F3
:101030000E01D4E9242304F005F9DDE9002304F0CE
:101040005AF8DDE90C2304F0F7F8CDE90001DDE9F9
:1010500006232846414604F0F5F8DDE9042304F0B0
:10106000F1F8CDE91201DDE908012A46434604F012
:10107000E9F8CDE90B01D4E9182304F0E3F8DDE940
:10108000002304F0DCF8DDE9122304F034F8CDE9A4
:101090000001DDE906014FF0FF3204F0B4F95A46D1
:1010A000CDE916010A9B04F0CDF8CDE91A01DDE97E
:1010B00008014FF0FF3204F0A6F9CDE91101D4E99F
:1010C0002A2304F0BFF8DDE9002304F014F8DDE979
:1010D0001A2304F0B1F8CDE90001DDE9062330461A
:1010E000394604F0AFF8DDE9022304F0ABF8CDE9AE
:1010F0001A01DDE9080132463B4604F0A3F8CDE9C8
:101100000601D4E91E2304F09DF8DDE9002304F074
:1011100096F8DDE91A2303F0EEFFCDE90001DDE9E1
:1011200016014A46534604F08DF8CDE90801DDE981
:101130001101D4E92C2304F085F8DDE9002303F044
:10114000DAFFDDE9082304F077F8CDE900012A464B
:1011500043461046194604F075F8DDE9042304F00F
:1011600071F8DDE9042304F06DF8CDE91601DDE93D
:101170000B012A46434604F065F85A460A9B04F0E0
:1011800061F8DDE9002303F0B6FFDDE9162304F082
:1011900053F8CDE900015A46284641460A9B04F01F
:1011A00051F8DDE9042304F04DF8CDE91601DDE93D
:1011B0000B01D4E91A2304F045F8DDE9002304F01B
:1011C0003EF8DDE9162303F096FFCDE90001012288
:1011D0002846414604F017F932463B4604F032F8FF
:1011E000DDE9042304F02EF8DDE9022304F02AF8F7
:1011F000CDE90801DDE914012A46434604F022F84E
:1012000032463B4604F01EF8D4E9082304F01AF8ED
:10121000DDE9002303F06FFFDDE9082304F00CF89B
:10122000CDE90001DDE904232846414604F00AF82F
:101230004A46534604F006F880460D46DDE90B01A8
:10124000D4E91C2303F0FEFFDDE9002303F0F7FFE0
:1012500042462B4603F04FFF054601916FF0010215
:1012600058460A9904F0CFF85A460A9B03F0EAFF61
:1012700080460091DDE90E01D4E9262303F0E2FF68
:101280002A46019B03F037FF4246009B03F0D4FF40
:1012900080460D465A46304639460A9B03F0D2FF37
:1012A000DDE9022303F0CEFFCDE90001DDE906010F
:1012B000D4E9202303F0C6FF42462B4603F0BFFFCC
:1012C000DDE9002303F017FF054688464FF0FF32A3
:1012D00058460A9904F097F84A46534603F0B2FF7D
:1012E00083460091DDE91101D4E92E2303F0AAFF22
:1012F0002A46434603F0FFFE5A46009B03F09CFF3C
:101300000546884632463B461046194603F09AFF8A
:10131000DDE9022303F096FFDDE9022303F092FFEB
:1013200083460091DDE9060132463B4603F08AFF21
:101330004A46534603F086FF2A46434603F0DBFE47
:101340005A46009B03F078FF054688464A465346B6
:101350003046394603F076FFDDE9022303F072FFE1
:1013600006460F46DDE90601D4E9222303F06AFFB1
:101370002A46434603F063FF32463B4603F0BBFE7A
:10138000074688466FF001024846514604F03BF894
:101390004A46534603F056FF06460D46DDE90E0168
:1013A000D4E9282303F04EFF3A46434603F0A3FE58
:1013B0001FB032462B46BDE8F04F03F03DBF30B5BD
:1013C0000446B0F88C0089B000040690B4F88E0092
:1013D0000D4600040790B4F890008834000408908B
:1013E00002A809F0E3FA029906982B46401A0690E3
:1013F0000399079806AA401A079004990898401A7A
:1014000008902088616A80B209F07BF909B030BD8C
:101410002DE9F04786B00D466946FFF7D0FF00265C
:1014200037463446E9466FF00F0A0DF10C0859F8BB
:10143000240003F0FFFF514603F051FE48F824005A
:10144000014603F0DCFD04F097F832463B4603F01A
:1014500052FE641C06460F46032CE8DB0CF048F8ED
:1014600006460F46002458F8240004F085F832465A
:101470003B4603F059FF04F0C3F855F8241003F07D
:1014800066FD45F82400641C032CECDB686D401CF1
:10149000686509F0E7FCE86706B0BDE8F0872DE96C
:1014A000F041044609F020FB40BB09F0ABFA0428E8
:1014B00024D0FE4920460E46FFF7AAFFFC4DD5E991
:1014C0005C01814205DB304603F0FDF90020C5F8E0
:1014D0007401208E4FF00406C00515D504F11800E4
:1014E00009F0F4FA8009B0F5C87F0AD2D5F8B8003F
:1014F000002850DD401EC5F8B8004AE00120BDE8D4
:10150000F081C5F8B86044E0D4F8A010D5F8140113
:10151000081A01D4034600E04342E44A4FF4A02CE9
:10152000583A634505DDD4E929035365C2E9131030
:101530002FE00312D4F8A470D5F818015B43381AD1
:1015400001D4864601E0C0F1000EE64505DDD4F881
:10155000A800D164C2E914701BE0001200FB003344
:10156000D4F8A800D5F81C11401A01D4014600E0B7
:10157000414261450DDC001200FB0030B0F5403FF8
:10158000B4DBA034C5F8B86094E80B004C3282E8B4
:101590000B000020B3E70220B1E72DE9F04F93B034
:1015A000C34CD0E90023D4F8A81004EBC101C1E971
:1015B0000023D4F8A810491CC4F8A810D0E90223CD
:1015C00004EBC101C1E90023D4F8A810491CC4F8F8
:1015D000A810D0E9042304EBC100C0E90023D4F82B
:1015E000A800401CC4F8A800152802DB0020C4F89D
:1015F000A8001822AE490CA803F06AFC1822AC49D6
:1016000004A803F065FC01260DF130090DF1100A64
:10161000A346002406EB460808EB04010BEBC105CA
:1016200009EBC407D5E90023D7E9000103F0D0FF97
:1016300003D2D5E90001C7E90001D5E900230AEB8F
:10164000C407D7E9000103F0ABFF03D2D5E90001DD
:10165000C7E90001641C032CDEDB761C072ED8DBF7
:10166000DDE90401DDE90C2303F0E6FD05460C4647
:10167000DDE90601DDE90E2303F0DEFD2A462346FF
:1016800003F08EFF02D22846214605E0DDE906017F
:10169000DDE90E2303F0D0FD05460C46DDE9080127
:1016A000DDE9102303F0C8FD2A46234603F078FF46
:1016B00004D213B028462146BDE8F08FDDE90801C9
:1016C000DDE9102313B0BDE8F04F03F0B5BD2DE9FF
:1016D000F0419CB0064600240E945520CDE90F4001
:1016E0001190744D0AA809F02FF912A90AA809F05F
:1016F00098FC16AA0EA912A809F0AEFC6A460AA91F
:1017000016A809F0A9FC01986B4F00F5967001909E
:10171000029800F596700290039800F59670039079
:101720003846FEF707FE03F0BAFE0199084401901F
:101730003846FEF7FFFD03F0B2FE0299084402901E
:101740003846FEF7F7FD03F0AAFE0399084403901C
:10175000304601A9FEF7B3FED6E930010022574B0F
:1017600003F036FF35D21AAA04A93046FFF720F855
:1017700078B3DFF84C81DDE908010022434603F02D
:101780005BFD02460B4603F05DFD06460F46DDE9B4
:1017900006010022434603F04FFD02460B4603F0CC
:1017A00051FD04460D46DDE904010022434603F0E5
:1017B00043FD02460B4603F045FD22462B4603F04F
:1017C0009AFC32463B4603F096FC0BF091FE044631
:1017D0000D461CB020462946BDE8F0410022394B99
:1017E00003F0A2BD10B5E821374803F098FB30485C
:1017F000364920F8BC1F4A0CC280C1818282818395
:1018000042842B48E821E83803F089FB284900206E
:10181000C1F8B40010BD2DE9F04F254F0446C5B006
:10182000006BC7F8A0012046FFF739FE00287DD1E4
:10183000D7F8941107F1BC003D90012911D1B4F9FA
:101840008C004090B4F98E004190B4F99000429021
:1018500040A91D48FEF733FE04F18C013D9800F0CD
:1018600023FBD7F80801002802DD401EC7F8080155
:1018700015480022E8381346D0E93051284603F0D5
:10188000A7FE7CD21049E822E839684603F020FB25
:101890000D4840A9E838FEF712FE0B493EAA203950
:1018A000A1F1C8004391FEF783FF11E0600B002017
:1018B000400A002000408F400000284100003440D2
:1018C00000C0724000000840700800200080FFFF48
:1018D000002866D0FE484399FFF7ACFAD7E94023C9
:1018E00005460E46E03703F0A7FCDFF8E4B3804678
:1018F0008946DBE930010022F64B03F09DFC0246ED
:101900000B464046494603F00FFD0BF0F1FDDBE9C5
:10191000308B81468A460022EE4B4046594603F002
:101920008BFC42465B4603F08DFC00E0C1E0804644
:101930008B4601222846314603F065FD42465B4650
:1019400003F0F2FC0BF0D4FDB86803F015FE77E865
:10195000382303F077FC4A46534603F021FE03D3B5
:10196000D7F80801002822DDE8226946D84803F0AC
:10197000AFFAD7F8E800E03703F0FEFD00E00FE033
:1019800077E8382303F05EFC4A46534603F008FE2E
:101990004CD24FF4FA7001F07BFD0A20C7F8080121
:1019A00044E0E8226946CA4803F092FA3EE0D7F8DC
:1019B000980101283AD1D7F8B400401CC7F8B40008
:1019C000002009F035FFDFF808831022D8E9320142
:1019D00003F019FD03F0B1FD3A90D8E9340110226B
:1019E00003F011FD03F0A9FD3B90D8E93601102268
:1019F00003F009FD03F0A1FD3C9003213AA809F092
:101A000089FED8E930010022B34B03F0E1FD0BD28F
:101A1000B24A414613460846FEF7BEFC404643998B
:101A2000FFF708FA05460E46C7E94056208EC00566
:101A300009D5B4F87400C00505D5A948FFF747FEDD
:101A400005460E4601E0A74E0025A1480022E830D9
:101A5000A54BD0E9301C0846614603F0A1FD28D310
:101A60009F493EAA2039A1F1C8000291FEF7A0FECD
:101A700000287DD0D4F8AC0003F000FD02460B46F0
:101A80009A489B4903F050FC804689460298FFF72C
:101A900084FD82468B4642464B4603F099FD09D2AF
:101AA0000022944B2846314603F07AFD02D2FFF71C
:101AB00099FE8EE142464B465046594603F070FD72
:101AC0007ED200228C4B2846314603F069FDF7D2C6
:101AD0007F4E0022E836894BD6E9300103F078FDCD
:101AE000EED2DFF8ECB100221346DBE9300103F05F
:101AF00057FD72D130460299FFF79CF9B84607F5B9
:101B00008077B14603C7D6F8C060D9F8C4700446E0
:101B10000D4600226F4B3046394603F08DFB3246AE
:101B20003B4603F08FFB06460F460122294620461E
:101B300003F069FC32463B4603F0F6FB0BF0D8FCA1
:101B400004460D46D8F8E80003F016FDD8E938231E
:101B500003F078FB22462B4603F022FDA7D33DACD1
:101B6000029994E80D00FEF7E3FA02289FD000E006
:101B700030E100289DD1D8F89801012899D10020A2
:101B800009F056FE4C461022F4E9320103F03BFC0A
:101B900003F0D3FC3A90D4E90201102203F033FCA5
:101BA00003F0CBFC3B90D4E90401102203F02BFCA2
:101BB00003F0C3FC3C9003213AA809F0ABFD01E01F
:101BC000FDE00AE0012009F0D1FD19200390049006
:101BD000059003A809F0C2FDE8E0B946D7F8B400C3
:101BE00003F04CFCD6E9302303F09EFB444A454BFE
:101BF00003F0EEFCB2D336480299E830FFF71AF949
:101C0000B246D6F8C060DAF8C47080460D460022AD
:101C1000304B3046394603F00FFB32463B4603F06B
:101C200011FB06460F4601224046294603F0EBFB16
:101C300032463B4603F078FB0BF05AFC06460F4653
:101C4000D9F8E80003F098FCD9E9382303F0FAFA50
:101C500032463B4603F0A4FCCCD33DAE029996E855
:101C60000D00FEF765FA00287ED15F465646D7E99B
:101C70003623D6E93601C836C83703F0DDFA024606
:101C80000B4603F0DFFAD7E9022382468B46D6E9FA
:101C9000020103F0D1FA02460B4603F0D3FACDE974
:101CA0000001D7E9002376E8320103F0C5FA0246C5
:101CB0000B4603F0C7FADDE9002303F01CFA524695
:101CC0005B4603F018FA0BF013FC07468A461BE04C
:101CD000880700200000F03F00409F406666E63E17
:101CE0005809002000000840000034409A99999952
:101CF0009999A9410000F83F0000104000003E40C3
:101D00000AD7A3703D0AE73FD4F8AC0003F0B6FB56
:101D10003A46534603F096FA6FF01D0203F073FB48
:101D200004460F4600228D4B03F052FC15D30022CF
:101D30008B4B2046394603F04BFCBFF4B8AED9F8C4
:101D4000B40003F09BFBD6E9302303F0EDFA4FF02B
:101D50003332844B03F024FCEFD2D9F898014C467F
:101D600001287FF4A4AE00E033E0002009F060FD1C
:101D7000C4E94085F6E93201102203F044FB03F088
:101D8000DCFB3A90D6E90201102203F03CFB03F0A1
:101D9000D4FB3B90D6E90401102203F034FB03F09E
:101DA000CCFB3C9003213AA809F0B4FC6E494FF0FB
:101DB0007E530022A1F1E800FEF7EEFA77E66A48CA
:101DC00000226A4BD0E930140846214603F000FC9B
:101DD000F4D3002045B06FE470B5654C0546D4F8E7
:101DE0000C0110B9284600F08AF8D5F8B01044F676
:101DF000206081420ADAD4F8102111448142C4F8EB
:101E000010114FF0000005DBC4F810012846BDE8B2
:101E1000704000E570BD04224FF4C871AFF2470076
:101E200009F040BBAFF24F0009F0F6BD4E4810B5C7
:101E3000E821E83803F073F8FFF7D4FC4FF4D471CD
:101E40004B4803F06CF84A4C4FF07E50C4F8E80061
:101E500004F5907004F5887402F09FFC0A20206657
:101E60004FF08240E0641E20E0664248A06742488E
:101E700060674248E067002010BD10B5FFF7D6FF4D
:101E8000002805D1AFF27100BDE8104009F092BB07
:101E900010BD10B5AFF2BF0009F0BEFDAFF2890072
:101EA000BDE8104009F0DEBD30B50022C2EBC20330
:101EB00031F9124030F91350AC420ADD02EB420412
:101EC0000D8820F8245000EB84044D8865808D88AF
:101ED000A58000EB430331F91240B3F906309C4270
:101EE00009DA02EB420300EB83030C88DC804C88A8
:101EF0001C818C885C81521C032AD7DB30BD70B5F5
:101F00001B4DD0F8AC200446EAB1D31700201921AC
:101F100002F07CFF45F8AC0F54F8AC2F0020D3172B
:101F2000052102F073FF686022680020D317962114
:101F300002F06CFF03F0A2FAC5E90D01AC3D0120EF
:101F4000C5F80C0170BD6FF00040C5F8AC00C5F8D5
:101F5000B0000B498005C5E93801F0E700001040EA
:101F6000000004403333C33F7008002000409F400E
:101F7000400A0020CDCCCC3E3333333F9A99193FF1
:101F8000FFFFDF4110B5F949C4074FF040434FF060
:101F9000804205D08B66CB66C1E91C328A67CA676E
:101FA000840709D5C1F80031C1F80431C1E94232D2
:101FB000C1F81021C1F81421400709D5C1F89831A2
:101FC000C1F89C31C1E96832C1F8A821C1F8AC213F
:101FD00010BD2DE9F14F82B0002102988A46894652
:101FE000806F00287DD000220020401C0428FCDBEC
:101FF00002984FF0000C00EBC203D3E90010A1FBE4
:102000000167D3E9065400FB017701FB0077CDE9B6
:102010000067A646AE1B64EB0704AB460327A6FB8E
:10202000075804FB078406FB0C44DDE90067AD1983
:102030007C41A5FB016704FB017405FB0045D3E966
:102040000C47341B65EB0705CDE900455D46A5FB54
:1020500005670324A6FB04580EFB0B770BFB0E77DA
:1020600007FB048406FB0C44D3E91263761B63EB85
:1020700004034C18A4FB017C40EB000505FB01C5E3
:1020800004FB0055A7FB014C05FB01C507FB0055F0
:10209000A4FB017C05FB01C504FB0054F619634158
:1020A000DDE90045AD0045EA9475A400A4FB017C80
:1020B00005FB01C104FB0014F01B73EB040103D505
:1020C0000023404263EB0101BAEB000479EB01030A
:1020D00001DA82468946521C032A85DB504649466E
:1020E00000E010E003F0B4F9A149896B02F0B9FFF8
:1020F00003F002FA9D4AD2F80C2203B09200BDE828
:10210000F04F02F0D3BE002003B00146BDE8F08FCF
:102110002DE9F14F0020009A0146926FF2B300249E
:102120000022521C042AFCDB009A02EBC405AA46DA
:10213000D5E90029A2FB023CD5E906769E46FB1AAA
:102140000325A3FB057809FB02CC02FB09CB66EB58
:102150000B0606FB05854FF0000C03FB0C5617EB36
:102160000E03A3FB027C46EB0B0606FB02C203FB3D
:102170000923DAE90C25BA1AAB4103D500255242EE
:1021800065EB0303851A71EB030501DA1046194666
:10219000641C032CC4DB03F05BF900E00EE074491F
:1021A000896B02F05EFF03F0A7F9704AD2F80C22A7
:1021B000BDE8F84F02EB420202F078BE0020014673
:1021C000BDE8F88F2DE9FE43684D80460024D5F820
:1021D00010626F4605EBC4013246D1E9020102F0FC
:1021E00046FE05EB8401B1F884100904401847F855
:1021F000240004F10104032CECDB5C489821083036
:1022000002F08DFE0120FFF7BDFE95F8E80101996F
:10221000042807D1D5F81802B0F5201F02DD0520EB
:1022200085F8E801524C0098636AC11A01D40E4641
:1022300000E01E1A0198A26A801A01D4074601E044
:10224000019FD71BBE4206DD002901D4084606E0E7
:102250000098181A03E0002801D50198101A029A74
:10226000E16A521A01D4134601E0029BCB1A834261
:1022700005DB002A01D4104601E00298081AD8F8BC
:10228000241008F094FED5F81812814206DD0321CF
:10229000684609F013FB022009F062FB00986062B7
:1022A0000198A0620298E062BDE8FE83304AC2E96C
:1022B000020170472E4AC2E9060170472C4AC2E962
:1022C00004017047294AD2F8E0310360D2E9740270
:1022D000C1E900027047254AD2F8E0310360D2E933
:1022E0007602C1E9000270472DE9FE4781460020D1
:1022F000EA468A6F22B901EB800339F91020DA67C8
:1023000001EB800239F91030D46F1D1B4AF82050C0
:10231000136E9D4200DD1566D36E9D4200DAD566D0
:102320000123002422464FEAE578A3FB056704FB5E
:10233000057403FB0844334602EB420601EBC60674
:1023400006EBC00CDCE90076FF186641CCE90076AC
:10235000521C042AE9DB401C0328CADB886F401C9E
:1023600088670120C1F89000BDE8FE87E80B0020D7
:10237000480E002030B5002302EB830550F82340BF
:102380005B1CEC66032BF7DBC2F88810916F79B108
:10239000002102EB810450F82130E56F5B1B00D572
:1023A0005B42256E9D4200DA2366491C0329F0DB5F
:1023B000906F401C90670120C2F8900030BD10B5AE
:1023C00000210B4600EB8102491CD46ED4671366D2
:1023D0000329F7DBD0F8881040F8783FC0E90513EF
:1023E00010BDD0E92210081A70470146D1E9180241
:1023F000824200DB1046896E814200DB084670474E
:102400002DE9F0478046501E012686408946C2F1DC
:102410002007404602F04AFD04460D464046494624
:102420003A4602F024FD3A4602F040FDB04203DD98
:10243000641C45F1000505E07142884202DA641E21
:1024400045F1FF3520462946BDE8F087F7490020D1
:10245000086248628862C862086448648864C86424
:10246000086348638863C863086548658865C8650C
:10247000704730B5EE4AD2F8483223B1D2E99054D1
:102480002D1A8C4101DAC2E990015B1CC2F8483276
:1024900030BD30B5E64AD2F8583223B1D2E994546F
:1024A0002D1A8C4101DAC2E994015B1CC2F8583242
:1024B00030BD30B5DE4AD2F828322BB1D2E988459A
:1024C000041B71EB050401DAC2E988015B1CC2F848
:1024D000283230BD30B5D64AD2F838322BB1D2E9E5
:1024E0008C45041B71EB050401DAC2E98C015B1C0D
:1024F000C2F8383230BD2DE9F0470246CC480125FC
:1025000008308046C36E016E046FC91A436E1B1BF0
:102510008B4200DB1946836ED8F87400181A884283
:1025200000DB0146C14F6037F86B884204DA0024B3
:1025300000F00AFA204687E7108E0124BC4EC00541
:102540004FF000010ED5D6F880303068834209DBA9
:10255000B2F87420D20506D5D6F8B021824201DB4C
:10256000052400E00C4674B3600719D5AF48C8389D
:102570008146FFF72EFD000D40EA01300915C6E93E
:102580007601D7E904321B1A8A4102DA0025FFF7E7
:10259000A1FF9821484602F0C2FC0420FFF7F2FC9C
:1025A000E0070ED04046FFF714FDC6E97C01D7E9ED
:1025B00006340246181A8C4103DA00251046FFF74C
:1025C00078FF284640E7FFE702203DE71EB50446B6
:1025D00090F83000C0F38110032804D19449201DE5
:1025E0000831FFF781FE94F87400C0F381100328CE
:1025F00005D18E4904F14800C839FFF775FED4F8BB
:10260000B8008B4AC0F38113A0326946032B0FD068
:10261000C0F3411003281AD1002004EB8003D3F843
:10262000A0309B1341F82030401C0328F5DB09E063
:10263000002004EB4003B3F98C3041F82030401CFB
:102640000328F6DB6846D4F8C010FFF793FE1EBDE2
:102650002DE9F04705460020296BCA0567D501F032
:102660005001402900D1012095F8741001F050016B
:10267000402900D1012095F8B8106D4C01F05001AF
:10268000402900D030B100F05FF90020C4F8E0012B
:1026900084F8E801654ED4F80812E86A6036814291
:1026A00025D0C4F808020A28306B0ADA40002060FE
:1026B000716B491CC4F80C1202F0BCFE0AF03EFF1C
:1026C00004E02060706BC4F80C02B06BC4F8140214
:1026D000D4F80C02C0F11000C4F810024FF480408E
:1026E000C4F8180296F8341019208840F063284680
:1026F000FFF76CFF94F8E811DFF8349105274FF0ED
:10270000020809F1A009072911D2DFE801F004113C
:1027100027305E7E8500D4F8E001411CC4F8E0114A
:102720000A2804DB00F010F9012084F8E80186E0B3
:10273000D4F89800012810D12846FFF7DCFE10B12C
:10274000012803D004E084F8E87101E084F8E8810E
:102750004846FFF734FEFFF779FE70E0032084F867
:10276000E8012846FFF72EFD00F0EEF867E0284666
:10277000FFF7C1FEF0B3012861D1B5F8B8004FF002
:102780000403C00515D54846FFF72FFE0146C017C4
:10279000C4E97410D6E902C2BCEB0101824102DA3D
:1027A00084F8E87108E04846FFF71BFE316A88426A
:1027B00002D384F8E83124E0F4E97601FFF769FEFA
:1027C000D4E90601FFF755FE39E0B5F8B800C005B9
:1027D0000BD54846FFF709FE0146C017C4E974103F
:1027E000D6E90232591A824108DB2846FFF783FEF8
:1027F00000B100E002E0012803D020E084F8E87195
:102800001DE02846FFF7DEFCD6E7062084F8E80145
:10281000012009F0A5F80DE02846FFF76CFE01281D
:1028200001D038B10BE084F8E88108E0E80D002021
:10283000E80B002000F088F84846FFF7C0FD0020B4
:1028400002E610B500214010002802D001F101017C
:10285000F9DC454C4FF0010001F1010100FA01F0F3
:10286000C4E90C0102F0E6FD0AF068FEA06394F8EA
:10287000341019208840E06310BD10B54FF4187172
:102880003A4802F04CFB4021374802F048FB072051
:10289000FFF778FB344840F2DC510022C0E9061211
:1028A0001421C0E902124FF41671C0E90412304934
:1028B0002E4C01620120C4F8E4011920FFF7C1FF8A
:1028C0000020C4F8080210BD10B54FF41871274855
:1028D00002F025FB0720FFF755FB244801210022C9
:1028E000C0F8E41180F8E8110321012009F02EF866
:1028F00007226421AFF2A720BDE8104008F0D2BD46
:1029000010B5012009F02CF8AFF2BB20BDE8104053
:1029100009F082B810B5FFF7B0FF002805D1AFF27B
:102920005700BDE8104008F045BE10BD10B5FFF7D8
:10293000E7FFAFF26B00BDE8104009F093B80B4918
:10294000D1E97C0170477047084810B598210830DC
:1029500002F0E5FA9821074802F0E1FABDE81040DC
:102960000520FFF70FBB0000480E0020E80B0020F9
:102970000008AF2F200D00202DE9FC5F0D4600263A
:10298000416B99469246B046002904DBD0F8BC0062
:10299000032800D10126FF492422081F02F098FADB
:1029A000FC4FC03F0024C7F8E05007EB8400D0F88C
:1029B000BC10404602F0CBFA641C80460A2CF4DBC3
:1029C000F54902F04EFBF54C80464FF0C80BC7F8B6
:1029D000E400BAF1320F21DB4846C7F81CB102F01F
:1029E00029FD00900190EE49284602F03AFB01993A
:1029F00002F005FB214602F034FB0446BAF57A7F6B
:102A000033DBE8492846009C02F02BFB214602F00C
:102A1000F6FAE24902F025FB044626E041F288314D
:102A200099FBF1F04042D7F81C1100EB80004018F0
:102A3000C7F81C0102D50020C7F81C01484602F067
:102A4000F9FC8246D849284602F00BFB514602F0B9
:102A5000D6FA214602F005FB0446D7F81C0120B93E
:102A6000D7F82801012800D10024D7F8200100B1AF
:102A70002C46CE49894500D12C4614F0FF4F11D089
:102A80004046C7F8E880414602F0B3FA20F0004023
:102A9000C74902F0DBFD22D2D7F8B80010F0FF4F93
:102AA00003D01CE0D7F8E800EDE7C6B14846C7F808
:102AB0001CB102F0E3FC04460E46284602F05CFD21
:102AC0000022BC4B02F030FC2246334602F0BAFB37
:102AD0000022B94B02F028FC02F092FD0446204689
:102AE000BDE8FC9F2DE9F04FABB04FF0000AA94FB5
:102AF000CDF810A0C03FCDF814A0CDF818A0044622
:102B0000D7F82011022003297DD0002620AD07EB45
:102B10008600D0F8A80002F08DFC6FF01D0102F0D5
:102B2000DEFA45F82600761C042EF0DB0FA807F02D
:102B30000BFF24A807F06CFF964B24AA183B0FA9A3
:102B40002046279300F0F4F9064604F1180007F038
:102B5000BDFF82099548D7F83031834200DB034638
:102B600031462046FFF708FFBB4607F1B806D7F805
:102B7000EC1002F044FA30600BA807F0E5FE13A950
:102B80000BA808F022FC83480FAA3C300BA906468C
:102B900008F062FA31460BA808F043FA00210DF163
:102BA0003C080DF14C090DF1100E002213461046A1
:102BB00001EB410C0CEB000759F8276008EB80078C
:102BC000401C7F680328C6FB0723F3DB900F40EA15
:102BD00083004EF82100491C0329E6DBDBF82001C5
:102BE0005F4600287DD05046CDF818A0404202F044
:102BF00021FC6FF01D09494602F071FA06F0A6FAB1
:102C0000D046564600E074E0CDE9000A0698CDF8BB
:102C100008A0404202F00EFC494602F060FA0AF0B9
:102C2000A3FB0390D7F8300141F2883190FBF1F01B
:102C30004FF0804A02F0FEFB28902990069802F09F
:102C4000F9FBDFF878B1594602F00BFA299902F046
:102C500008FA514602F005FA02F021FC4000069005
:102C6000DDF8A0A002F0E6FB594602F0C8F9514693
:102C700002F0C5F902F013FC069002F0DBFB4946B6
:102C800002F02DFA06F062FACDE9070609960698D9
:102C900002F0D0FB494602F022FA0AF065FB0A90E6
:102CA0001CAA694620A808F02FFA6A4607A91CA8A2
:102CB00008F02AFAD4F8BC00EA46002810DD002605
:102CC0001E215AF8260045F8260002F008FA02F004
:102CD000E6FB07EB8601761CC1F8A800042EEFDBAB
:102CE00000E00BE0D4F8BC004FF0FF3503280AD118
:102CF00006E0C7F820012BB0BDE8F08F069875E715
:102D000000F067FEF0B357F8A80F02F093FB4E46B1
:102D1000494602F0E4F91C90786802F08BFB3146DA
:102D200002F0DDF91D90B86802F084FB314602F034
:102D3000D6F91E90F86802F07DFB314602F0CFF91B
:102D40001F90B86FA83F0028D5D0D7F8B800294603
:102D5000A83702F0C4F906F0F9F91E2102F0BFF914
:102D600002F09DFBC7E90008C7F8088029463869CA
:102D700002F0B5F90AF0F8FA1E2102F0B0F902F0FB
:102D80008EFB00E01CE0F860D4F8C010A83F279844
:102D900044E00000480F00200000204100409C4516
:102DA00000004843000048420000C84340420F0072
:102DB0000E2DB23D000079400088B340E102374754
:102DC0002946D7F8B80002F08AF906F0BFF9CDE934
:102DD0000708CDF824802946D7F8B80002F07FF91B
:102DE0000AF0C2FA0A906A4607A920A808F08CF9EE
:102DF000684608F046FA002556461E2156F825007A
:102E000002F06DF902F04BFB07EB85016D1CC1F878
:102E1000A800042DF1DBD4F8C010279808F0ACFC12
:102E2000D7F8200100288FD0401E62E770B590F8D7
:102E3000B810664ACC064FF000034FF0030101D4EE
:102E4000C2E94813B0F82041E40509D4048EE40532
:102E500003D5B0F87440E40502D4C2E948131AE07F
:102E6000D2F8341139B1D0E93013C91A4FF47A735A
:102E7000B1FBF3F105E0D0F8B01044F62064A142B4
:102E800002DBC2F830110AE0D2F82C512944C2F812
:102E90002C11A14201DA002070BDC2E94B31FFF7CD
:102EA00021FEF8E710B54FF49C71484802F037F85E
:102EB000464C4FF080400021C4F8FC0044F8A80FB5
:102EC0004248A83008F058FC4FF47A7060674FF021
:102ED0007E50606410BD3D49C1F8EC000020704791
:102EE0003A49C1F82801002070473849C1F8340137
:102EF0000020704704224FF41671AFF2CF0008F0A3
:102F0000D1BAAFF2D70008F087BD10B5FFF7CAFFFE
:102F10002E490020C1F82801C1F83401AFF22B007E
:102F2000BDE8104008F046BBAFF2370008F09ABD8C
:102F30002DE9FF470C4625491546074699463C2290
:102F40000C31224801F0C4FF204950225831A1F130
:102F5000100001F0BDFF1D4E95E8070006F13C038F
:102F60001B4D83E807001ECC06F1980080E81E0088
:102F7000D6F82401401CC6F82401062802DD0620EC
:102F8000C6F82401C0F1060407F1A00818E006EB1A
:102F900004116A464846483108F05EF804EB4400E4
:102FA00006EB80016A46404607F062FB074625F0C3
:102FB000004120F0004002F03FFB00D23D46641C7F
:102FC000062CE4DB04B02846BDE8F087880E00201C
:102FD000002474491FB501461022684601F078FFAD
:102FE000F6489DE80E0080E80E00F5499DF80C00BB
:102FF00081F8B001002004B010BD1FB5EF490EC923
:103000008DE80E00EE49102291F8B0118DF80C10E9
:10301000694601F05DFF0020EDE72DE9F04F91B02A
:1030200000251821684601F07AFF0024182106A81F
:1030300001F075FFE249A046C14691F8C0010128A0
:103040007ED1D1F8B8B1D1F8B4A10022C2EBC20050
:1030500000EB4001DA4800EB810E9EF850000F9023
:10306000002863D000215EE05EF82130DDE90067D2
:103070006D1CD8170E939B197841CDE900300EEBEB
:103080008100EDB243690D93DDE9027CDE17DB19A7
:1030900046EB0C06CDE90236836ADDE9047CDE17D7
:1030A0000C93DB1946EB0C06CDE90436C06B0E9B86
:1030B000DDE9067C83FB0063360C46EA0346F6191D
:1030C0004CEB2343CDE906630D9BDDE9087C83FBD4
:1030D00000634FEA164646EA0346F6194CEB2343D3
:1030E000CDE908630C9BDDE90A7C83FB00634FEAB2
:1030F000164646EA0346F6194CEB2343CDE90A632C
:1031000080FB00634FEA164646EA034616EB0808C2
:1031100049EB23490444584501DA834602E050450F
:1031200000DD8246491C0F9888429DDC521C052A0E
:103130008CDBA348AAEB0B01D0F8BC01814200E074
:1031400053E052DBA5FB0872E01700260F9006FB48
:10315000082005FB09000E9084FB0410090C41EACD
:1031600000410014CDE90C0106A800EBC601D1E92D
:103170000002A0FB05BC02FB05C2002100FB012CE4
:10318000684600EBC601D1E90002A0FB043802FB4F
:1031900004820F9900FB0120190C0CAA41EA004996
:1031A0004FEA204A92E80B0087EA010283EA00080E
:1031B00052EA080212D07A1A63EB0003BBEB090053
:1031C0006CEB0A0C4FEA0C4141EA1041000401F09B
:1031D0001DFE7B4901EB8601C1F8A401761C032E7C
:1031E000C2DB7748012180F8B01111B00020BDE8A2
:1031F000F08FF8B5724D0E460446D5E96D01091AF7
:10320000052291FBF2F1301A90FBF1F0C0B28DF87B
:103210000000042801D92020F8BDC0EBC00000EB5D
:10322000400005EB800191F85000052816D0421CA3
:1032300081F850209DF80010C1EBC10101EB410164
:1032400005EB810202EB8001CE63236842F8203057
:1032500060684861A06888620020F8BD01F1400301
:10326000181F1022194601F033FE9DF800001022AD
:10327000C0EBC00000EB400005EB8000011D01F039
:1032800027FE9DF800001022C0EBC00000EB4000BC
:1032900005EB800000F11801143001F019FE9DF8D3
:1032A00000001022C0EBC00000EB400005EB8000E6
:1032B00000F12C01283001F00BFE0420BAE730B5F4
:1032C00085B0044603A9684607F0DAFB04A807F0B6
:1032D00087FC02282BD0D4F8E4000399401A38491F
:1032E00091F8B02112B308B3D1F8A421009C80FB5F
:1032F0000232150445EA134222440092D1F8A82173
:10330000019C80FB0232150445EA134222440192DB
:10331000D1F8AC11029A80FB0110030443EA11407A
:10332000104402900321684608F0C8FA0CE0606B74
:10333000032809D107F0B6FB30B168460399FFF7BF
:1033400058FF08B9FFF769FE05B0002030BD10B581
:103350004FF4E2711A4801F0E2FD19481949C0F82A
:10336000B4114FF4AA01C0F8B8114FF4A021C0F86D
:10337000BC11012180F8C011002010BD1049C1F816
:10338000B801002070470E49C1F8B4010020704711
:103390000B49C1F8BC010020704758B10849D1F869
:1033A000A4210260D1F8A8214260D1F8AC1181605B
:1033B00000207047052070472420704764110020CA
:1033C000C00F00200000D8FF20B12D4981F8C001B6
:1033D0000020704724207047294B93F8B101002842
:1033E00018D0D3E96D10401A052190FBF1F00020B0
:1033F000C0EBC00101EB410103EB810191F85020CA
:1034000022B1002100E0491C8A42FCDC401C052856
:10341000EEDB00207047082296211A4808F042B8D7
:10342000184808F0F9BA10B5FFF791FF4FF49A73F6
:1034300010221549154808F087F820B9AFF2290085
:1034400008F0B8F808B1012010BD0D49012081F83D
:10345000B101002010BD10B5094C94F8B10100284D
:1034600008D0084808F0D8FAAFF2550008F0FAFA88
:1034700008B1012010BD002084F8B10110BD00008A
:10348000C00F0020BF320008FB2F0008D52F000816
:10349000002803DDFE490122C1E920020020704717
:1034A00010B5B821FA4801F03AFDF948F949C16070
:1034B000F9498160F9490160F94941604FF0804163
:1034C00041664FF4FA61C167F649C0F89C100020CC
:1034D00010BD2DE9F041EE4C0E460746002521684F
:1034E00002F0B4F811D33846616802F0A5F80CD3A5
:1034F0002069012813D13046E16802F0A7F804D30F
:103500003046A16802F098F809D2606F20B9E0480F
:10351000A16D183008F030F90120C4E91D05D4E987
:103520001E01884204DB606F012800D1E5656567F4
:10353000BDE8F08170B50C46054607F00FFAD44A95
:10354000002110B9D848854202DD1161516102E0C5
:103550001069002808D1506920445061B0F5FA7F05
:1035600002DD0120C2E9040170BDF0B58DB00D4649
:1035700014460646694607F028FF09AA3146284640
:1035800007F06AFD2946304607F04BFD0021EC4666
:103590000DF1240E00231A46184601EB41073D1891
:1035A0000EEB80065CF825507668401CC5FB0632A1
:1035B0000328F4DB980F40EA820044F82100491CFC
:1035C0000329E7DB0DB0F0BDB1490020C1F88C0044
:1035D000704770B50446806801F02CFF014601F089
:1035E0000EFD0546606801F025FF014601F007FD6C
:1035F0000646206801F01EFF014601F000FD31463D
:1036000001F0A5FC294601F0A2FC09F097FFBDE8F6
:1036100070406FF00F0101F062BD70B50E460025DD
:103620009B4C012130B101280CD0C4F8981044F80B
:103630008C5F29E0C4F8A060C4E92965E4E9241599
:10364000A56070BD3046D4F8A01001F0D2FC20F087
:103650000040D4F89C1001F0EFFF13D254F8945FAF
:1036600031466D1C2560206901F071FC2061943C9D
:10367000312DE6DD022144F8901F8C4901F0F1FC68
:10368000A06170BD44F8905F656070BD2DE9FF4F8B
:103690008BB000267E4C0546039604960596D4F81A
:1036A00088009346374600287ED007F007FA10B10D
:1036B00003A807F0D7F9D4F88000A146002819DD47
:1036C00001204C46C9F8840007F0F8F948B103A876
:1036D00007F0FCF98009B0F5C87F02D2D4F8800069
:1036E00004E0D4F88000401BC4F88000002801DC0E
:1036F000C4F8847007F0B6FB002855D000240E985B
:1037000050F8240001F096FE82465BF8240001F098
:1037100091FE6FF00F08414601F0E1FC514601F0C7
:103720006EFC414601F0DBFC314601F010FC641CEC
:103730000646032CE3DB5846FFF74BFF0146069095
:10374000304601F08EFC4FF07E58DFF864A1404512
:1037500001DD404602E0504500D9504605F03CFAF4
:103760008346D9F88C004E4670B13168069801F056
:1037700063FF09D27168069801F068FF04D25946C8
:10378000D6F89000FFF749FF684607F013FA404962
:103790000C22AC31684601F0CDFB18B9D6F8980080
:1037A00001286CD13A4800E0C6E09DE80E00AC303C
:1037B00080E80E00009818B9019808B9029858B32B
:1037C0006846FFF706FF044610F0FF4F57D0DFF8BA
:1037D000E4902046494601F00CFC014601F00FFC44
:1037E00009F0ACFE70604946204601F0B0FB01468E
:1037F00001F005FC09F0A2FE3060029801F01AFE0B
:103800006FF00F0101F06BFC214601F02AFC044629
:1038100040451FDD444620E020483060204870606D
:10382000D6F89800012804D01B48B0601948F06011
:1038300025E0D6F89C80D6F8A8404146204601F005
:10384000D8FBB0604146204601F081FBC6F8987075
:10385000F06014E0544500D95446204605F0BCF908
:10386000D6F89C1001F0C5FBB060204605F0B4F915
:10387000D6F89C1001F06BFBC6F88C70F060DFF896
:103880001080F16D08F1580801BB0120002413E0FD
:10389000841100200000B4420000B4C20000704255
:1038A0000000F0417B142E3E00401C4600004842C0
:1038B000000080BF00002041F06506EB0410414687
:1038C000183007F07DF8641C042CF6DB434907AA86
:1038D0000C460C98FFF749FE21460C9807F0A1FB17
:1038E00003A807F0F3F801F0AEFD6FF0050101F059
:1038F000F6FB2946FFF71EFE59460698FFF7E9FD3D
:10390000D6E91E01884201DA2844B067706F90B989
:10391000306E28443066B0F57A7F0CDD2F493022B6
:103920003C39A1F11000376601F0D2FA2B4841462C
:103930001C3807F045F8706F0FB0BDE8F08F70B518
:1039400088B0044604A807F063F8D4E93001451AAA
:10395000684606F0F9FF064604AB04F1A00269468A
:103960002846FFF793FE07F017FF08B0304670BDFA
:1039700004224FF49671AFF2390007F093BDAFF215
:10398000410008F049B810B5FFF78AFD00280DD1B5
:10399000124800216438C0F88C100121C0F888104A
:1039A000AFF23300BDE8104007F004BE10BD10B503
:1039B000AFF2750008F030F8AFF27D00BDE81040BE
:1039C00008F02AB8054901206439C1F88C000020AC
:1039D000704702486438406F70470000E8110020CB
:1039E0002DE9F043044699B01D4691460E46806885
:1039F00001F020FD014601F002FB8046606801F005
:103A000019FD014601F0FBFA0746206801F012FD9E
:103A1000014601F0F4FA394601F099FA414601F005
:103A200096FA09F08BFD074620F000404FF08D41DB
:103A300001F00CFE7ED2306801F0FCFC6FF01D0836
:103A4000414601F04CFB0490706801F0F3FC4146E4
:103A500001F045FB0590B06801F0ECFC414601F037
:103A60003EFB0690F06801F0E5FC414601F037FBB3
:103A700000260C960790206801F0DCFC394601F026
:103A8000F0FA0D90606801F0D5FC394601F0E9FAD2
:103A90000E90A06801F0CEFC394601F0E2FA0F90DA
:103AA00010AA0CA904A807F02FFB14A904A807F07A
:103AB000C4FA6A4614A910A807F026FB0199084623
:103AC00001F09DFA02990446084601F098FA214651
:103AD00001F03DFAFE49884201DAFE4C0BE0FE4956
:103AE000884201DAFD4C06E0FD49884202DA4FF0D7
:103AF0007A5400E0FB4C484601F09CFCFA4901F086
:103B0000B0FA214601F07BFA044608962146029855
:103B100001F075FA09900198214680F0004001F00B
:103B20006EFACDE90A066A4604A908A807F0ECFA7D
:103B30006A4600E025E004A9104607F059FA6846F5
:103B400007F05DFB1E21009801F0C9FA01F0A7FC07
:103B500028601E21019801F0C2FA01F0A0FC686003
:103B60001E21029801F0BBFA01F099FCA8601E2109
:103B7000039801F0B4FA01F092FCE86019B0BDE8D6
:103B8000F08396E80F0085E80F00F7E72DE9F05F76
:103B900005460C46806801F04DFC014601F02FFA05
:103BA0000746686801F046FC014601F028FA06461F
:103BB000286801F03FFC014601F021FA314601F08E
:103BC000C6F9394601F0C3F909F0B8FC4FF07E5947
:103BD000002706464FF08048484505DCC4E90087C9
:103BE000A760E760BDE8F09FA86801F023FC3146BC
:103BF00001F037FA82460146484601F0FAF94FF4DF
:103C00000006B04200DA00204FF0FF3101F067FA01
:103C100009F094FC83464946504601F098F9B042B9
:103C200000DA00204FF0FF3101F059FA09F086FC6C
:103C30008246686801F0FEFB014601F0E0F90646A5
:103C4000286801F0F7FB014601F0D9F9314601F08F
:103C50007EF909F073FC06464845BFDD1E2150463B
:103C600001F03DFA01F01BFC2060686801F0E2FB06
:103C7000314601F0F6F9594601F0C1F91E2101F073
:103C80002EFA01F00CFC6060286801F0D3FB31468D
:103C900001F0E7F9594601F0B2F9944901F0AFF9A2
:103CA00001F0FDFBC4E902079CE72DE9F041054660
:103CB0000C46C06801F0BEFB014601F0A0F9804649
:103CC000A86801F0B7FB014601F099F9074668685A
:103CD00001F0B0FB014601F092F90646286801F0B8
:103CE000A9FB014601F08BF9314601F030F9394664
:103CF00001F02DF9414601F02AF9B0F5000F06DA7E
:103D00004FF08040206000206060A0602DE009F04E
:103D100015FC01464FF07E5001F0A3F91E2101F081
:103D2000DEF90646286801F085FB314601F067F9A7
:103D300001F0B5FB2060686801F07CFB314601F0C2
:103D40005EF901F0ACFB6060A86801F073FB3146DE
:103D500001F055F901F0A3FBA060E86801F06AFBEF
:103D6000314601F04CF901F09AFBE060BDE8F081CA
:103D700070B5044690F8300088B0400676D5A0694A
:103D8000002801DB014600E041424FF4803200266A
:103D9000574D91420BDAE169002900DA494291421C
:103DA00005DA216A002900DA4942914260DB0028E5
:103DB00000DA40424FF4C80188420BDCE069002879
:103DC00000DA4042884205DC206A002800DA4042DE
:103DD000884201DD032000E00220A863696BA06A2D
:103DE000814219D06863A06A01F024FB414901F0C7
:103DF00038F91D2101F073F901F0BEFB3E4A3F4B3B
:103E000001F020FA082201F0FEFA00223C4B01F0FA
:103E10008BFA01F092FB28630496296BA06907F0E6
:103E2000C6F80590296BE06907F0C1F80690296B88
:103E3000206A07F0BCF807906A4604A92C4807F0EE
:103E40000BF900982A4A8001009001986946800188
:103E5000019002988001029003988001039010461F
:103E600007F0B4F822490846FFF71FFF08B070BDFD
:103E7000AE63FBE72DE9F0430446D0F820018FB094
:103E800041067CD51A4DD4F810111E4B2A68891AA8
:103E9000D4F82C215A438A4201DA032100E002219E
:103EA000A963810504F58870804601D51049D4E0E6
:103EB000002104A806F0E4FD0D490C223C3104A8C1
:103EC00001F038F808BBD4F82801A96D88421BE03E
:103ED00017B75139A69BC43B0AD7233C8FC2753D07
:103EE000CDCC4C3ECDCCCC3E0014CD47000080CE96
:103EF0003C12002000247449112D4454FB21094038
:103F00000080664071981C007ED0208807AB80B28C
:103F100004AA616A06F0F5FB099801F08BFA0146E4
:103F200001F06DF80746089801F084FA014601F0A7
:103F300066F80646079801F07DFA014601F05FF841
:103F4000314601F004F8394601F001F809F0F6FABB
:103F50000646E84901F053F8E74901F082F86FF0AE
:103F60000F0101F0BCF80746D4F8280101F062FA0D
:103F7000394601F044F8E14901F073F800E06EE0E1
:103F80004FF0FF3101F0ABF8074605F0DFF881464E
:103F9000384609F0E9F907464FF08040864204DAD6
:103FA000A8640020E864286533E01E21484601F03B
:103FB00096F801F074FAA864079801F03BFA81467C
:103FC000CF49384601F01BF80746494601F017F87B
:103FD000314601F046F801F062FAE864089801F011
:103FE00029FA0146384601F00AF8314601F039F85D
:103FF00001F055FA2865099801F01CFA0146384687
:1040000000F0FDFF314600E00EE001F02AF801F07B
:1040100046FA04AB686593E8070005F13C0383E8C2
:104020000700D4F82801A8656A46B649404607F05B
:1040300013F8B4480AAA14306946044607F00CF88D
:104040002146404606F0EDFFAE486A460AA94838C8
:1040500007F002F8AB4968464839FFF726FE0FB073
:104060008DE51FB50446A7486946483806F0D9FFD4
:10407000A44A6946283A204606F0EEFFA1491DCC25
:10408000383981E81D001FBD2DE9F0479D4E0446DB
:10409000483E90F8740006F15C0A06F120080125FC
:1040A00000F05001103692B004F5887904F15C07F5
:1040B000402906D094F8200100F0500040280DD08F
:1040C0001EE031463846FFF761FDB4F82001C00517
:1040D0000CD55146484606F0A4FF07E05146484635
:1040E00006F09FFFB4F87400C00509D585486946FD
:1040F000483806F096FF42466946304606F0ACFF67
:10410000B4F82001C005204602D5FFF7B3FE01E058
:10411000FFF72EFE7B4932464839404606F09CFFA9
:1041200094F87400400671D5208EB4F8201108432D
:10413000C00578D50FAA3946304607F027F9D4E9EB
:10414000172080FB0001C2FB0201626E6D4FC2FBB3
:104150000201483F4FF08042801A71F1020014DBE7
:1041600004A806F0EBFCDDE9042080FB0001C2FBA3
:104170000201069AC2FB02014FF08042801A71F1DF
:10418000020002DB0420B8630BE0B86B042808D0FF
:1041900041F28832022806D0032804D001283AD000
:1041A00009E0002507E0E16E91FBF2F5012D00DA50
:1041B0000125032800D0AD00534800244543109842
:1041C00007948002294606F0F2FE08900F982946CF
:1041D0004042800206F0EBFECDE909040BAA31460D
:1041E00007A806F039FF32460BA9104606F0EEFE8E
:1041F00031460846FFF759FD42486946483806F0FF
:1042000010FF42466946304606F026FF12B00020F5
:10421000BDE8F08707E0E06E90FBF2F0012800DADD
:1042200001204500C7E7334619463846E26EFFF7DE
:10423000D7FBE1E770B50446008EC105D4F8200134
:1042400007D4B4F87410C90503D4C10501D4002003
:1042500070BDC0F30120032808D02046FFF714FFEB
:104260002848A16B383807F0C7FBF0E704F58871E0
:1042700024482EC9383880E82E00F1E7234807F09B
:10428000CBBB204810B56C21483800F048FE1D48D3
:104290004FF080414838016101600162C163C1652E
:1042A000002010BD1D4810B5082219A1006800F0BB
:1042B00041FE08B1322010BD1322BDE81040C821D4
:1042C000124807F0EFB810B5FFF7DBFF002805D163
:1042D000AFF22F00BDE8104007F06CB910BD10B56B
:1042E0000A4807F099FBAFF24300BDE8104007F021
:1042F000B9BB0000DB0F494000003443002474497F
:10430000000080CE84120020A69BC4003542000825
:10431000654D504C20352E3100000000200000205B
:1043200010B5FE4BFE4AFF4C002002EB8001401C02
:10433000C0B2CC620B620328F7D310BD70B5F84E43
:10434000002506EB8504D4F8B410206A01F074F956
:1043500002D2D4F8B4002062D4F8B410E06A01F0BC
:1043600075F902D2D4F8B400E0626D1CEDB2032DF1
:10437000E7D370BD3EB50B46B0F848100904009174
:10438000B0F84A10009A09040191B0F84C100904E1
:104390000291E3494C6E121B0092019A8C6E121B23
:1043A0000192029AC96E511A0291816EB0F84400CE
:1043B0006A4680B206F0A5F93EBDF0B5D84F00249C
:1043C0002546D7F894208DB02E46012A01D1C7F892
:1043D000946009A9FFF7CEFF05A806F019FB05991F
:1043E00009986022A0EBA130099006990A98A0EBE9
:1043F000A1300A9007990B98A0EBA130CA490B9005
:10440000081F00F065FD0DF1240CC7489CE80E0064
:10441000143080E80E00684606F090FBC249602226
:104420006C31081F00F054FDBF489DE80E0080303D
:1044300080E80E0000210922D7F82C04401CC7F8A0
:104440002C0401EB410007EB8000DDF800C0D0F840
:104450004C33491C93FBF2F31C44D0F85033092928
:1044600093FBF2F31D44D0F8543393FBF2F31E4454
:10447000D0F8B83393FBF2F363440093D0F8BC3325
:10448000DDF804C093FBF2F363440193D0F8C0035A
:10449000029B90FBF2F018440290CDDB002C00DA76
:1044A0006442002D00DA6D42002E00DA7642009858
:1044B000002800DA404200900198002800DA4042CB
:1044C00001900298002800DA4042029000990020F2
:1044D0008C4200DA012001998D4200DA401C0299D9
:1044E0008E4200DA401CD7F82C14092900DB401C4E
:1044F00004280DD197F8240402280BD901468848D6
:10450000D7F82824643007F0C1F8012007F0B8F884
:104510000DB0F0BD07F0A6F8FAE72DE9F047804DA1
:104520000027DFF8088285F82474DFF80492DFF8AA
:1045300004A206463C46C5F8287405EB8400E96BE6
:10454000D0F8CC0001F082F818D8D5E91401002287
:10455000534600F071FE21F0004142464B4601F007
:104560001FF80BD295F82404401C85F82404012080
:10457000D5F82814A0400143C5F82814641CE4B2FF
:10458000032CDAD395F8240480B3002406EBC4008E
:10459000D0E90021104600F0D0FF05EB8401641C37
:1045A000E4B24866032CF1D3C5F82C74A86804283B
:1045B00002DA95F82404A86095F82404032815D19C
:1045C0005D49E868884211DCD5E9140100225346B0
:1045D00000F032FE21F0004142464B4600F0E0FF81
:1045E00004D2A868032801D10420A860534928698F
:1045F000884215DA5249E868884211DCD5E914018D
:104600000022534600F018FE21F000414D4A4E4B67
:1046100000F0C6FF04D2A868042801D10520A860D4
:10462000BDE8F0872DE9F0413D4C0746D4F8A404DD
:10463000012803D000252846BDE8F08143494FF00A
:104640007E52A1F1E80013460646FBF7A5FE344A68
:104650003046503202F5AC71FCF7AAF80500EAD0FA
:104660006068401C6060D4E9140100F066FFB96E18
:1046700006F09DFC00F0DEFE6FF00F0100F02FFD54
:1046800000F07AFFC4E91401D4E96A0100F055FF93
:10469000A065D4E96C0100F050FFE065D4E96E013B
:1046A00000F04BFF2066D4E968010022284B00F09F
:1046B0008FFFC0D2274A314613460846FBF76CFEEF
:1046C000B9E72DE9F04104460025D4E903010126AC
:1046D000022700F0BBFF10D26169E06800F0B6FF6E
:1046E0000BD22564D4E9040100F0B0FF02D8C4E97C
:1046F0001167A1E7C4E911769EE7D4E9031000F041
:10470000A5FF2FD2D4E9040100F0A0FF2AD226642D
:104710006169E06800F09AFF21D81DE000401CC6E6
:10472000A812002000401C46F81500209A9999997B
:104730009999B93F0000F03FAE47E13D00007A4350
:10474000BC74933C9CC420B07268913F70140020EC
:104750000070A740CDCCCC3EC4E911576CE7C4E94A
:10476000117569E72764D4E9030100F06FFF02D8EF
:10477000C4E9115660E7C4E911655DE700221146FE
:10478000C26440F8212000EB8103491C5A620329CE
:10479000F7DB0121C0E91D12704730B50446142033
:1047A000A0650A202066002584F870502046FFF797
:1047B000E5FF656530BD2DE9F04387B06946FFF739
:1047C000D9FD00252E462C46E8466FF00F0903AFB1
:1047D00058F8240000F02EFE494600F080FC47F80F
:1047E0002400014600F00BFC00F0C6FE2A463346CA
:1047F00000F081FC641C05460E46032CE8DB08F043
:1048000077FEDFF8B48505460E460024B94659F810
:10481000240000F0B1FE2A46334600F085FD00F08A
:10482000EFFE08EB8407D7F8301400F090FB641C0F
:10483000C7F83004032CEADBD8F88414491CC8F804
:1048400084140121C8F8AC1407B0BDE8F0832DE949
:10485000F04186B0054604AA03A9684606F0D8FAD6
:10486000002637463446E84658F82400014600F052
:10487000C6FB00F081FE32463B4600F03CFC641C67
:1048800006460F46032CEFDB08F032FE06460F46C5
:10489000002458F8240000F06FFE32463B4600F03A
:1048A00043FD00F0ADFE55F8241000F050FB45F834
:1048B0002400641C032CECDB686D401C686501203F
:1048C000E86706B0B8E62DE9F05F0025DFF8ECA454
:1048D00004464FF07E5BA846206D00F0ABFD01461C
:1048E00054F8250000F0BDFB04EB85060746B169CE
:1048F000514501D381F00041574501D2384601E0CE
:1049000087F0004000F075FBB7613063D4F83C904D
:104910005946484600F06DFB716A00F070FB39465D
:1049200000F015FB494600F09CFB7062504501D336
:1049300080F00040F06044F825806D1C032DCBDB37
:104940002046FFF7BEFEE06CB0F57A7F01DA401C2E
:10495000E06494F87010042603270125206C4FF0C2
:10496000050A06290AD2DFE801F0030B142A4E32A9
:104970006567C4F84C80A56784F87050BDE8F09F67
:10498000E06F0128FAD1022084F87000C4F8788022
:10499000F4E704EB8009616ED9F80C0000F056FED4
:1049A00003D884F8706040462AE0A16ED9F80C0064
:1049B00000F042FE2ED81BE06567A567DEE704EB3A
:1049C0008000616EC06800F041FED7D8E9E704EBD3
:1049D0008009A16ED9F80C0000F02EFE08D9F84924
:1049E000D9F83000884206D9216EE06C8842C5DBD8
:1049F00084F87070E0E784F870604046C4F84C803A
:104A00006067A067BAE704EB8000E16EC06800F061
:104A100013FEB3D884F870A0C4F84C80CCE710B56E
:104A2000044600F007FDE74900F0E9FAE64900F026
:104A300018FB4FF0FF3100F052FB00F09DFD04F039
:104A400037FB1E2200F0DFFC00F077FDDA49C1E9F8
:104A5000204010BD2DE9F04F91B00025044600958F
:104A600001950295C06E44F62061D34E884206DB64
:104A7000D6F88010884210D0FFF7D1FF0DE0D6F8AD
:104A800048231044C6F8480388427DDBE16E81422A
:104A900001D0FFF7C4FFC6F84853206BC6F8B00436
:104AA0002046FFF788FE06F5906003C8814204DBCC
:104AB000C648FFF708FFC6F88454D6F8A8040128B2
:104AC00002D12046FFF779FCD6F8A40401285BD177
:104AD000684606F051F80299084600F090FA0199EC
:104AE0008046084600F08BFA00990746084600F019
:104AF00086FA394600F02BFA414600F028FA08F011
:104B00001DFD0E21F06000F0EAFA00F0C8FCADF8DF
:104B10001C00AF49A946ADF81E50ADF8205007A8BB
:104B20000991FDF7E1FB03A806F062F8316F0398E5
:104B300006F03DFA0546716F049806F038FA054410
:104B4000B16F059806F033FA0544F16F069806F048
:104B50002EFA05EB000803AF002597E80F0006F1D9
:104B600070070DF1340A87E80F000DF1280B04EBF4
:104B70004507A16E37F8480F000406F018FA4AF806
:104B8000250000F057FC00E098E06FF00F0100F006
:104B9000A6FA06EB85014861388801044BF8251018
:104BA0006D1CEDB2032DE2D389480AA9E838074607
:104BB000FBF785FCD6F82813306881427EDBD4F8F9
:104BC000E40000F037FC6FF00F0100F088FAD6F82F
:104BD000D810054611F0FF4F06D0284600F009FA1C
:104BE00020F00040C6F8DC00C6F8D850B0680628AF
:104BF00011D2DFE800F0030303030A1A7548B0631B
:104C00004FF07E50F063C82004E07348B0637348EF
:104C1000F06364203064208EC00509980BD4FDF742
:104C200077FA00F015FC68490AE06D48B0636D48FA
:104C3000F0633220EEE7FDF7CCF900F009FC6A4999
:104C400000F00FFA30619821099800F068F9D6F861
:104C5000841041453BDA3069B0F5000F37DBB16BAA
:104C600000F0EAFC33D2316C7068884205DA2046E5
:104C7000FFF7D8FC002852D00BE05C49D6F8B00012
:104C8000884206DB2046FFF7CDFC002847D0C6F857
:104C90000490002006EB8001401C4A69C0B2C1F8B4
:104CA000B4200328F6D3FFF749FB002406EB840564
:104CB000E96A286A00F09DF9641C00E02EE0E4B285
:104CC000C5F8CC00032CF1D34948FFF726FC00249B
:104CD00006EB84056969D5F8980000F08AF9641C30
:104CE00020F00040E4B2C5F8A400032CF0D3F6E9AC
:104CF000290100F02CF9B16800F029F9F0600020DA
:104D0000A43E06EB8001401C4A69C0B2C1F898205D
:104D10000328F6D3E821384600F001F9002011B04D
:104D2000BDE8F08F10B54FF49761234800F0F7F815
:104D3000214C0A20206040072067FFF7F1FA234842
:104D4000FFF72BFD2068C4F880044FF08440C4F8BE
:104D50006C041E20C4F88C042648C4F89804264825
:104D6000C4F894042548C4F89C041920FDF769FD93
:104D7000002010BD012240F25231AFF2273006F080
:104D800091BBAFF22F3006F047BE10B5FFF7CAFF58
:104D9000002805D1AFF22300BDE8104006F00ABCA0
:104DA00010BD10B5AFF2533006F036FEAFF23B0047
:104DB000BDE8104006F056BEA8120020000080801A
:104DC000CDCC4CBD368D274000247449D816002028
:104DD000581500200080BB44000096439A99993FE3
:104DE000000070423333B33F0050C347CDCC4C3D3D
:104DF00050140020CDCCCC3ECDCC4C3F3333333F90
:104E00000148806870470000A81200202DE9F04199
:104E10000024061B254671F1000605DA012400274F
:104E2000D0EB070067EB0101161E73F1000605DAEF
:104E30000027D2EB0702012567EB030300F026FCF5
:104E400086460E4617469C46AC4204D00025D0EB61
:104E5000050E65EB010624B10020D2EB000760EBE4
:104E6000030C704631463A466346BDE8F081202A7D
:104E700004DB203A00FA02F1002070479140C2F1B1
:104E8000200320FA03F3194390407047202A04DBE3
:104E9000203A21FA02F00021704721FA02F3D040B3
:104EA000C2F120029140084319467047202A06DBD0
:104EB000CB17203A41FA02F043EAE07306E041FAE8
:104EC00002F3D040C2F120029140084319467047D6
:104ED00010B5431A934209D28318881803E010F8DA
:104EE000011D03F8011D521EF9D210BD40EA010355
:104EF0009B0703D009E008C9121F08C0042AFAD290
:104F000003E011F8013B00F8013B521EF9D210BD3D
:104F1000D2B201E000F8012B491EFBD270470022FB
:104F2000F6E710B513460A4604461946FFF7F0FFA8
:104F3000204610BD30B504460020034600E05B1C4F
:104F4000934203D2E05CCD5C401BF8D030BDF0B49E
:104F500080EA0102D40F4200B2EB410F02D20246B6
:104F6000084611464A0042D0C30DDDB2C1F3C75214
:104F7000AD1A202D35DAC1F3160141F4000204B157
:104F80005242C5F1200602FA06F12A411044B3EB61
:104F9000D05F23D0C4B1012DA0EBC35009DCF0BC1D
:104FA0004FF0004202EAC352DBB200F5000000F00D
:104FB000A7BB400000F1807000EBC350A0F18070EF
:104FC00040EAD170490009E0490841EAC071A0EB0C
:104FD000C35000F50000400800EBC350F0BC00F0E7
:104FE00086BB6142012202EB4101001BF6E7F0BCE7
:104FF000704781F00041AAE780F00040A7E780EA0F
:10500000010210B502F00043400022D04A001FD038
:10501000010E01EB1261C0F35600C2F3560240F4D8
:10502000000042F40002A0FB022000047F391404B7
:1050300000D0401C50EA124001D44000491EC2B2C8
:105040000C0604EBD010401C4008802A02D003E07C
:10505000002010BD20F00100002900DA00201843D4
:1050600010BD30B480EA010202F0004530F0004289
:1050700021F0004013D090B1C30DD40DC2F316013E
:10508000C0F31600E41A41F4000140F400027D343C
:10509000914201D3641C00E04900002C02DA30BCCC
:1050A000002070474FF400000023914201D3891A79
:1050B000034340084FEA4101F7D151B1914202D177
:1050C0004FF0004105E002D24FF0010101E06FF026
:1050D000010103EBC450284430BC00F008BB42007F
:1050E00005D0C0F3C7525242914201DC0020704704
:1050F00000EBC15070472DE9FE4F804681EA030066
:10510000C00F0C46009021F0004123F00045B8EBA1
:105110000200A94105D24046214690461C460B4656
:10512000024623F00040104347D0270DC7F30A0082
:10513000C3F30A510290401A019040286BDAC3F37E
:10514000130040F4801B0098924620B10023D2EB5C
:10515000030A63EB0B0B01985946C0F1400250461D
:10516000FFF785FE06460D4650465946019AFFF761
:105170009DFE10EB08006141002487EA115284EA89
:10518000E7731A4340D0009A62B3019A012A4FEAAA
:10519000075215DC001B61EB02014FF0004202EAEE
:1051A0000752CDE90042001C41F5801132462B46E2
:1051B00000F030FB03B0BDE8F08F40462146F9E730
:1051C000001B61EB0201001C41F5801300185B41DC
:1051D0002018A2F5001747EB030140EAD570B61975
:1051E0006D4111E06D084FEA360645EAC0754FEA99
:1051F0000752001B61EB0201001C41F580114908B8
:105200004FEA30000019514132462B4603B0BDE849
:10521000F04F00F0F0BA0098012240000023D0EBDC
:10522000020263EBE073009821464FEAE074B8EBAA
:10523000000061EB0401E9E783F000435BE781F0E4
:10524000004158E72DE9FE4F81EA030404F00044D1
:1052500021F0004100944FF0000B23F0004350EA8E
:1052600001045ED052EA03045BD0C3F30A54C1F3D5
:105270000A552C44A4F2F3340194A0FB0254C1F368
:10528000130141F48011C3F3130343F4801301FBB2
:10529000024400FB034E840A970A44EA815447EA19
:1052A0008357A4FB076802958D0A05FB07854FEA23
:1052B000932C04FB0C542705029D4FEA065847EA3D
:1052C0001637B5EB08056EEB070C870E920E47EA12
:1052D000811742EA8312A7FB0201B6EB0B0164EBD4
:1052E00000042B0D43EA0C335E1844EB1C50DA46E5
:1052F0005146E7FB0201C5F313044FEA0B3343EABF
:1053000014534FEA0432019C43EA0603A4F10C044F
:105310000294009CCDE900B400F07CFA03B0BDE833
:10532000F08F00200146F9E72DE9F04D81EA0304F2
:1053300004F0004B21F0004514464FF0000A23F022
:10534000004150EA050220D054EA01021DD0C5F305
:105350000A570246C5F31303C1F31300C1F30A56FB
:1053600040F4801543F48013A7EB0608101BD646C3
:1053700008F2FD3873EB050002D308F1010801E0E3
:1053800092185B41B8F1000F03DA00200146BDE836
:10539000F08D00204FF48011064684460EE0171B66
:1053A00073EB050705D3121B63EB050306434CEAB9
:1053B000010C49084FEA300092185B4150EA01079E
:1053C000EDD152EA030012D082EA040083EA05011B
:1053D000084305D0101BAB4106D20122002306E092
:1053E00000224FF0004302E06FF0010253101AEB6D
:1053F00006004CEB085110EB0A0041EB0B01BDE835
:10540000F04D00F0F8B970B521F0004303430CD023
:10541000C1F30A550024D5EB040564EB0403D61749
:10542000AD1AB34102DB0020014670BD201841EBEC
:10543000025170BDC10F80EAE0700844CA0796238C
:10544000002100F05DB996230022114600F058B902
:10545000F0B4CA17CB0F50405140C61841F10005B7
:105460004FEAC372314628004FF0960303D0B623AB
:10547000F0BC00F045B930460021F9E70EB5C10F88
:1054800080EAE0700844CA07002140F233438DE807
:105490000E000A460B4600F0BDF903B000BD00F057
:1054A000004220F00040C10DC0F3160040F400009F
:1054B0007F2901DA00207047962903DCC1F19601AB
:1054C000C84001E096398840002AF4D04042704735
:1054D00020F00040C10DC0F3160040F400007F2909
:1054E00001DA00207047962903DCC1F19601C8401B
:1054F000704796398840704710B500F0004420F09E
:105500000040C20DC0F3160040F400007F2A02DA0A
:105510000020014610BD0021962A03DCC2F196024C
:10552000D04002E0963AFFF7A2FC002CF2D0002314
:10553000D0EB030063EB010110BD70B5C1F30A525B
:1055400001F000450024C1F3130140F2FF3341F4A0
:1055500080119A4201DA002070BD40F233439A4232
:10556000A2F2334203DC5242FFF790FC00E090408D
:105570002C43F1D0404270BD00F0004230F00040BA
:105580000AD0C10D01F56071C0F3160042EA015165
:10559000C2084007114370470020014670470000D1
:1055A00030B5041E71F1000404DB4FF000444042AA
:1055B00064EB0101141E73F1000405DB1C464FF07F
:1055C0000043524263EB04038B4208BF824230BD6A
:1055D00030B5041E71F1000404DB4FF0004440427A
:1055E00064EB0101141E73F1000405DB1C464FF04F
:1055F0000043524263EB0403994208BF904230BD1E
:1056000001F0004330B421F0004150EA010206D01D
:105610000A0DA2F56072C1F31301002A02DC30BC4E
:1056200000207047440F44EAC104C100E01830BCB8
:1056300000EBC25000F05BB8002801DBC0F1004075
:10564000002901DBC1F1004181427047002801DBE4
:10565000C0F10040002901DBC1F1004188427047E0
:1056600030B50B46014600202022012409E021FA32
:1056700002F59D4205D303FA02F5491B04FA02F52F
:105680002844151EA2F10102F1DC30BD2DE9F05FC6
:105690000546002092469B468846064681464024A1
:1056A0001BE02846414647462246FFF7EFFB53469C
:1056B0005A46C01A914110D3114618462246FFF7A8
:1056C000D6FB2D1A67EB01084F4622460120002128
:1056D000FFF7CDFB17EB00094E41201EA4F101049A
:1056E000DFDC484631462A464346BDE8F09F0029A4
:1056F000A8BF7047401C490008BF20F00100704758
:1057000010B4B0FA80FC00FA0CF050EA010404BFB7
:1057100010BC704749B1CCF1200421FA04F411FA0D
:105720000CF118BF012121430843A3EB0C01CB1D51
:105730004FEA00614FEA102042BF002010BC7047C2
:1057400000EBC35010440029A4BF10BC7047401C9C
:10575000490008BF20F0010010BC7047F0B40028D9
:1057600002DCF0BC00207047C0F3C751C0F3160044
:1057700040F40000CA0701D14000491E3F2202EB5D
:105780006105002211464FF4000626FA01F3134486
:10579000D418844201D8001B1A464000491C17291E
:1057A000F3DD5100814202D24FF0FF3100E00021D1
:1057B00002EBC550F0BCFFF79ABF10B541000CD00A
:1057C000C0F3C751962908DC7E2909DC06DB4102BB
:1057D00004D000F0004040F07E5010BD002010BD0D
:1057E000C1F19604C4F1200100FA01F1E040FFF795
:1057F0007EFFA04010BD10B5141E73F1000408DA3E
:10580000401C41F1000192185B411A4301D120F084
:10581000010010BD2DE9F04D92469B4611B1B1FA41
:1058200081F202E0B0FA80F220329046FFF71FFBCF
:1058300004460F4640EA0A0041EA0B0153465A4625
:10584000084313D0114653EA010019D0C8F14002B1
:105850005046FFF71BFB05460E465046594642464A
:10586000FFF705FB084305D0012004E02046394638
:10587000BDE8F08D0020054346EAE0762C4337432F
:105880000A986305E40AA0EB08000022FD0A44EA36
:1058900047540A3002D500200146E9E701051019F6
:1058A0006941DDE9084500196941BDE8F04DA2E70D
:1058B0002DE9F04D00231A461B1A8A4103DB002014
:1058C0000146BDE8F08DC1F30A52C1F3130141F462
:1058D00080154FF0000BD10702D100186D41521E08
:1058E0000027044640F2FF11384601EB620A3E46AB
:1058F0008046024600204FF48011FFF7C7FAC21914
:105900007141BB1846EB0100B4EB030C75EB000CC6
:1059100004D3E41A65EB000517460E46241908F176
:1059200001006D4180463428E3DDF91946EB06009D
:10593000091BA84103D24FF0FF32134601E00022B9
:1059400013461BEB070046EB0A51BDE8F04DFFF78D
:1059500052BFC1F30A52C1F3130140F2FF3341F4C5
:1059600080119A4202DA00200146704740F2334328
:105970009A42A2F2334202DC5242FFF787BAFFF7A3
:1059800076BA0000064C074D06E0E06840F00103DF
:1059900094E8070098471034AC42F6D3FAF7AAFB14
:1059A000E8F0000808F100080EB540F2334102911A
:1059B0000021CDE900110A460B46FFF72BFF03B08B
:1059C00000BDFEE77047704770B5044600F00EF961
:1059D0000546B4F1FF3F02D004480078044400F0CB
:1059E00005F9401BA042FAD370BD000074000020EE
:1059F0002DE9F84F4FF0000C00230A68002A7DD0F3
:105A0000DFF8DC810F2708F1040909F1040A0AF123
:105A1000040B012202FA0CF60A683240B2426ED13F
:105A2000DFF8C0E14C68A4EB0E0574452BD00DDC0B
:105A3000032C34D005DC34B3012C19D0022C2FD127
:105A40001BE0112C16D0122C2AD119E0B5F5881FB5
:105A500019D006DCB5F5803F15D0B5F5801F1FD1F4
:105A600011E0B5F5001F0ED0B5F5041F18D10AE0FE
:105A7000CB6815E0CB681B1D12E0CB6808330FE044
:105A8000CB680C330CE08B6823B1012B04D00823C6
:105A9000466105E0042303E00823066100E00023DB
:105AA000B2F5807F01D2054601E000F1040502D283
:105AB0004FEA8C0403E0ACF108044FEA84042E683A
:105AC00007FA04FE26EA0E0603FA04F446EA040482
:105AD0002C604C6814F0805F79D0434CA56945F088
