:020000040800F2
:10000000D8170020010100082F2500082120000832
:100010002D25000803070008C34000080000000069
:100020000000000000000000000000009D28000803
:10003000A507000800000000452800089F280008C8
:100040001B0100081B0100081B0100081B01000820
:100050001B0100081B0100081B0100081B01000810
:100060001B0100081B0100081B0100081B01000800
:100070001B0100081B0100081B0100081B010008F0
:100080001B0100081B0100081B0100081B010008E0
:100090004D4000081B0100081B0100081B0100085F
:1000A0001B0100081B0100081B0100081B010008C0
:1000B0001B0100081B0100081B0100081B010008B0
:1000C0001B0100081B0100081B0100081B010008A0
:1000D0001B0100081B0100081B0100081B01000890
:1000E0001B0100081B0100081B010008DFF80CD0F1
:1000F00000F04CFA00480047D1490008D81700200A
:100100000648804706480047FEE7FEE7FEE7FEE7B1
:10011000FEE7FEE7FEE7FEE7FEE7FEE7032900084D
:10012000ED000008202A04DB203A21FA02F0002129
:10013000704721FA02F3D040C2F1200291400843F7
:100140001946704740EA01039B0703D009E008C93C
:10015000121F08C0042AFAD203E011F8013B00F88C
:10016000013B521EF9D27047D2B201E000F8012BD8
:10017000491EFBD270470022F6E710B513460A4627
:1001800004461946FFF7F0FF204610BD30B50B4678
:10019000014600202022012409E021FA02F59D42B7
:1001A00005D303FA02F5491B04FA02F52844151E8B
:1001B000A2F10102F1DC30BD2DE9F05F054600201F
:1001C00092469B4688460646814640241BE02846C8
:1001D000414647462246FFF7A5FF53465A46C01AF6
:1001E000914110D311461846224600F0E1F92D1A2C
:1001F00067EB01084F4622460120002100F0D8F9A4
:1002000017EB00094E41201EA4F10104DFDC484633
:1002100031462A464346BDE8F09F2DE9FE4F804611
:1002200081EA0300C00F0C46009021F0004123F04A
:100230000045B8EB0200A94105D240462146904650
:100240001C460B46024623F00040104347D0270DC2
:10025000C7F30A00C3F30A510290401A01904028E4
:100260006BDAC3F3130040F4801B0098924620B170
:100270000023D2EB030A63EB0B0B01985946C0F144
:100280004002504600F094F906460D465046594645
:10029000019A00F09CF910EB08006141002487EA04
:1002A000115284EAE7731A4340D0009A62B3019A6C
:1002B000012A4FEA075215DC001B61EB02014FF0E7
:1002C000004202EA0752CDE90042001C41F58011CC
:1002D00032462B4600F09CF903B0BDE8F08F404653
:1002E0002146F9E7001B61EB0201001C41F5801378
:1002F00000185B412018A2F5001747EB030140EA04
:10030000D570B6196D4111E06D084FEA360645EA21
:10031000C0754FEA0752001B61EB0201001C41F55A
:10032000801149084FEA30000019514132462B46EE
:1003300003B0BDE8F04F00F05CB900980122400026
:100340000023D0EB020263EBE073009821464FEAF2
:10035000E074B8EB000061EB0401E9E783F00043CF
:100360005BE781F0004158E72DE9FE4F81EA030485
:1003700004F0004421F0004100944FF0000B23F002
:10038000004350EA01045ED052EA03045BD0C3F399
:100390000A54C1F30A552C44A4F2F3340194A0FB8F
:1003A0000254C1F3130141F48011C3F3130343F466
:1003B000801301FB024400FB034E840A970A44EABF
:1003C000815447EA8357A4FB076802958D0A05FB11
:1003D00007854FEA932C04FB0C542705029D4FEA36
:1003E000065847EA1637B5EB08056EEB070C870E83
:1003F000920E47EA811742EA8312A7FB0201B6EB8D
:100400000B0164EB00042B0D43EA0C335E1844EB44
:100410001C50DA465146E7FB0201C5F313044FEACC
:100420000B3343EA14534FEA0432019C43EA0603B8
:10043000A4F10C040294009CCDE900B400F0E8F8AB
:1004400003B0BDE8F08F00200146F9E72DE9F04D3B
:1004500081EA030404F0004B21F0004514464FF0FC
:10046000000A23F0004150EA050220D054EA0102BC
:100470001DD0C5F30A570246C5F31303C1F3130099
:10048000C1F30A5640F4801543F48013A7EB060825
:10049000101BD64608F2FD3873EB050002D308F1B5
:1004A000010801E092185B41B8F1000F03DA002067
:1004B0000146BDE8F08D00204FF4801106468446C9
:1004C0000EE0171B73EB050705D3121B63EB050347
:1004D00006434CEA010C49084FEA300092185B4190
:1004E00050EA0107EDD152EA030012D082EA04007B
:1004F00083EA0501084305D0101BAB4106D2012257
:10050000002306E000224FF0004302E06FF00102FA
:1005100053101AEB06004CEB085110EB0A0041EBAC
:100520000B01BDE8F04D00F064B8C1F30A52C1F30D
:10053000130140F2FF3341F480119A4202DA0020A5
:100540000146704740F233439A42A2F2334202DC42
:100550005242FFF7E7BD00F02BB8000030B5041E93
:1005600071F1000404DB4FF00044404264EB0101F0
:10057000141E73F1000405DB1C464FF00043524289
:1005800063EB0403994208BF904230BD064C074D0F
:1005900006E0E06840F0010394E807009847103453
:1005A000AC42F6D3FFF7A6FD604B0008804B000875
:1005B000202A04DB203A00FA02F100207047914023
:1005C000C2F1200320FA03F3194390407047202A18
:1005D00006DBCB17203A41FA02F043EAE07306E06B
:1005E00041FA02F3D040C2F120029140084319467B
:1005F000704710B5141E73F1000408DA401C41F175
:10060000000192185B411A4301D120F0010010BD96
:100610002DE9F04D92469B4611B1B1FA81F202E00C
:10062000B0FA80F220329046FFF7C2FF04460F4630
:1006300040EA0A0041EA0B0153465A46084313D0E8
:10064000114653EA010019D0C8F140025046FFF7A5
:1006500069FD05460E46504659464246FFF7A8FF3B
:10066000084305D0012004E020463946BDE8F08D5E
:100670000020054346EAE0762C4337430A98630599
:10068000E40AA0EB08000022FD0A44EA47540A30BD
:1006900002D500200146E9E7010510196941DDE9AD
:1006A000084500196941BDE8F04DA2E770B58C1806
:1006B00010F8015B15F0070301D110F8013B2A1176
:1006C00006D110F8012B03E010F8016B01F8016B63
:1006D0005B1EF9D12B0705D40023521E0DD401F85F
:1006E000013BFAE710F8013BCB1A921C03E013F828
:1006F000015B01F8015B521EF9D5A142D8D300205D
:1007000070BDFEE7002070470020704710B5002242
:100710000449054802F0E8F90449034802F0DEF90B
:10072000002010BDEC0F002034020020040C00203B
:1007300010B50146034802F0D1F9024802F0B2F9BF
:10074000002010BD34020020094A10B5D2F8B822AA
:10075000D2F814220AB1012010BD0A46014604480D
:1007600002F0C2F9BDE81040014802F01BBA0000D7
:100770003402002030B50346002208463124995C3B
:1007800048400021050602D584EA400000E0400010
:10079000491CC9B2C0B20829F4D3521CD2B2022AF1
:1007A000EDD330BD7047704770B5044600F0FEF8D9
:1007B0000546601C02D004480078044400F0F6F8B6
:1007C000401BA042FAD370BD680000202DE9F84F0D
:1007D000DFF8B891002409F1040A0AF1040B23465A
:1007E0000F270BF1040EC9E00125A5402A40AA42BB
:1007F0007DD1674ED1F804C0ACEB0608B44532D0C9
:1008000014DCBCF1030F3AD009DCBCF1000F2AD094
:10081000BCF1010F1CD0BCF1020F31D11DE0BCF1C5
:10082000110F17D0BCF1120F2AD119E0B8F5881FAB
:1008300019D006DCB8F5803F15D0B8F5801F1FD160
:1008400011E0B8F5001F0ED0B8F5041F18D10AE06A
:10085000CB6815E0CB681B1D12E0CB6808330FE0B6
:10086000CB680C330CE08B682BB1012B4FF00803E5
:1008700003D0456104E0042302E0056100E00023A9
:10088000FF2A01D8064601E000F104064FEA84057C
:1008900001D9A5F12005D6F8008007FA05FC28EA61
:1008A0000C0803FA05F548EA0508C6F800804D680B
:1008B000ED0062D5374DAE6946F00106AE61AD6917
:1008C00024F0030605F001050095334D06EB050CF9
:1008D000DCF80850A607360F07FA06F825EA0805DF
:1008E000DFF8B880404503D14FF0000817E044E03E
:1008F000DFF8AC80404502D14FF001080FE0DFF88F
:10090000A480404502D14FF0020808E0DFF898804B
:10091000404502D14FF0030801E04FF0040808FA07
:1009200006F848EA0508CCF808804D68D9F8006058
:10093000ED034D4601D5164300E096432E604D6809
:10094000DAF80060AD03554601D5164300E0964342
:100950002E604D68DBF80060ED025D4601D5164360
:1009600000E096432E604D68DEF80060AD027546EB
:1009700001D5164300E096432E60641C0D682A469C
:10098000E5407FF431AFBDE8F88F0000000401407E
:10099000000011100010024000000140000801405A
:1009A000000C014000100140001401400148806823
:1009B000704700006800002070B5040025D094F84E
:1009C0003D00002520B984F83C50204600F070FA24
:1009D000242084F83D002068016821F001010160B5
:1009E0002068016841F4004101602068016821F439
:1009F0000041016001F02AF94D4A6168914201D835
:100A00004C4900E04C49884201D2012070BD4B495D
:100A10002368B0FBF1F15E6826F03F060E435E608E
:100A20006368934206D94FF4967359434FF47A732F
:100A3000B1FBF3F12368491C1E6A26F03F063143DF
:100A400019626168914210D84900401EB0FBF1F272
:100A5000521CC2F30B02042A01D2042022E0B0FB94
:100A6000F1F0401CC0F30B001CE0A268F2B301EBF4
:100A7000C10303EB0116431EB3FBF6F35B1C43F407
:100A800080431B0549D092B301EBC10202EB011177
:100A9000401EB0FBF1F0401CC0F30B0040F480405E
:100AA00040F400402168CA694CF6FF739A43104332
:100AB000C861D4E9071001432068026822F0C0022F
:100AC00011430160D4E9030101432068826848F2C0
:100AD000FF339A4311438160D4E90501084321683B
:100AE000CA6822F0FF021043C86001E00EE016E081
:100AF0002068016841F0010101602564202084F82C
:100B00003D00256384F83E50002070BD01EB410696
:100B1000431EB3FBF6F35B1CB3E70120C2E701EB16
:100B20004101401EB0FBF1F0401CC0F30B00B7E7E1
:100B3000A086010080841E0000093D0040420F0095
:100B40002DE9F84F0025DDF82890984617468A468B
:100B500004460095FFF72AFF064694F83D0020283A
:100B60007AD11923012283492046009601F05AFBCD
:100B70000028F5D194F83C0001286DD0012084F8BC
:100B80003C0020680168C90703D1016841F00101F8
:100B900001602068016821F400610160222084F86E
:100BA0003D00102084F83E0025646762A4F82A8086
:100BB000608D20857048E06233464A4651462046A3
:100BC00001F046FA00287DD1208DDFF8B081202782
:100BD00068B1012814D00228206801681ED041F4B1
:100BE000806101602068416980690090B5E02068FB
:100BF000416981690091016841F400710160ACE0D4
:100C00002068016821F48061016072B62068416942
:100C100081690091016841F400710AE041F40061CA
:100C2000016072B62068416981690091016821F410
:100C30008061016062B690E0032868D801280CD07A
:100C400002284B464FF000024146204600960FD046
:100C500001F0E8FAB0BB10E08AE03246494620468F
:100C600001F05FFB70BB20680069616A08706BE08F
:100C700001F0D8FA30BB72B634E02068016821F484
:100C80008061016072B620680069616A0870606AFC
:100C9000401C6062208D401E2085608D401E608556
:100CA000374846F2A8110068B0FBF1F0C0EBC00075
:100CB00000EB80000090401E009008D02068406942
:100CC000C04300E029E040070CD50098F3E744F862
:100CD000305F6773A573206940F02000206162B621
:100CE00025731AE02068016841F4007101602068F2
:100CF0000069616A0870606A401C6062218D491E4B
:100D00002185618D491E618562B621681AE03246EF
:100D10004946204601F005FB10B10120BDE8F88FDF
:100D200020680069616A0870606A401C6062218DF9
:100D3000491E2185618D491E618521684A69D2431A
:100D400052070AD409690170606A401C6062208DF4
:100D5000401E2085608D401E6085208D00287FF418
:100D60006BAF84F83D7084F83E5084F83C50D5E772
:100D70000220D3E7020010000000FFFF0400010082
:100D8000740000202DE9F84F1F4690468A4604461D
:100D9000DDF82890FFF70AFE054694F83D0020286C
:100DA0007FD11923012240492046009501F03AFAEB
:100DB000002876D194F83C00012872D0012084F8F4
:100DC0003C0020680168C90703D1016841F00101B6
:100DD00001602068016821F400610160212084F82D
:100DE0003D00102084F83E0000262664C4F82480CC
:100DF0006785608D20852D48E0622B464A46514626
:100E0000204601F09BF990B9206841698069009003
:100E100036E02A464946204601F0B6FA50B1206C29
:100E2000042804D12068016841F4007101600120A8
:100E3000BDE8F88F606A216800780861606A401C2C
:100E40006062618D491E6185218D491E89B22185AF
:100E500022685369DB435B070BD451B10078106102
:100E6000606A401C6062608D401E6085208D401E5F
:100E700020852A464946204601F0AEF90028CED109
:100E8000208D0028C5D154F83D0B016841F4007154
:100E90000160202004F81E09E67766770020C7E786
:100EA000FFE70220C4E70000020010000000FFFF7F
:100EB00030B585B000210091019102910391264D3A
:100EC0000368264C122103222548AB421ED1E36958
:100ED00043F40013E361E36903F400130493A3698B
:100EE00043F00803A361A369039203F0080304938A
:100EF000C023CDE900316946FFF768FCE06940F4A2
:100F00000010E061E06900F4001021E0154DAB42F3
:100F10001FD1E36943F48003E361E36903F48003D1
:100F20000493A36943F00803A361A369039203F048
:100F3000080304934FF44063CDE900316946FFF79D
:100F400045FCE06940F48000E061E06900F4800065
:100F5000049005B030BD0000005400400010024075
:100F6000000C01400058004002488168027811449A
:100F70008160704768000020074810B5016841F0A3
:100F800010010160032000F075F8002000F006F861
:100F900000F024F8002010BD0020024070B50D4D77
:100FA00004464FF47A712878B1FBF0F00A490968D9
:100FB000B1FBF0F001F020F848B9102C07D2002264
:100FC0002146501E00F036F800206C6070BD0120F4
:100FD00070BD000068000020740000200C4808B5B7
:100FE000816941F001018161816901F00101009194
:100FF000C16941F08051C161C06900F0805000902A
:101000000448416821F0E06141F08061416008BD21
:101010000010024000000140002809DB00F01F0220
:10102000012191404009800000F1E020C0F800114A
:1010300070470000F0B40E4B1B680C46C3F302234C
:10104000C3F10705042D00D90425191D072901D274
:10105000002300E0DB1E012606FA05F1491E2140AF
:1010600099409E40761E16403143F0BC03F03CB8D8
:101070000CED00E0064900F0070208684FF6FF0398
:10108000184040EA0220034A1043086070470000FD
:101090000CED00E00000FA0510B50C0607D501F0D4
:1010A000070101EB810100EBC100283005E001EBF5
:1010B000810100EBC10000F5B47099B232B1012298
:1010C00002730181190C4181002010BD00220273BE
:1010D000C180F9E7704701EB810200EBC202D0F852
:1010E000E802D26B01F00DBF01EB810200EBC202FE
:1010F000D0F8E802D2F87C2101F066BF70B5044652
:101100000B0601F0070000EB800104EBC1014FF07A
:1011100001024FF0000503D581F82920283103E0B2
:1011200081F8695101F5B471087094F8A80201289A
:1011300008D084F8A822206802F086FB84F8A85220
:10114000002070BD022070BD70B5044601F00F0094
:101150006268904201D9012070BD0B0601F00700C2
:1011600000EB800104EBC1014FF001024FF00005DC
:1011700003D581F82920283103E081F8695101F570
:10118000B4718D70087094F8A802012808D084F812
:10119000A822206802F0F5FB84F8A852002070BD58
:1011A000022070BD2DE9F05F04685FEA424C0B78C5
:1011B0008D69B4F850C04FF000064BF68F7948F2B5
:1011C000800A48F68F7B48F2C00E4FF480672AD51C
:1011D0004FF0020808EBC308C44407EB4C07E45B7C
:1011E000C4F30904A54203D32D1B8D6101D00BE08C
:1011F0008E61066836F8235005EA090585F4005526
:1012000045EA0A0526F82350520609D50D780368E9
:1012100033F8252002EA0B0242EA0E0223F82520C9
:1012200084B30A8929E04FF0060808EBC308C444D8
:1012300007EB4C07E45BC4F30904A54203D32D1B61
:101240008D6101D00BE08E61066836F8235005EA07
:10125000090585F4005545EA0A0526F8235052068B
:1012600009D40B78056835F8232002EA0B0242EA1C
:101270000E0225F823202CB14A89496900682346CB
:1012800002F0EEFE2046BDE8F09F2DE9F05F054636
:1012900000680C465FEA426C16468B692278B0F80B
:1012A00050C048F68F774CF280094FF6FF7B4FF421
:1012B000004E4FF4806A4FF000017BD54FF00208DA
:1012C00008EBC208E0440AEB480C30F80C00C0F30D
:1012D0000900834211D91B1AA3610FD0730407D5EB
:1012E0002E6836F822303B4043EA090326F82230C4
:1012F00094F82420012A50D04EE1A161607810B109
:10130000012813D01AE02868B0F85030184400EBD8
:101310000210B0F8042422F4F842A0F80424B0F833
:10132000042442F40042A0F8042407E02868B0F83E
:101330005030184400EB0210A0F8041462782868BA
:1013400012B1012A11D018E0B0F8501008442178E9
:1013500000EB0110B0F80C1421F4F841A0F80C14C3
:10136000B0F80C1441F4004105E0B0F850201044EE
:10137000227800EB0210A0F80C1421782846FFF721
:10138000AAFE7004B8D521782A6832F821003840C6
:1013900040EA090022F82100FEE06269024462612D
:1013A000E2690244E2612369226A9A4203D3184641
:1013B000111A04E038E084F824100AB110462162C2
:1013C000617811B1012923D02BE02968B1F85020B0
:1013D0001144227801EB021101F2044148B13E2888
:1013E0000FD84208C30700D0521C0BEA82220A80A1
:1013F00017E00A8822F4F8420A800A8842F4004280
:10140000F5E74209C30600D1521E4EEA8222EEE7FA
:101410002968B1F850201144227801EB0211A1F89B
:10142000040483B22289B3E04FF0060808EBC20837
:10143000E0440AEB480C30F80C00C0F3090083428A
:1014400011D31B1AA3610FD0730407D42E6836F88A
:1014500022303B4043EA090326F8223094F8242046
:10146000012A50D098E0A161607810B1012813D012
:101470001AE02868B0F85030184400EB0210B0F8B9
:10148000042422F4F842A0F80424B0F8042442F41E
:101490000042A0F8042407E02868B0F8503018444F
:1014A00000EB0210A0F804146278286812B1012A37
:1014B00011D018E0B0F850100844217800EB01106A
:1014C000B0F80C1421F4F841A0F80C14B0F80C1486
:1014D00041F4004105E0B0F850201044227800EBC0
:1014E0000210A0F80C1421782846FFF7F4FD7004D0
:1014F00052D42278296831F82200384040EA0900A5
:1015000021F8220048E0626902446261E269024413
:10151000E2612369226A9A4203D31846111A2162B2
:1015200004E00AB11046216284F824106278296828
:1015300012B1012A22D029E0B1F8502011442278BA
:1015400001EB021101F20C4148B13E280FD84208CC
:10155000C30700D0521C0BEA82220A8016E00A88D8
:1015600022F4F8420A800A8842F40042F5E7420970
:10157000C30600D1521E4EEA8222EEE7B1F8502097
:101580001144227801EB0211A1F80C04628983B2A4
:101590006169286802F082FD21782A6832F821000A
:1015A00048F6BF73184080F0300048F280031843BB
:1015B00022F821000020BDE8F09F01F0070101EBB7
:1015C000810100EBC100D0F8840170472DE9F041A2
:1015D00004460F0601F0070000EB800104EBC10197
:1015E0004FF001064FF0000503D581F8296028313E
:1015F00003E081F8695101F5B47108700A61CB709C
:101600004A7802B1C881022B00D10D7194F8A8026A
:10161000012809D084F8A862206801F0E7FF284675
:1016200084F8A852BDE8F0810220FBE770B50C46B3
:1016300001F0070505EB850100EBC101C1E95F235E
:101640000022C1F8842181F8692181F8685101F5EF
:10165000B4716207006802F0E9F9002070BD70B54E
:1016600004460D4601F007006168884201D9012057
:1016700070BD29064FF000064FF0010207D500EBC0
:10168000800104EBC10181F82920283107E005EB36
:10169000850104EBC10181F8696101F5B4718A70BB
:1016A000087094F8A802012807D084F8A8222068BE
:1016B00002F0A3F9680702D006E0022070BD04F52D
:1016C0002C71206802F05BF984F8A862002070BDDC
:1016D00070B50C4601F0070505EB850100EBC10173
:1016E000C1E90F23012281F84C208B6400234B6455
:1016F00081F8292001F8285F6207006802F096F956
:10170000002070BD1FB50446006802F0A5FC00046F
:1017100002D5204600F00CFF206802F09DFC400539
:101720000CD5206830F8441F21F4806101802046E8
:1017300000F01EF90021204600F035F9206802F083
:101740008BFC400405D5206830F8441F21F480410B
:101750000180206802F080FC800405D5206830F804
:10176000441F21F400510180206802F075FCC00480
:1017700014D5206830F8401F21F004010180206852
:1017800030F8401F21F008010180204600F003F9E5
:10179000206830F8441F21F480510180206802F055
:1017A0005BFC00053ED522680020694632F82030F7
:1017B00021F81030401CC0B20828F7D332F8400F8F
:1017C00040F001001080206830F8402F22F0010224
:1017D00002802068B0F844205205FBD530F8442F31
:1017E00022F4806202800020236831F8102023F860
:1017F0002020401CC0B20828F6D3206830F8401FD3
:1018000041F008010180206830F8441F21F4006194
:101810000180206830F8401F41F00401018020461B
:1018200000F0F6F8206802F017FC800508D5206863
:1018300030F8441F21F400710180204600F0AFF819
:10184000206802F009FCC00505D5206830F8441F67
:1018500021F4807101801FBD2DE9F04186B00400A4
:1018600004D094F8A902002520B108E0012006B0B8
:10187000BDE8F08184F8A852204600F05BF8032010
:1018800084F8A902206802F073F804F11001142210
:1018900088466846FEF756FC94E80F0001F0D2FF38
:1018A0000226D0BB0021206802F0F0FB00200127B7
:1018B0000FE000BF00EB800104EBC10181F829704B
:1018C00001F8280FC881CD700D614D61401CC0B278
:1018D0008D6161688142EDD8002011E000EB80014C
:1018E00004EBC10181F8695181F8680181F86B51FD
:1018F000C1F87851C1F87C51401CC0B2C1F8805188
:1019000061688142EAD8142241466846FEF71AFC13
:1019100094E80F0002F023F810B184F8A962A5E75B
:1019200084F8245084F8A972206802F016F8002088
:101930009DE7000008B500680B49884212D10B48AA
:10194000C16941F40001C161C069002200F40000D6
:10195000009011461420FFF76DFBBDE808401420ED
:10196000FFF75ABB08BD0000005C004000100240B9
:1019700070B5044680680125022801D0FEF713FFE8
:101980002946D4F8E80201F008FCD4F8E802BDE8E2
:10199000704001F0C4BBD0F8E80201F0E8BBD0F819
:1019A000E80201F0EEBB10B5044690F8A802012849
:1019B0000BD0012084F8A80284F82410206802F0DB
:1019C00067FB002084F8A80210BD022010BDD0F8EB
:1019D000E82200F52C71104601F0EBBB10B504466F
:1019E00090F8A802012810D0012084F8A8022068ED
:1019F00002F022FB01212046FFF76CFB206801F07A
:101A0000AAFF002084F8A80210BD022010BD00002B
:101A100010B50446D0F8E80201F00AFCA0690028DD
:101A200004D00348016841F00601016010BD0000C8
:101A300010ED00E02DE9F84305460078354CC0076D
:101A400054D0E0690026C00008D4E06940F080501E
:101A5000E061E069012600F0805000902E480168A6
:101A6000C90512D40168804641F480710160FEF717
:101A70009DFF074605E000BFFEF798FFC01B6428E6
:101A800023D8D8F80000C005F6D5206A10F44070BD
:101A900021D0A98801F4407181421CD0206A1F49DD
:101AA000012220F440700A6000220A602062C00710
:101AB00011D0FEF77BFF074641F2883808E000BFEF
:101AC000FEF774FFC11B414502D90320BDE8F8832E
:101AD000206A8007F4D5206A696820F440700843C2
:101AE00020621EB1E06920F08050E0612878800714
:101AF00005D56068A96820F44040084360602878F4
:101B0000C00605D56068E96820F48000084360607D
:101B10000020DBE700100240007000404004424219
:101B20002DE9F0470F46050061D0434E306800F0C4
:101B30000700B84209D2306820F00700384330600F
:101B4000306800F00700B84251D128683B4C81074B
:101B500012D5400703D5606840F4E06060602878E3
:101B6000000703D5606840F4605060606068A96851
:101B700020F0F000084360602878C00728D068682B
:101B8000012810D02168022810D0890700292EDAF8
:101B9000616821F0030101436160FEF707FF8046A1
:101BA00041F288390DE021688903EFE78901EDE70B
:101BB000FEF7FCFEA0EB0801494502D90320BDE871
:101BC000F0876068696800F00C00B0EB810FEFD11E
:101BD000306800F00700B8420BD9306820F00700E9
:101BE00038433060306800F00700B84201D001206F
:101BF000E5E72878400705D56068E96820F4E060EB
:101C0000084360602878000706D56068296920F4D9
:101C1000605040EAC100606000F028F86168084A3E
:101C2000C1F30311515CC8400649086006480068CA
:101C3000FFF7B4F90020C2E7002002400010024084
:101C4000484B0008740000206C000020044805493F
:101C500000684968044AC1F30221515CC8407047DA
:101C60007400002000100240584B000812A185B0FB
:101C70000FC98DE80F0014A0144A00680490516841
:101C8000134801F00C03042B10D0082B0ED1C1F324
:101C90008343C9031DF803000AD5516804AAC1F3A0
:101CA0004041515C0A4A5043B0FBF1F005B0704727
:101CB00008494843FAE7000002030405060708093B
:101CC0000A0B0C0D0E0F1010010200000010024054
:101CD00000127A0000093D002DE9F84F040070D091
:101CE0002078C04DC00749D06868C0F38100012842
:101CF00007D06868C0F38100022809D16868C00372
:101D000006D52868800339D560680028E7D035E01B
:101D10006068B0F5803F0BD010B1B0F5A02F11D0A6
:101D2000286820F480302860286820F4802002E0B1
:101D3000286840F480302860606890B1FEF736FE75
:101D400006460AE0286840F480202860F0E700BFDB
:101D5000FEF72CFE801B642873D828688003F7D513
:101D60000CE0FEF723FE064605E000BFFEF71EFE70
:101D7000801B6428F0D828688003F7D420789A4E16
:101D800080074FF001094FF0000839D5686810F05E
:101D90000C0F07D06868C0F38100022809D1686879
:101DA000C00306D42868800714D52069012808D10B
:101DB00010E02069B0B1C6F80090FEF7F7FD0746C5
:101DC00005E00AE1FEF7F2FDC01B0228C4D828682E
:101DD0008007F7D52868616920F0F80040EAC10063
:101DE00028600DE0C6F80080FEF7E0FD074604E03D
:101DF000FEF7DCFDC01B022823D828688007F7D433
:101E0000207800072CD57948A169D9B1C0F8009095
:101E1000FEF7CCFD074604E0FEF7C8FDC01B022814
:101E20000FD8686A8007F7D571484FF4FA510068F7
:101E3000B0FBF1F0009000BF0098411E0091FAD273
:101E40000EE080E0C0F80080FEF7B0FD074604E039
:101E5000FEF7ACFDC01B022875D8686A8007F7D46E
:101E60002078400760D5E8690027C00008D4E869F9
:101E700040F08050E861E869012700F08050009050
:101E80005C480168C90513D40168834641F4807138
:101E90000160FEF78BFD824606E000BFFEF786FD7F
:101EA000A0EB0A0064284ED8DBF80000C005F5D589
:101EB000E06801280AD008B1052813D0286A20F06C
:101EC00001002862286A20F0040002E0286A40F03D
:101ED00001002862E06841F2883B98B1FEF766FD98
:101EE00082460BE0286A40F004002862EEE700BF5B
:101EF000FEF75CFDA0EB0A0159455AD8286A800715
:101F0000F6D50CE0FEF752FD824605E0FEF74EFDE9
:101F1000A0EB0A0159454CD8286A8007F6D41FB1B6
:101F2000E86920F08050E861E06988B36968C1F32E
:101F30008101022944D00228C6F8608004D0FEF74F
:101F400035FD044638E034E0FEF730FD074604E096
:101F5000FEF72CFDC01B02282BD828688001F7D47F
:101F6000206AB0F5803F05D16868A16820F4003090
:101F700008436860D4E908010843696821F47411D2
:101F800008436860C6F86090FEF710FD044606E05E
:101F900025E000BFFEF70AFD001B022809D82868CB
:101FA0008001F7D51BE000BFFEF700FD001B0228F3
:101FB00002D90320BDE8F88F28688001F4D40EE030
:101FC0000128F7D06868226A00F48031914204D178
:101FD000616A00F47010884201D00120EAE7002015
:101FE000E8E7000000100240000042428004424244
:101FF000740000200070004010B5401EB0F1807FDA
:1020000001D3012010BD4FF0E02460610F21601763
:1020100002F06AF80020A06107202061002010BDB6
:10202000FEE701684A69D24352050FD46FF480621B
:102030004A61002140F8301F2022427381730269F7
:1020400042F00402026101730120704700207047D2
:102050002DE9F84F0446C06A1E4693460D46216896
:102060000A6842F480620A60082807D0012805D077
:1020700010F5803F02D0206B112804D12068016840
:1020800041F4807101604FF001195B46002249461E
:102090002046009600F0C6F84FF4007840B1206862
:1020A0000068C00501D5C4F840800320BDE8F88F62
:1020B0002069DFF884A0B0F5804F0FD0062021689A
:1020C00000EAD51747F0F000086133465A460AF196
:1020D0000601204600F0DAF858BB03E0E8B240F011
:1020E00001001CE02168E8B2086133465A465146B7
:1020F000204600F0CBF8E0B9206841698169009181
:10210000016841F4807101605B4600224946204627
:10211000009600F087F80028C1D147F0F10021684F
:10212000086133465A465146204600F0AFF8002871
:10213000BCD00120BAE7000002000100F8B5044657
:10214000C06A1E460D461746082807D0012805D04C
:1021500010F5803F02D0206B122804D1206801685E
:1021600041F480710160134600224FF001112046B6
:10217000009600F057F840B120680068C00502D50D
:102180004FF4007020640320F8BD2069B0F5804F43
:102190000ED00620216800EAD51040F0F00008615A
:1021A00033463A460B49204600F070F878B902E011
:1021B00005F0FE0000E0E8B22168086105493346F9
:1021C0003A46891F204600F061F80028DCD0012043
:1021D000F8BD00000800010070B516460D46044623
:1021E0000DE02046FFF71DFF08B1012070BD681CFF
:1021F00005D0FEF7DBFB801BA84207D835B120686D
:102200004069C0434007ECD4002070BD002044F872
:10221000300F20216173A073216941F020012161F9
:102220002073E2E72DE9F0471E4690460D4604462E
:10223000C1F30747DDF8209008E0701C06D0FEF7D8
:10224000B5FBA0EB0900B0420FD876B12068012F92
:1022500018D0806925EA00000004000C14D0002189
:102260004145EAD00020BDE8F087002044F8300F57
:1022700020216173A073216941F020012161207345
:102280000120F0E74069E5E70121E9E72DE9F047A2
:102290009A4691460E46044600254FF02008C1F3A9
:1022A000074725E020684069C043400514D42068F2
:1022B000016841F40071016021686FF48060486139
:1022C000256384F83D8084F83E50206C40F0040083
:1022D000206484F83C501FE0B9F1FF3F08D0FEF7BE
:1022E00065FBA0EB0A0149450CD8B9F1000F09D0F4
:1022F0002068012F13D0806926EA00000004000C3A
:102300000BD0CFE744F8305F84F80D80A5732069C7
:1023100040F02000206125730120BDE8F08740696E
:10232000EAE72DE9F041002590460E4604462027B5
:1023300017E04069C043C0060CD454F8301B6FF05E
:102340001000486144F810596777A577206A206229
:10235000257717E0FEF72AFBA0EB0800B04208D86B
:102360003EB120684169C9434906E2D40020BDE876
:10237000F08144F8305F6773A573206940F0200056
:10238000206125730120F2E770B516460D4604461C
:102390000DE02046FFF745FE08B1012070BD681C26
:1023A00005D0FEF703FB801BA84207D835B1206893
:1023B0004069C0430006ECD4002070BD002044F802
:1023C000300F20216173A073216941F02001216148
:1023D0002073E2E7F0B500230A24302537261F4694
:1023E00011E000BFB4EB107F02D905EB107C01E0D7
:1023F00006EB107C01F813C001EB430C00015B1CE1
:102400008CF80170DBB29342ECD3F0BD114808B5F3
:10241000816941F010018161816901F01001009131
:10242000816941F020018161816901F02001009101
:10243000816941F008018161816901F00801009121
:10244000816941F004018161806900F0040000901D
:1024500008BD0000001002400D4810B50B49016096
:102460000C49416000214FF480428160C0E90312B1
:1024700041618161C1610162FEF79EFA002803D0CB
:10248000BDE81040FEF78FB910BD000000540040B9
:102490008C010020A08601000D4810B50B49016099
:1024A0000C49416000214FF480428160C0E9031271
:1024B00041618161C1610162FEF77EFA002803D0AB
:1024C000BDE81040FEF76FB910BD00000058004095
:1024D000E0010020A086010010B500220F4910483D
:1024E00000F0E8FC08B1FEF75EF90E490C4800F078
:1024F000C5FE08B1FEF757F90B49094800F0E6FAA6
:1025000008B1FEF750F9064800F00EFF002803D08E
:10251000BDE81040FEF747B910BD000008000020DC
:10252000340200205401002058000020FEE77047CC
:102530002DE9F84F044640F68F7B48F60F7A4FF0AE
:1025400002094FF4806874E1B0F8441011F00F06EE
:102550003AD030F8267039047DD530F8261001EADB
:102560000B0141F0800120F8261006EB860004EBF9
:10257000C00595F8740105F5B47500286CD0E878AD
:1025800002286AD02878226832F8201048F68F7323
:10259000194048F2C003194322F820102878D4F8D3
:1025A00000C03CF82010BCF8502049047ED509EB4F
:1025B000C000111808EB41003CF800008005800DB8
:1025C000009074D02A89D8E0C9062DD4018801EA88
:1025D0000A0141F400410180216804F12805B1F8A5
:1025E00050202B7809EBC300024408EB4200085A44
:1025F000C0F309006064E16B0844E06300212046F9
:10260000FEF769FD94F8240000289CD0A8690028F2
:1026100099D194F82400216840F08000A1F84C0082
:10262000002084F8240004E1018804F5B4750A054B
:1026300021D5B0F850202B78062101EBC3010A44C4
:1026400008EB4201405A04F52C71C0F30903EB6119
:10265000EA88206802E0ACE068E07AE001F000FD82
:102660002168088800EA0B0040F0800008802046BE
:10267000FFF7ADF9DDE00904D5D5018801EA0B01CA
:1026800041F0800101802068B0F850202B780621AD
:1026900001EBC3010A4408EB4201405A83059B0D3C
:1026A000EB6110D0696971B1EA8801E058E056E049
:1026B000206801F0D5FCE969686908446861002177
:1026C0002046FEF711FD2068018809052DD4B0F8D9
:1026D00050100844296900F20C4051B13E2910D82D
:1026E0004A08C90700D0521C4FF6FF7101EA822147
:1026F0000FE0018821F4F8410180018841F4004194
:1027000007E04A09C90600D1521E4FF4004141EAD0
:1027100082210180206801884BF68F72114081F47C
:10272000405148F280021143018082E0D4F800C099
:10273000BCF850102A78062000EBC200014408EBD8
:1027400041003CF800008005800D00901AD0EA8816
:1027500013E03A4629462046FEF724FD009011E09A
:10276000062101EBC000111808EB41003CF8000005
:102770008005800D009005D06A890346604669692E
:1027800001F06EFCE96900980844E8616969009805
:1027900008446861A86918B129690098814204D980
:1027A00029782046FEF7A0FC03E02946206801F0C6
:1027B0003DF938063DD506EB860004EBC0012068E4
:1027C00030F8262002EA0A0242F4004220F82620CD
:1027D00091F82B002831032804D018B1022824D105
:1027E000F80522D42368B3F850200D7809EBC50012
:1027F000024408EB4200185A8A69C0F30900824279
:102800000CD9121A8A610BD04A6902444A61CA691A
:102810001044C861206801F009F90AE000208861CD
:10282000E9B22046FEF757FC03E03A462046FEF7A1
:102830002CFD2068B0F8441009043FF585AE002057
:10284000BDE8F88F7047000010B505E008A002F061
:1028500069F93220FDF7A8FF02F0F6F8401CF5D028
:1028600008A002F05FF9BDE810403220FDF79CBFE0
:10287000736770333020696E6974206661696C0D0E
:102880000A000000736770333020696E697420732A
:102890007563636573730D0A000000007047FEF7EF
:1028A00063BB30B593B028216846FDF764FC142162
:1028B0000AA8FDF760FC002401200F9410941194E5
:1028C000010412948DE8130004904FF4E010CDE958
:1028D0000810022507956846FFF7FEF90F20CDE99D
:1028E0000A056802CDE90C4002210AA80E94FFF700
:1028F00017F910200F9012940FA8FFF79BF813B050
:1029000030BD70472DE9F041D0F8C032D0F8B82280
:10291000CAB101EB810500EB85040026E7693FB1F0
:1029200003EBC5039B6BB7FBF3F503FB157323B1F7
:10293000C2F814620020BDE8F08100231A46E66167
:1029400000F07FFCF6E70220F5E770B50546D0F809
:10295000B84200F07AFBC4F80C02D5F8B80248B1CE
:10296000D5F8BC12D4F80402CA6804F50371904784
:10297000002070BD022070BD70B504460026812184
:1029800000F0B6FA002501212046E56200F0B0FA19
:1029900082212046C4F86C5100F0AAFA2564D4F8CC
:1029A000B80248B1D4F8BC0204F52E7440688047E0
:1029B000206800F016FE2560304670BD10B5D0E9E5
:1029C000AE4159B194F80002FF2807D08B6894F803
:1029D000012221469847FF2084F80002002010BD04
:1029E0000A210180004870477C00002043210180BB
:1029F00000487047CC000020432101800048704708
:102A00008800002043210180004870471001002009
:102A10002DE9F04104460026007C4FF400770125A3
:102A200090B3402302228121204600F063FB402323
:102A3000E56202220121204600F05CFB082303220C
:102A400082212046C4F86C5100F054FB4FF407700B
:102A5000256400F0C7FDC4F8B802F8B10546D4F803
:102A6000BC02006880470020C5F81402C5F81802AF
:102A7000207CD5F8042298B140230121204600F0A3
:102A800045FB3046BDE8F081FFE73B46022281214D
:102A9000204600F02FFB3B46E562CAE70126F0E73F
:102AA0003B46EAE710B5D0F8B81269B1027C002ABB
:102AB000D1F8042205D04023012100F027FB00209B
:102AC00010BD4FF40073F7E7022010BD024602204C
:102AD000002902D00020C2F8BC127047D0F8B8021A
:102AE000C0F8041200207047D0F8B802C0F81022D5
:102AF000C0F80812002070472DE9FC410546D0F8C7
:102B0000B87200208DF80000ADF804000646087881
:102B10000C4610F0600121D020293BD1E288AAB1F7
:102B20000006607807D5D5F8BC128B6839469847FF
:102B3000E288394626E087F80002A07987F801028A
:102B4000E2883946284600F06AF828E0D5F8BC1239
:102B5000607800228B682146984720E0607820B199
:102B60000A2809D00B2815D110E095F89C020328FB
:102B700010D1022201A905E095F89C02032809D191
:102B800001226946284600F064F808E095F89C02A6
:102B9000032804D02146284600F036F802263046A5
:102BA000BDE8FC8110B5D0F8B812A1B1D1F814225B
:102BB0000AB1012010BD0122C1F81422D1F810225F
:102BC0000263B1F8102293B2D1F80822812100F0FB
:102BD00038FB002010BD022010BD10B5D0F8B42283
:102BE00052689047002010BD134610B50A460021D8
:102BF00000F08CFA002010BD134610B50A460021E3
:102C000000F01FFB002010BD10B50446802100F02D
:102C1000FDFA2046BDE81040002100F0F7BA10B5DB
:102C20000323C0F85C21C0F89432C0F86021134639
:102C30000A46002100F06AFA002010BD10B50521F7
:102C40000023C0F894121A46194600F05FFA0020DB
:102C500010BD10B50223C261C0F89432026213465F
:102C60000A46002100F0EDFA002010BD10B5042145
:102C70000023C0F894121A46194600F0E2FA002028
:102C800010BD000010B50A46024903A000F0E2F8AA
:102C9000004810BD040A002043444320436F6E6681
:102CA0006967000012200880004870472800002053
:102CB00010B50A46024903A000F0CCF8004810BD48
:102CC000040A002043444320496E746572666163C0
:102CD00065000000042008800048704724000020A0
:102CE00010B50A46024903A000F0B4F8004810BD30
:102CF000040A002053544D6963726F656C656374F8
:102D0000726F6E696373000010B50A46024903A032
:102D100000F0A0F8004810BD040A002053544D33C1
:102D200032205669727475616C20436F6D506F72FA
:102D30007400000010B51A2008800A480168001DC0
:102D40000468001D0068081809D008220649FFF72A
:102D500041FB0549042210312046FFF73BFB0248A6
:102D6000801E10BDE8F7FF1F3E000020F8B50446A6
:102D70000020ADF8000048880D46010A082948D215
:102D8000DFE801F04704091747473C45D4F8B01283
:102D9000207C0A6819E0207C02260028D4F8B402BE
:102DA00005D0C16A68468847014646703EE0816AA0
:102DB000F8E7C0B206282CD2DFE800F0030A1014AE
:102DC000181CD4F8B002426805E0694690471CE040
:102DD000D4F8B0028268E2B1207CF6E7D4F8B00201
:102DE000C268F8E7D4F8B0020269F4E7D4F8B00298
:102DF0004269F0E7D4F8B0028269ECE7207C40B980
:102E0000D4F8B402416B6846884701460EE0207C46
:102E100020B129462046FFF7F7FEF8BDD4F8B402EA
:102E2000016B68468847014607204870BDF80000DE
:102E300048B1EA8852B1824200D90246ADF800207A
:102E40002046FFF706FFE8880028E6D12046FFF776
:102E50000DFFF8BD70B5002300281ED004460025E4
:102E600002E06D1CEDB2641C2678002EF9D102241C
:102E700004EB450414801278CA545B1C0322CA5424
:102E800000245B1C06E0CA545B1CDAB28C54521C52
:102E9000D3B2401C0278002AF5D170BD01004FF07A
:102EA000000004D0012901D0022901D0022070477E
:102EB0000120704710B580B1D0F8B43213B10023AF
:102EC000C0F8B43209B1C0F8B012012180F89C12E8
:102ED000027000F0BFF8002010BD022010BD10B538
:102EE000D0F8C002FEF730F9BDE81040FFF7D6BFBA
:102EF00010B5D0F8C002FEF701F9BDE81040FFF7A9
:102F0000CDBF2DE9F0411746044651B1D4F8B402C3
:102F100042691AB194F89C02032851D00220BDE8FE
:102F2000F081D4F89432002504F11400022B03D070
:102F3000042B3AD0C3B33CE0D0E903639E4207D9E7
:102F4000F11AC1608AB239462046FFF755FE12E0F9
:102F50008068B0FBF3F103FB110199B9984211D3DA
:102F6000D4F8981288420DD2002211462046FFF76D
:102F700043FEC4F8985200231A461946204600F032
:102F8000C5F816E0D4F8B402C16829B194F89C02DF
:102F9000032801D1204688478021204600F036F9D9
:102FA0002046FFF74BFE04E0FFE78021204600F0BB
:102FB0002DF994F8A002012804D184F8A05201E070
:102FC000204690470020AAE770B51546044649B14F
:102FD000D4F8B40282691AB194F89C02032830D064
:102FE000022070BDD4F8941204F5AA70032902D00F
:102FF00005291ED027E0D0E903218A420BD9531AB4
:10300000C3600846834200D303469AB2294620464D
:10301000FFF7EAFD17E0D4F8B402016929B194F88A
:103020009C02032801D1204688472046FFF71EFE58
:1030300009E000200146C4F89402204600F0E6F8BA
:1030400001E020469047002070BDD0F8C002FEF796
:10305000B4BA000010B504461C481D49C0F8E84247
:10306000C4F8C00201600821416002218160002192
:103070008161C1610162FEF7EFFB08B1FDF793FBCF
:103080000022D4F8C0021823114604F53074FEF76C
:1030900003F85823002280212068FDF7FDFFC0239C
:1030A000002281212068FDF7F7FF4FF4887300228A
:1030B00001212068FDF7F0FF4FF480730022822188
:1030C0002068FDF7E9FF002010BD00001807002070
:1030D000005C00400A0601F07F01D0F8C00201EB5D
:1030E000810100EBC10002D590F82A00704790F8EA
:1030F0006A01704710B51C461346D0F8C00222463C
:10310000FEF764FABDE81040FFF7C8BE10B5D0F86E
:10311000C002FEF78BFABDE81040FFF7BFBE70B5E6
:103120000022044640231146FFF7E4FF4026012514
:10313000C4F864613346002280212046C4F8585107
:10314000FFF7D8FF6662A56184F89C520020C4F89E
:1031500094026060C4F8A402D4F8B80228B1D4F88C
:10316000B4020021426820469047002070BD90F8CC
:103170009C12042903D190F89D1280F89C12002023
:10318000704710B590F89C12032904D1D0F8B412FE
:10319000C96901B18847002010BD01740020704743
:1031A00010B5D0F8C002FEF7FEFBBDE81040FFF7F7
:1031B00075BE70B5044600F52A70054600F04AF861
:1031C0000120C4F89402B4F8AE02C4F8980294F84E
:1031D000A80210F01F010AD001290DD0022910D039
:1031E00000F08001204600F011F8002070BD294653
:1031F000204600F09EF8F8E72946204600F0CAF97C
:10320000F3E72946204600F01DF9EEE710B5D0F8A7
:10321000C002FEF724FABDE81040FFF73FBE10B52C
:10322000D0F8C002FEF7DAFBBDE81040FFF736BE6B
:1032300090F89C1280F89D12042180F89C120020C6
:10324000704710B5D0F8C002FEF742FABDE8104052
:10325000FFF724BE0A7802704A7842708A78CB78E9
:1032600002EB032242800A794B7902EB032282802F
:103270008A79C97902EB0121C1807047024600209A
:1032800011B1C2F8B41270470220704710B5D0F8DF
:10329000B42202241AB11268904700B900242046D3
:1032A00010BD000070B50E461E4D89780446297089
:1032B000012931D894F89C0202280BD003280FD0A2
:1032C00031462046FFF7A0FC29782046BDE8704033
:1032D000FFF783BCD9B10320616084F89C0209E048
:1032E00071B16068884212D0C1B22046FFF775FC08
:1032F000297861602046FFF7C9FF02280CD006E05C
:10330000022084F89C0220466160FFF766FC20469C
:10331000BDE87040FFF7AABC31462046BDE87040CA
:10332000FFF772BC7800002010B5FFF778FF00208F
:1033300010BD2DE9F0410A78002612F0600208D095
:10334000202A01D0402A70D1D0F8B4229268904748
:103350006DE04B78002201250A2B66D2DFE803F0EE
:10336000405D6557650805652C29FFF7FFFC5EE0A9
:1033700004468888D8B9C888C8B94888802816D231
:1033800000F07F0794F89C02032810D084F89E7206
:1033900039462046FFF704FF2046FFF767FC1FB1C0
:1033A000022084F89C0242E084F89C523FE02046D0
:1033B0003BE0FFF777FF3AE0CB88012B35D190F85F
:1033C0009C32012B04D0022B02D0032B2DD104E020
:1033D0008260012200F1080116E00122011D13E0C4
:1033E00090F89C22012A03D0022A01D0032A1CD182
:1033F000CA88022A19D1C560D0F8A41209B10321E4
:10340000C160022200F10C01FFF723FC0FE04988A4
:1034100001290CD1C0F8A45211E090F89C32012B84
:1034200008D0022B06D0032B04D0FFF7EDFB30466B
:10343000BDE8F08149880129F9D1C0F8A422FFF73D
:1034400015FCF4E72DE9F0410A4604461078002700
:10345000097910F060030AD0202B01D0402B50D105
:10346000D4F8B40211468368204698478FE0C0F331
:103470004110012806D05078D0B301282AD0032863
:103480003FD107E0D4F8B402114683682046BDE876
:10349000F041184794F89C02022802D0032872D108
:1034A0000AE071B380296ED02046FFF7AFFE80217D
:1034B0002046FFF7ABFE6AE0508838B931B1802969
:1034C00004D0D08810B92046FFF7A0FE2046FFF7B1
:1034D000CDFB5CE094F89C020228E2D0032852D194
:1034E000508898BB4806F1D02046FFF7F8FCEDE77E
:1034F000FFE794F89C020026022803D0032842D15B
:1035000012E040E009B180293DD1080601F07F00BA
:1035100000EB800004EB800101D5143101E001F5DE
:10352000AA7102220E602AE0080601F00F0000EBEB
:10353000800004EB80000AD5806920B301F07F0091
:1035400000EB800004EB800514350BE01FE0D0F8A1
:103550005801C0B101F07F0000EB800004EB800552
:1035600005F5AA7541B1802906D02046FFF7B2FDC6
:1035700010B10120286000E02E600222294620467A
:10358000FFF767FB03E011462046FFF73DFB384697
:10359000BDE8F08170B5054608780C4610F0600073
:1035A00003D0202801D0402816D195F89C0201288C
:1035B00003D0022801D003280ED1207901280BD88E
:1035C000D5F8B402826828469047E188014306D1C5
:1035D0002846FFF74BFB02E02846FFF715FB0020CB
:1035E00070BD704700487047F80400202DE9F0478F
:1035F0000C78002630F8243048F68F121340CA7831
:10360000002A7DD0012A7CD0022A02D0032A7FD052
:10361000012648F28002134320F824300D7830F858
:10362000254048F68F731C402C43144320F8254056
:103630000D7B48F2C00C48F6BF744CF280074BF685
:103640008F79EDB391F80080C24630F8285048F2E7
:1036500080181D4045EA080520F82A50B0F850505F
:1036600091F80080054405EB0815B1F8088028F0B2
:103670000108A5F80084B0F8505091F80080054486
:1036800005EB0815B1F80A8028F00108A5F80884B0
:103690004D78002D0D7830F825804FEA48487DD0D0
:1036A000B8F1000F07DA30F8258008EA030848EA85
:1036B000070820F825800F7830F827506D0600E0C5
:1036C0002CE006D530F827501D4045EA0C0520F8BF
:1036D0002750CB780D78012B30F8253003EA04030E
:1036E00001D083F02003134320F825300B7830F805
:1036F000231001EA0901114320F82310304602E0AB
:1037000003E008E004E0BDE8F08743F4007380E7DD
:1037100043F4C0637DE743F480637AE74D782DB3CB
:10372000B0F850500F78054405EB0715CF8827F007
:103730000107A5F800740F7830F827506D0606D5FC
:1037400030F827501D4045EA0C0520F82750CB786B
:10375000012B06D00B7830F82310214081F0200196
:10376000C9E70B7830F823102140C4E7B0F8504087
:103770000D78044404EB0514CD8825F00105A4F868
:103780000854B0F850400D78044404EB05140D695A
:1037900004F20C4475B13E2D14D800E030E04FEA3D
:1037A000550CED0701D00CF1010C4FF6FF7505EA41
:1037B0008C2511E0258825F4F8452580258845F4D9
:1037C000004509E04FEA551CED0601D1ACF1010CB2
:1037D0004FF4004545EA8C2525800D7830F82540CA
:1037E000640405D530F825401C403C4320F82540B2
:1037F0000B7830F8231001EA090181F440517AE78F
:10380000B8F1000F07DA30F8258008EA030848EA23
:10381000070820F825800F7830F827506D0606D568
:1038200030F827501D4045EA0C0520F827500D7848
:1038300030F8253003EA090383F44053134320F89A
:1038400025308EE7002070472DE9F04391F80C8079
:103850004F780A7848F6BF7C4BF68F7948F28003A0
:1038600048F2C0054CF2800648F68F74B8F1000F9C
:1038700028D0002F30F822704FEA474748D0002F59
:1038800005DA30F822702740374320F822700A7892
:1038900030F822707F0605D530F8227027402F437C
:1038A00020F822700D7830F825202240324320F88D
:1038B00025200C7830F8242002EA0C021A4320F864
:1038C00024201AE07FB130F82260760605D530F862
:1038D000226026402E4320F822600A7830F8221019
:1038E00001EA0C010EE030F822506D0405D530F8E5
:1038F00022502540354320F822500A7830F8221013
:1039000001EA0901194320F822100020BDE8F083E4
:10391000002F05DA30F822702740374320F8227054
:103920000A7830F82260760605D530F82260264005
:103930002E4320F822600E7830F8262022402A43B9
:1039400020F826200C7830F8242002EA09021A43D5
:1039500020F82420C1E70020704700207047012193
:1039600020F8401F002101808180018208467047B5
:1039700030F8401F21F43F410180002070470020B3
:10398000704730B50A7BB2BB4A7848F68F7548F26B
:103990008004C2B10B7830F82320520607D530F8E6
:1039A00023202A4048F2C0052A4320F82320CA7861
:1039B000012A20D00A7830F8221048F6BF73194047
:1039C00081F0200114E00A7830F822305B0407D53A
:1039D00030F822302B404CF280052B4320F8223067
:1039E0000A7830F822104BF68F73194081F4405159
:1039F000214320F82210002030BD10B54A78097804
:103A0000002A48F2800330F8212005D048F6BF7420
:103A1000224082F0100204E04BF68F74224082F4C0
:103A200080521A4320F82120002010BD2DE9F047D4
:103A30000E464B78097B04464FF0000948F68F721A
:103A400048F2800A4FF6FF774FF40048012B09D067
:103A500000296ED0F07802286CD001286BD00120AC
:103A6000BDE8F087B5693069854200D90546C9B11E
:103A7000F17848F28013022923D0317834F82100FC
:103A80001040184324F82100306A401B306230781F
:103A900034F82010490671787ED500297DD001299F
:103AA0007CD03FE1ABB2F2882046716900F0F6FAB3
:103AB000B4F850003178204400EB0110A0F8045411
:103AC000EAE0316A81426AD9317834F82100104045
:103AD000184324F82100306A401B3062307834F8F3
:103AE0002010490671786CD511B1012924D02AE043
:103AF000B4F85010214401EB001000F20C404DB11D
:103B00003E2D0FD86908EA0700D0491C07EA812139
:103B1000018018E0018821F4F8410180018841F416
:103B20000041F5E76909EA0600D1491E48EA81210A
:103B3000EEE79CE1BCE126E2B4F85020111901EB5C
:103B40000010A0F80C547289ABB22046716900F0E5
:103B5000A5FA7069284470613169306A884202D9D7
:103B6000401B306202E00546C6F8209070780028BD
:103B70007CD1B4F850003178204400EB011000F201
:103B800004406DB13E2D13D86908EA0700D0491CE6
:103B900007EA8121018012E001E19BE0BBE084E0C3
:103BA000018821F4F8410180018841F40041F1E7E6
:103BB0006909EA0600D1491E48EA8121EAE732890B
:103BC00065E011B1012921D027E0B4F8501021445B
:103BD00001EB001000F204404DB13E2D0FD86908F2
:103BE000EA0700D0491C07EA8121018015E001881D
:103BF00021F4F8410180018841F40041F5E76909A9
:103C0000EA0600D1491E48EA8121EEE7B4F85010D7
:103C1000214401EB0010A0F804543289ABB22046D5
:103C2000716900F03BFA7069284470613169306A4B
:103C3000884202D9401B306202E00546C6F8209057
:103C4000707800287ED1B4F850003178204400EB21
:103C5000011000F20C4055B13E2D10D86908EA075A
:103C600000D0491C07EA812101800FE072E0018841
:103C700021F4F8410180018841F40041F4E7690929
:103C8000EA0600D1491E48EA8121EDE77289ABB20C
:103C90002046716900F002FA317834F8210048F6C4
:103CA000BF72104080F03000C0E1327834F822005A
:103CB00048F68F63184040EA0A0024F82200B4F85E
:103CC00050003278204400EB02108BB2A0F804348C
:103CD0003289DDE7B4F85010214401EB001000F206
:103CE0000C404DB13E2D0FD86908EA0700D0491CA1
:103CF00007EA8121018015E0018821F4F841018063
:103D0000018841F40041F5E76909EA0600D1491E3E
:103D100048EA8121EEE7B4F85020111901EB0010B8
:103D2000A0F80C547289ABB22046716900F0B6F964
:103D30007069284470613169306A884203D9401B38
:103D4000306203E06EE00546C6F82090002DA3D057
:103D5000707858B101287FF41EAFB4F85000317864
:103D6000204400EB0110A0F8045428E7B4F85000F8
:103D70003178204400EB011101F204413E2D06D8B8
:103D80006808EA0700D0401C07EA802005E06809BF
:103D9000EA0600D1401E48EA802008800FE711B1F2
:103DA000012921D027E0B4F85010214401EB001084
:103DB00000F204404DB13E2D0FD86908EA0700D04B
:103DC000491C07EA8121018015E0018821F4F841AE
:103DD0000180018841F40041F5E76909EA0600D154
:103DE000491E48EA8121EEE7B4F85010214401EB66
:103DF0000010A0F804543289ABB22046716900F07B
:103E00004DF97069284470613169306A884202D97D
:103E1000401B306202E00546C6F82090002D96D087
:103E2000707858B101287FF420AFB4F85010081909
:103E3000317800EB0110A0F80C5427E7B4F85000DB
:103E40003178204400EB011101F20C413E2D06D8DF
:103E50006808EA0700D0401C07EA802005E06809EE
:103E6000EA0600D1401E48EA802008800EE7B169CA
:103E70003069814202D9091AB161B5E00846C6F835
:103E80001890B1E0088820F4F8400880088840F4D1
:103E900000400BE03E2875D84208C00700D0521CF5
:103EA00007EA822002E000BF48EA82200880B5E0ED
:103EB00093B9B4F850003178204400EB0110316917
:103EC00000F2044069B13E2913D84B08C90700D05D
:103ED0005B1C07EA83210180707888B1012832D009
:103EE0003AE0018821F4F8410180018841F4004161
:103EF000F1E74B09C90600D15B1E48EA8321EAE7D6
:103F0000B4F850003178204400EB0110316900F220
:103F10000C4049B13E290FD84B08C90700D05B1CA3
:103F200007EA8321018017E0018821F4F84101802C
:103F3000018841F40041F5E74B09C90600D15B1E39
:103F400048EA8321EEE7B4F850100819317800EB05
:103F50000110318AA0F80C14F069A8B3317834F854
:103F60002100430401D5430603D444F24003184220
:103F700054D134F82100104048F2C002104324F814
:103F800021004BE03CE0B1693069814202D9091A55
:103F9000B16102E00846C6F818908BB9B4F8501029
:103FA0003278214401EB021101F2044168B13E284C
:103FB00013D84208C30700D0521C07EA82220A80A5
:103FC000717889B1012921D028E00A8822F4F842C9
:103FD0000A800A8842F40042F1E74209C30600D190
:103FE000521E48EA8222EAE7B4F85010327821449F
:103FF00001EB021101F20C4100287FF44BAF41E7C5
:104000004209C0067FF450AF521E4DE7B4F850206D
:104010001119327801EB0211A1F80C04317834F84F
:1040200021004BF68F72104080F4405040EA0A00A5
:1040300024F82100002013E50021A0F844104FF4DB
:104040003F41A0F840100020704700000148FDF7F4
:1040500059BB000018070020B0F84400704700006A
:1040600010B500EB42005C0800F5806009D000BF8D
:1040700030F8042B01F8012B120A01F8012B641E01
:10408000F6D1DA0701D00088087010BD0020704713
:1040900011B98021A0F84C100020704710B55B1CAE
:1040A00000EB42005B0800F5806009D011F8012B9D
:1040B00011F8014B42EA042220F8042B5B1EF5D1D3
:1040C00010BDFEE77CB5491E1C461546CDE9000132
:1040D000044B6A462146284600F0D8F8009A002191
:1040E00011707CBDBB4900080907090E002804DBDC
:1040F00000F1E02080F80014704700F00F0000F19C
:10410000E02080F8141D704702E008C8121F08C1A3
:10411000002AFAD170477047002001E001C1121F48
:10412000002AFBD1704700002DE9FF5FDDE9022086
:10413000010DDDF838B0024318D044F61050A1F25A
:10414000FF3141430D140F98012820D0A5EB0B003F
:10415000401C5FEA000A4FF00004474EDFF81C9154
:10416000A046504616D5CAF1000728E00F98012452
:1041700043A2012808D0002100980F9BC0E900212C
:10418000C0E90243BDE8FF9F6FEA0B01F4E7CBF102
:104190000000DEE7074612E0F80707D02246334664
:1041A00040464946FCF7E0F88046894622463346B9
:1041B00010461946FCF7D8F804460E467F10002F2B
:1041C000EAD1DDE90201BAF1000F42464B4602DABC
:1041D000FCF7CAF801E0FCF739F904460E46002264
:1041E000284BFCF7BBF903D84FF0FF30014607E03E
:1041F0000022254B20463146FCF70FF8FCF795F9D5
:10420000102409E0002C0ADB0A220023FBF7D4FF6C
:10421000019B30321A55641E50EA0102F2D1641C2F
:10422000019AC4F1110314440F9A012A03D0012208
:1042300008430DD10AE0084304D000204FF0110BD1
:104240000F9080E7A3EB0B056D1E0DE05B4504DDD1
:104250004FF0000205F1010504E003DA4FF000021F
:10426000A5F10105002AECD000980F99C0E90231B0
:10427000C0E9004586E70000000024400000F03F50
:10428000300000000000F0430000E03F2DE9FF4F48
:1042900095B09B468946064600250FE2252877D132
:1042A00000242746F84A0121059400E0044316F84B
:1042B000013F203B01FA03F01042F7D130782A2861
:1042C00011D06FF02F033078A0F13002092A16D8F0
:1042D000059A44F0020402EB820203EB420210440E
:1042E000761C0590EFE759F8042B0592002A03DAB3
:1042F000504244F40054059044F00204761C307897
:104300002E2816D116F8010F44F004042A280DD0E7
:104310006FF02F023078A0F13003092B09D807EB9A
:10432000870302EB4303C718761CF3E759F8047BB5
:10433000761C30786C280FD006DC4C2817D0682803
:104340000DD06A2814D104E0742810D07A280FD137
:104350000DE044F400140AE044F4801401E044F455
:1043600040147278824202D104F58014761C761CC7
:10437000307866280BD013DC582877D009DC002869
:1043800075D04528F6D04628F4D047281AD19DE1AB
:1043900018E0632835D0642879D0652812D195E1DA
:1043A000702873D008DC6728F1D069286FD06E2898
:1043B0000DD06F2806D1B5E073282CD0752875D0A4
:1043C000782874D05A46179990476D1C75E1C4F34C
:1043D0000250022809D003280DD0D9F80010042873
:1043E0000DD00D6009F1040967E1D9F80010EA1752
:1043F000C1E90052F6E7D9F800100D80F2E70D7020
:10440000F0E719F8041B8DF8001000208DF801006A
:10441000EA46012003E059F804AB4FF0FF30610792
:104420004FF0000102D40DE008F101018846B942C5
:104430000FDA8045F8DB1AF808100029F4D108E0FB
:1044400008F1010188468142FADB1AF808100029B8
:10445000F6D105985B46A0EB080721463846179A27
:1044600000F094FA284400EB080507E04DE029E14C
:104470000DE01AF8010B5A4617999047B8F1010858
:10448000F7D25B4621463846179A13E142E00A22EA
:104490000092C4F302524FF0000A022A08D059F8E1
:1044A00004CB032A4FEAEC710AD00DE029E02AE0A0
:1044B00009F1070121F00702F2E802C1914609E083
:1044C0000FFA8CFC4FEAEC71042A03D14FFA8CFCF2
:1044D0004FEAEC71002907DA0A460021DCF1000CF2
:1044E00061EB02012D2202E0220504D52B228DF87A
:1044F0000420012203E0E20701D02022F7E79046E2
:1045000059E00A2102E010220DE010214FF0000ACC
:1045100000910BE010224FF0000A44F00404082739
:10452000009203E008224FF0000A0092C4F3025206
:10453000022A05D059F804CB0021032A08D009E04B
:1045400009F1070121F00702F2E802C1914605E0F6
:104550001FFA8CFC042A01D10CF0FF0C4FF000086C
:10456000220728D5702806D0009B83F0100353EA59
:104570000A0305D00EE040228DF80420012208E055
:104580005CEA010206D030228DF804208DF8050087
:1045900002229046009B83F0080353EA0A030AD1E3
:1045A0005CEA010201D1620705D530228DF80420B2
:1045B0004FF001087F1E582804D034A003900EA8A5
:1045C00002900DE036A0F9E753466046009AFBF7EB
:1045D000F3FD84460398825C0298401E02900270AC
:1045E0005CEA0100F0D1029806A9081A00F1200A3D
:1045F000600702D524F4803400E00127574502DD2E
:10460000A7EB0A0000E0002000EB0A0100900598EB
:104610004144401A0590E00306D45B462146179AB0
:10462000059800F0B3F90544002706E001A85A46B2
:10463000C05D179990476D1C7F1C4745F6DBE00372
:104640000CD55B462146179A059800F09FF9054462
:1046500004E030205A46179990476D1C0099481E77
:1046600000900029F5DC08E0029802995A4600788B
:10467000491C0291179990476D1CBAF10001AAF1EB
:10468000010AF1DC65E10000092801003031323314
:10469000343536373839616263646566000000007E
:1046A0003031323334353637383941424344454668
:1046B0000000000000F058F90544761C307800280E
:1046C0007FF4ECAD19B02846BDE8F08F620700D446
:1046D000062709F1070222F0070CFCE80223E14655
:1046E00003F000485FEA080C02D00FF2702C0DE0D6
:1046F0005FEA045C02D50FF2682C07E05FEAC47C35
:1047000002D00FF2602C01E0AFF2700C4FF0FF38D6
:1047100023F00043CDF850C065280CD006DC4528B6
:1047200009D046281DD047283DD13DE0662818D045
:1047300067287ED138E00021112F01DB112000E035
:10474000781CCDE9000106A90EA8FFF7EDFCDDE914
:104750000F010E9A03910021009207F1010A0491C2
:104760004DE04FF000400097CDE9011006A90EA8DA
:10477000FFF7DAFCDDE90F0203920E9B119900228C
:10478000DDF80CA00093049211B9791C00EB010A2A
:10479000B7EB0A0004D4C0F1FF3007F1010A04901E
:1047A000AAEB0700019044E0012F00DA0127002165
:1047B000112F01DD112000E03846CDE9000106A9E6
:1047C0000EA8FFF7B1FCDDE90F010E9A039100215D
:1047D00004910092BA4621070CD40399514500DA9E
:1047E0008A46BAF1010F05DD009AAAF10101515C78
:1047F000302908D0B84202DA10F1040F06DA01219C
:10480000CDE9011015E0AAF10101E9E7002805DC76
:10481000049901440491AAEB000102E0411C5145B6
:1048200000DD8A460499401A401C01904FF0004078
:104830000290200704D40198504501DBCDF8048094
:1048400000208DF84F0002980DF14F07B0F1004F96
:1048500025D02B200E9002984FF0020800280CDA89
:10486000404202902D200E9007E00A210298FBF7AB
:104870008DFC3031029007F8011DB8F10001A8F15C
:104880000108F2DC02980028EFD1791E0E9808701A
:10489000307800F0200040F0450007F8020D12A823
:1048A000C01B00F107081498007800B1012000EB4C
:1048B0000A01019801EBE07105984144401A401E3D
:1048C0000590E00306D45B462146179A059800F050
:1048D0005DF805441498007818B15A461799904726
:1048E0006D1CE00324D55B462146179A059800F01D
:1048F0004DF805441CE00498002807DBDDE90301BE
:10490000884203DD0098405C179901E01799302038
:104910005A469047049805F10105401C04900198FF
:10492000401E019004D12E205A46179990476D1CC5
:10493000BAF10001AAF1010ADDDC05E017F8010B6C
:104940005A46179990476D1CB8F10001A8F101086B
:10495000F4DC5B462146179A0598ABE62D00000073
:104960002B000000200000002DE9F0410446002546
:104970001E461746880404D405E039462020B04777
:104980006D1C641EF9D52846BDE8F0812DE9F04183
:10499000044600251E469046C80301D5302700E096
:1049A0002027880404D505E041463846B0476D1CF1
:1049B000641EF9D52846BDE8F0814A68002A06D071
:1049C0000A68531C0B6010704868401E48607047AE
:1049D000FCF7D2FAFDF765FFFDF718FDFDF73CFD8A
:1049E000FDF77AFDFDF758FDFDF72EFF0A20FBF7D6
:1049F000DBFE064C00F01AF82080014604A000F00F
:104A000091F86420FBF7D0FEF4E7000004000020DA
:104A100063757272656E7420434F3256616C7565B2
:104A20003A20256470706D0D0A00000010B500F08A
:104A30002DF8401C04D06420FBF7B6FE0148008826
:104A400010BD0000000000207CB506208DF8040099
:104A50004FF6FF700090012301AA00210A48FCF7DD
:104A600091F94FF0FF3458B96420FBF79DFE42F2F4
:104A7000030000F045F805466420FBF795FE0DB1F4
:104A800020467CBD00207CBDE00100203EB500201A
:104A90000190029042F2080000F032F84FF0FF342B
:104AA000E0B96420FBF780FE200C0090062301AAE9
:104AB000B1211148FCF744F880B9FF2101A8FBF7A8
:104AC00059FE9DF80610884208D1FF210DF107001C
:104AD000FBF750FE9DF80910884201D020463EBDEC
:104AE000BDF8040041BA05480180BDF8071049BA75
:104AF000418000203EBD0000E001002000000020B9
:104B00001CB5010A8DF804108DF805004FF6FF70F2
:104B10000090022301AAB0210148FCF733F91CBD23
:104B2000E00100200FB44FF47A7110B503AB0548D3
:104B3000029AFFF7C7FA81B20248FBF705FE10BCE4
:104B40005DF814FBEC0F00200000000000000000E6
:104B50000102030406070809000000000102030423
:104B6000804B0008000000208C010000AC0600080B
:104B7000404C00088C0100204C1600001841000831
:104B80008113A52C1B08D5041AE10413092D1B0859
:104B900035041A850C1AB104170403090412011410
:104BA0000202021640830440572602010203010359
:104BB0001A1A031B0D074819041A05041A3104199F
:104BC0002F1182105324F4130A0632022A401C1CAF
:104BD000090243571125C03209041B01020B1305BA
:104BE00024161001052401100901042402020524E1
:104BF00006170107058203081C1009048D320A1DDF
:104C000007050102432C070581070938442A40079C
:104C10002A8107112B0907440A3B044413112A1463
:104C20000879291B08F908411ABD0C1A05041A4B0A
:104C300004C11AF9102AED1C19281AE10800000015
:04000005080000ED02
:00000001FF
